:020000040000FA
:1000000018230220F902000001030000030300008E
:1000100005030000070300000903000000000000C2
:100020000000000000000000000000000B030000C2
:100030000D030000000000000F030000110300008A
:1000400089190000130300002D1D0000951A0000FF
:1000500013030000130300007D0C000013030000D5
:10006000151D00001303000013030000130300001C
:100070001303000013030000130300001303000028
:1000800013030000DD190000130300001303000038
:10009000A91A00001303000013030000130300005B
:1000A00013030000130300001303000013030000F8
:1000B0001303000013030000000000000000000014
:1000C00013030000130300001303000013030000D8
:1000D00013030000130300001303000013030000C8
:1000E00013030000130300001303000000000000CE
:1000F00000000000130300000000000013030000D4
:1001000000000000000000000000000000000000EF
:1001100000000000000000000000000000000000DF
:1001200000000000000000000000000000000000CF
:1001300000000000000000000000000000000000BF
:1001400000000000000000000000000000000000AF
:10015000000000000000000000000000000000009F
:10016000000000000000000000000000000000008F
:10017000000000000000000000000000000000007F
:10018000000000000000000000000000000000006F
:10019000000000000000000000000000000000005F
:1001A000000000000000000000000000000000004F
:1001B000000000000000000000000000000000003F
:1001C000000000000000000000000000000000002F
:1001D000000000000000000000000000000000001F
:1001E000000000000000000000000000000000000F
:1001F00000000000000000000000000000000000FF
:10020000DFF80CD000F014F9004800470D4700005B
:100210001823022030B4044654E8000F0D4644E889
:100220000053002BF8D1156030BC704730B4044641
:1002300054E8000F40EA010544E80053002BF7D1D1
:10024000156030BC704730B4044654E8000F00EA33
:10025000010544E80053002BF7D1156030BC70470E
:1002600030B4044654E8000F80EA010544E8005326
:10027000002BF7D1156030BC704730B4044654E809
:10028000000F00EB010544E80053002BF7D1156087
:1002900030BC704730B4044654E8000FA0EB0105B1
:1002A00044E80053002BF7D1156030BC704770B4A0
:1002B00004464FF0000054E8006F0D68AE4207BFDF
:1002C00044E80023012044E800630E60002B1CBFBB
:1002D0000020F0E770BC704730B4044654E8000FCB
:1002E00088422CBF451A054644E80053002BF5D13F
:1002F000156030BC7047000006488047064800473C
:10030000FEE7FEE7FEE7FEE7FEE7FEE7FEE7FEE7C5
:10031000FEE7FEE7E51A000001020000202A04DBE8
:10032000203A00FA02F1002070479140C2F1200308
:1003300020FA03F3194390407047000000487047CB
:100340008886040010B5431A934209D2831888188E
:1003500003E010F8011D03F8011D521EF9D210BD73
:1003600040EA01039B0703D009E008C9121F08C037
:10037000042AFAD203E011F8013B00F8013B521EB7
:10038000F9D210BDD2B201E000F8012B491EFBD218
:1003900070470022F6E710B513460A460446194690
:1003A000FFF7F0FF204610BD421C10F8011B00298A
:1003B000FBD1801A704710B5002200E0521C835C0C
:1003C0008C5CA34201D1002BF8D1D8B2E1B2401A23
:1003D00010BD034611F8012B00F8012B002AF9D1BA
:1003E0001846704730B505460020034600E05B1C08
:1003F000934205D2EC5CC85C201A01D1002CF6D1E6
:1004000030BD30B50B46014600202022012409E012
:1004100021FA02F59D4205D303FA02F5491B04FABD
:1004200002F52844151EA2F10102F1DC30BD0000E6
:10043000064C074D06E0E06840F0010394E8070031
:1004400098471034AC42F6D3FFF7DEFE888E0400E6
:10045000A88E040070B58C1810F8015B15F0070326
:1004600001D110F8013B2A1106D110F8012B03E04D
:1004700010F8016B01F8016B5B1EF9D12B0705D455
:100480000023521E0DD401F8013BFAE710F8013B9E
:10049000CB1A921C03E013F8015B01F8015B521EBA
:1004A000F9D5A142D8D3002070BD2DE9F041054611
:1004B0000C4616461F461A35641C2A2001F03EFCE5
:1004C000280A01F044FC284601F041FCA919080A59
:1004D00001F03DFCA81901F03AFC2B2001F02EFCA4
:1004E000200A01F034FC204601F031FCE119080A31
:1004F00001F02DFCE01901F02AFC2C2001F01EFC7B
:10050000BDE8F08113B50122BDF8003040F2B274AD
:10051000A34277DBBDF8003042F20F74A34271DCD6
:100520009DF80230002B6DD09DF802300C2B69DC59
:100530009DF80330002B65D09DF803301F2B1BDD89
:100540009DF80230012B5DD09DF80230032B59D06D
:100550009DF80230052B55D09DF80230072B51D065
:100560009DF80230082B4DD09DF802300A2B49D05F
:100570009DF802300C2B45D09DF803301E2B0FDD6B
:100580009DF80230042B3DD09DF80230062B39D067
:100590009DF80230092B35D09DF802300B2B31D05D
:1005A0009DF803301D2B0CDD9DF80230022B08D185
:1005B000BDF80010CB1701EB93739B10A1EB8303E5
:1005C00003B39DF803301C2B0CDD9DF80230022B89
:1005D00008D1BDF80000C31700EB93739B10A0EB8C
:1005E00083037BB99DF80430172B0BDC9DF8053095
:1005F0003B2B07DC9DF806303B2B03DC9DF80730D6
:10060000062B00DD002210461CBD00002DE9FE4334
:1006100004460425042601AA02A9364801F06FF910
:100620003549088800EBD0714F103449088800EB39
:10063000D0714FEA61080C2094FBF0F100FB1140EF
:1006400003280ED1002008EB06020090BDF804300C
:10065000D21A91B27A1B90B2BDF8082000F0C2FC09
:1006600045E00C2094FBF0F100FB114006280DD171
:100670000020A8EB060291B27A1B009090B2BDF860
:100680000430BDF8082000F0ADFC30E00C2094FBF5
:10069000F0F100FB1140092810D10020A8EB060260
:1006A00091B27A190090BDF80830D21A90B2BDF814
:1006B0000430BDF8082000F095FC18E00C2094FBF5
:1006C000F0F100FB114090B9002008EB0602009009
:1006D000BDF80430D21A91B27A19BDF80830D21A96
:1006E00090B2BDF80430BDF8082000F07BFCBDE8F6
:1006F000FE8300006000002054000020560000200F
:100700002DE9FE4304460425042601AA02A92C482B
:1007100001F0F5F82B49088800EBD0714F102A49F9
:10072000088800EBD0714FEA61080F2C0ED1002031
:1007300008EB06020090BDF80430D21A91B27A1B81
:1007400090B2BDF8082000F04DFC36E01E2C0DD113
:100750000020A8EB060291B27A1B009090B2BDF87F
:100760000430BDF8082000F03DFC26E02D2C10D10F
:100770000020A8EB060291B27A190090BDF808306B
:10078000D21A90B2BDF80430BDF8082000F02AFC5F
:1007900013E094B9002008EB06020090BDF8043085
:1007A000D21A91B27A19BDF80830D21A90B2BDF8B7
:1007B0000430BDF8082000F015FCBDE8FE83000001
:1007C000F03C002054000020560000202DE9F041AC
:1007D0000446254605B90EE000BF4FF47A7606B907
:1007E00005E0DFF81880B7013846C04700BF681E33
:1007F000051EF2D100BFBDE8F0810000D1830400E6
:100800002DE9F04385B00446042504264B4A07CA67
:100810008DE8070003AA04A9494801F070F8494986
:10082000088800EBD0714F104749088800EBD07161
:100830004FEA61080C2094FBF0F100FB1140032803
:1008400013DA032094FBF0F100FB11405DF82090D7
:1008500008EB0602BDF80C30D21A91B27A1B90B2A6
:1008600000234A4600F0F4FE65E00C2094FBF0F112
:1008700000FB1140032817DB0C2094FBF0F100FB78
:100880001140062810DA032094FBF0F100FB114020
:100890005DF82090A8EB060291B27A1B90B25A2321
:1008A0004A4600F0D5FE46E00C2094FBF0F100FB38
:1008B000114006281ADB0C2094FBF0F100FB1140DC
:1008C000092813DA032094FBF0F100FB11405DF8D6
:1008D0002090A8EB060291B27A19BDF81030D21A16
:1008E00090B2B4234A4600F0B3FE24E00C2094FBFF
:1008F000F0F100FB114009281DDB0C2094FBF0F106
:1009000000FB11400C2816DA032094FBF0F100FBE9
:1009100011405DF8209008EB0602BDF80C30D21AA9
:1009200091B27A19BDF81030D21A90B24FF4877391
:100930004A4600F08DFE05B0BDE8F083887C0000DB
:100940006000002054000020560000202DE9F047F0
:1009500092B081460C46042504263C22C34901A8D6
:10096000FFF7F0FC10AA11A9C14800F0C8FFC14967
:10097000088800EBD0714F10BF49088800EBD07198
:100980004FEA61080F2C54DA0C2099FBF0F100FBC0
:100990001190032819DA4846FFF732FF0F2094FB25
:1009A000F0F100FB114001A951F820A0002008EB54
:1009B00006020090BDF84030D21A91B27A1B90B274
:1009C0000023524600F0DCFE4DE10C2099FBF0F1D3
:1009D00000FB1190032817D10F2094FBF0F100FBCE
:1009E000114001A951F820A008EB0602BDF84030E3
:1009F000D21A91B27A1B90B20023524600F028FE20
:100A00004846FFF7FDFE2EE10F2094FBF0F100FBBE
:100A1000114001A951F820A008EB0602BDF84030B2
:100A2000D21A91B27A1B90B20023524600F010FE07
:100A300019E10F2C54DB1E2C52DA0C2099FBF0F13B
:100A400000FB119003281DDB0C2099FBF0F100FB4B
:100A50001190062816DA4846FFF7D2FE0F2094FBC5
:100A6000F0F100FB114001A951F820A05A20A8EB99
:100A7000060291B27A1B009090B20023524600F019
:100A80007FFEF0E00C2099FBF0F100FB11900628AE
:100A900014D10F2094FBF0F100FB114001A951F893
:100AA00020A0A8EB060291B27A1B90B25A235246BC
:100AB00000F0CEFD4846FFF7A3FED4E00F2094FBE4
:100AC000F0F100FB114001A951F820A0A8EB0602AB
:100AD00091B27A1B90B25A23524600F0B9FDC2E09F
:100AE0001E2C5DDB2D2C5BDA0C2099FBF0F100FB5A
:100AF0001190062820DB0C2099FBF0F100FB1190EF
:100B0000092819DA4846FFF77BFE0F2094FBF0F125
:100B100000FB114001A951F820A0B420A8EB060267
:100B200091B27A190090BDF84430D21A90B20023E5
:100B3000524600F025FE96E00C2099FBF0F100FBF8
:100B40001190092817D10F2094FBF0F100FB114000
:100B500001A951F820A0A8EB060291B27A19BDF8BC
:100B60004430D21A90B2B423524600F071FD484688
:100B7000FFF746FE77E00F2094FBF0F100FB1140F9
:100B800001A951F820A0A8EB060291B27A19BDF88C
:100B90004430D21A90B2B423524600F059FD62E0BC
:100BA0002D2C60DB3C2C5EDA0C2099FBF0F100FB75
:100BB000119009281DDB4846FFF722FE0F2094FB09
:100BC000F0F100FB114001A951F820A04FF487700B
:100BD00008EB06020090BDF84030D21A91B27A19A3
:100BE000BDF84430D21A90B20023524600F0C8FD3E
:100BF00039E00C2099FBF0F100FB1190D8B90F20DF
:100C000094FBF0F100FB114001A951F820A008EB82
:100C10000602BDF84030D21A91B27A19BDF84430BC
:100C2000D21A90B24FF48773524600F011FD484635
:100C3000FFF7E6FD17E00F2094FBF0F100FB1140F9
:100C400001A951F820A008EB0602BDF84030D21AE5
:100C500091B27A19BDF84430D21A90B24FF487732A
:100C6000524600F0F5FC12B0BDE8F087947C00001D
:100C7000F03C002054000020560000202DE9F04FE9
:100C80008DB0002700200B900C904FF480700A90DC
:100C90000126002412E00A9804F090FF40B100BF42
:100CA0007E480068304018B10A9804F079FF374355
:100CB00076000A98001D80B20A90641C082CEAD3C2
:100CC0004FF4BE7004F07AFF50B14FF4BE7004F0E0
:100CD00067FF47F000470BAA0221002004F01EFF27
:100CE000F8B200B3012600241BE006EA0700B0B109
:100CF00000BF6B4850F82400C0F30520804600BFB9
:100D0000674850F82400C0F301408146204601F0B6
:100D1000A3FD054615B149464046A84700BF7600E9
:100D2000641C082CE1D307F0004000287DD04FF070
:100D3000000B002008900990002505E04FF0FF30DF
:100D400006A941F825006D1C022DF7D300BF4FF016
:100D5000000B002463E05348005D0590059820F0E7
:100D6000C00004904F480057401C002856D006A9E8
:100D7000049803F0EFFE002850D005984FEA901930
:100D8000049801F0B1FD804601F066FD03900398E0
:100D900010B9B9F1030F40D1B9F1030F03D108A97C
:100DA000049803F0E2FE0498029002A804F050FEBA
:100DB0000190019800F5E060029950F82100C0F31D
:100DC000014800BF0BA9049803F0C4FE8246BAF1A3
:100DD000000F02D0B8F1020F05D0BAF1000F1BD1FD
:100DE000B8F1030F18D1B9F1030F0FD1B8F1020F09
:100DF00001D1032000E0022002900299049804F03F
:100E0000A2FD0BF1010000F0FF0B00BF039818B129
:100E10004946DDE90320904700BF00BF641C042C55
:100E200099D3BBF1000F31D000E034E04FF001085E
:100E300004AA0221002004F071FE00250BE004A8A2
:100E400050F825000BA951F82510884202D04FF028
:100E5000000802E06D1C022DF1D300BFB8F1000FB5
:100E600002D04FF0000B10E000250CE004A850F871
:100E700025000BA941F8250008A850F8250006A96F
:100E800041F825006D1C022DF0D300BFBBF1000F0F
:100E90007FF45DAF00BF0DB0BDE8F08F046300408C
:100EA00010650040B4FA01207CB505460020009092
:100EB0000190286068604FF47F24208880B2ADF8EC
:100EC00000002068000C8DF802002068000E8DF8EC
:100ED0000300241D20788DF804002088000A8DF876
:100EE00005002068000C8DF806002068000E8DF8C3
:100EF0000700DDE90001FFF705FBE0B940F2E37010
:100F0000ADF800000C208DF802001F208DF80300C2
:100F100017208DF804003B208DF8050023208DF864
:100F20000600DDE9000100F00BF88DF80700DDE9AF
:100F3000000100F0BDFD00982860019868607CBD4C
:100F400033B504230022BDF8000040F2B274A04281
:100F500001DAFF203CBD40F2B27108E001F003006D
:100F600010B902F5B77201E002F26D12491CBDF82A
:100F700000008842F2D80720B2FBF0F400FB1422F4
:100F800098180724B0FBF4F504FB15031846E1E7B5
:100F900070B5044600BFA02606EB860006019F231D
:100FA0004F2200210846FFF780FA1D2004F06DFD56
:100FB000002506E0201200F0E1FEE0B200F0DEFEC7
:100FC0006D1CB542F6D370BD70B505460E4614468D
:100FD00001231A4631462846FFF767FA204600F0FB
:100FE000BFFE70BD2DE9F04781460C4617461E46F0
:100FF000DDF820A0254614E0A019431B3A462946F7
:101000004846FFF752FA4FF0000806E0504600F05D
:10101000A7FE08F101001FFA80F8B845F6DB681C4E
:1010200085B2A019A842E7DABDE8F08710B504211F
:10103000032004F089FD1D211C2004F085FD06F02D
:1010400003FA1C2004F021FD0A20FFF7BFFB1C203F
:1010500004F096FC0A20FFF7B9FB1C2004F015FDF4
:101060007820FFF7B3FB112000F068FE7820FFF72F
:10107000ADFBB12000F062FE052000F068FE3C20D0
:1010800000F065FE3C2000F062FEB22000F056FE4B
:10109000052000F05CFE3C2000F059FE3C2000F0F2
:1010A00056FEB32000F04AFE052000F050FE3C2022
:1010B00000F04DFE3C2000F04AFE052000F047FE07
:1010C0003C2000F044FE3C2000F041FEB42000F043
:1010D00035FE002000F03BFEB62000F02FFEB420CD
:1010E00000F035FEF02000F032FEC02000F026FEB9
:1010F000AB2000F02CFE0B2000F029FE042000F0B5
:1011000026FEC12000F01AFEC52000F020FEC220FD
:1011100000F014FE0D2000F01AFE002000F017FE73
:10112000C32000F00BFE8D2000F011FE6A2000F0BD
:101130000EFEC42000F002FE8D2000F008FEEE201E
:1011400000F005FEC52000F0F9FD0F2000F0FFFDC6
:10115000362000F0F3FDC82000F0F9FDE02000F09B
:10116000EDFD072000F0F3FD0E2000F0F0FD08205B
:1011700000F0EDFD072000F0EAFD102000F0E7FD93
:10118000072000F0E4FD022000F0E1FD072000F060
:10119000DEFD092000F0DBFD0F2000F0D8FD25204A
:1011A00000F0D5FD362000F0D2FD002000F0CFFD8C
:1011B000082000F0CCFD042000F0C9FD102000F054
:1011C000C6FDE12000F0BAFD0A2000F0C0FD0D20B0
:1011D00000F0BDFD082000F0BAFD072000F0B7FDCB
:1011E0000F2000F0B4FD072000F0B1FD022000F058
:1011F000AEFD072000F0ABFD092000F0A8FD0F2098
:1012000000F0A5FD252000F0A2FD352000F09FFD97
:10121000002000F09CFD092000F099FD042000F062
:1012200096FD102000F093FDFC2000F087FD80204B
:1012300000F08DFDF02000F081FD112000F087FD11
:10124000D62000F07BFDCB2000F081FD3A2000F09D
:1012500075FD052000F07BFD212000F06FFD2920A9
:1012600000F06CFD032004F08BFB002002490870A5
:10127000FFF78EFE10BD000061F7012070B5044637
:101280000D4616460020288030801CB12046FFF70E
:101290008BF800B970BD0F480078308014E02078DA
:1012A000802809DA0B49087800EBD0712A8802EB14
:1012B00061012980641C07E0607828B1288805490D
:1012C000097808442880A41C20780028E7D100BFB2
:1012D000E0E700005C000020002803DD112801DAAF
:1012E00001490870704700005C0000202DE9FF5F95
:1012F00006460C461746A2463A4B1978CB1701EB27
:101300005373DB10DFF8DCC09CF800004FEAE07C90
:1013100000EB5C7C4FEAEC0CA0EBCC0CBCF1000FBA
:1013200002D04FF0010C01E04FF0000C6344DFF8F5
:10133000B4C09CF8002002EBD27C4FEA6C0C03FB9B
:101340000CF303F0FF0BA7F12000C7B2002545E026
:1013500024480078102805D1234800EB071010F826
:10136000058001E0BDE8FF9F00BF4FF000092FE0BE
:1013700008F0800030B11D48028821463046FFF752
:1013800023FE07E0039828B9194802882146304611
:10139000FFF71AFE4FEA48604FEA1068601C84B2FB
:1013A00014480088844200DBDCE7A4EB0A000D4906
:1013B0000978884208D15446701C86B20E480088CD
:1013C000864200DBCEE706E009F1010000F0FF09EC
:1013D000B9F1080FCCDB00BF681CC5B25D45B7DBB7
:1013E00000BFBFE75C000020887F0000580000209D
:1013F0005A00002056000020540000202DE9FF4F25
:1014000081B006460C461746A24600BF394A1178FD
:10141000CA1701EB5272D210364B1878C31700EB83
:101420005373DB10A0EBC3030BB1012300E00023D7
:101430001A44304B1B785A43D2B20092A020C0EB22
:101440002720401E5E214143F8B2A138012212FB41
:1014500000101FFA80FB002546E02648007810287F
:1014600005D1254800EB4B1010F8058002E005B0CF
:10147000BDE8F08F00BF4FF000092FE008F08000BA
:1014800030B11E48028821463046FFF79DFD07E037
:10149000049828B91A48028821463046FFF794FD7F
:1014A0004FEA48604FEA1068601C84B21548008813
:1014B000844200DBDBE7A4EB0A000E49097888428E
:1014C00008D15446701C86B20F480088864200DB63
:1014D000CDE706E009F1010000F0FF09B9F1080FBE
:1014E000CCDB00BF681CC5B200988542B5DB00BFED
:1014F000BDE700005C000020788500005800002057
:101500005A00002056000020540000202DE9F04130
:1015100005460E46144605F0FF0800272DE01A4840
:101520000088854200DB2BE018480088864200DBFB
:1015300026E0207880280EDA2278002331462846DB
:10154000FFF7D4FE1249087800EBD07105EB61017A
:101550008DB2641C11E0607878B120780702607861
:10156000384487B200233A4631462846FFF746FF03
:1015700007480078284485B2A41C20780028CED1E2
:1015800000BFBDE8F081000054000020560000209C
:101590005C00002010B50A48007800B110BD28207A
:1015A00000F0CCFB102000F0C9FB7820FFF70EF90B
:1015B000032004F06AFA01200149087000BFEDE73A
:1015C00061F7012010B50A48007800B910BD11205C
:1015D00000F0B4FB7820FFF7F9F8292000F0AEFB0B
:1015E000032004F0CDF900200149087000BFEDE7A9
:1015F00061F701202DE9F047814688461446FF2215
:10160000D4E9021002FB010086B2D4E9041002FB07
:1016100001001FFA80FA002516E008EB05010123FE
:1016200032464846FEF741FF002709E005FB06F178
:101630000831394454F8210000F092FB781C87B23D
:10164000B742F3DB681C85B25545E6DBBDE8F087A1
:101650002DE9F05F8346894617469A46FF22D7E96F
:10166000021002FB010085B2D7E9041002FB010061
:101670001FFA80F8BAF1000F09D0BAF15A0F22D040
:10168000BAF1B40F3ED0BAF5877F76D158E0002486
:1016900016E009EB040101232A465846FEF705FF30
:1016A000002609E004FB05F10831314457F8210018
:1016B00000F056FB701C86B2AE42F3DB601C84B2B5
:1016C0004445E6DB59E0002419E009EB040101235D
:1016D00042465846FEF7E9FE00260CE0A8F101015B
:1016E00005FB014106FB1511083157F8210000F0F8
:1016F00037FB701C86B24645F0DB601C84B2AC42FE
:10170000E3DB3AE0002418E009EB040101232A4658
:101710005846FEF7CAFE00260BE005FB08F1C91D7E
:1017200005FB1411891B57F8210000F019FB701CF0
:1017300086B2AE42F1DB601C84B24445E4DB1CE0BF
:10174000002417E009EB0401012342465846FEF746
:10175000ACFE00260AE0691E091B05FB06110831D4
:1017600057F8210000F0FCFA701C86B24645F2DB07
:10177000601C84B2AC42E5DB00BF00BFBDE8F09F57
:101780002DE9F05F81468A4617469B46FF22D7E93E
:10179000021002FB010086B2D7E9041002FB01002F
:1017A0001FFA80F80A9838B15A282AD0B42853D0A2
:1017B000B0F5877F24D178E000241FE0002519E0F0
:1017C00004FB06F00830284457F8200058450FD095
:1017D0000AEB040109EB050001231A46FEF765FE3A
:1017E00004FB06F10831294457F8210000F0B8FA4B
:1017F000681C85B2B542E3DB601C84B24445DDDB86
:101800007AE0002425E000251FE0A8F1010006FB96
:10181000004005FB1600083057F82000584512D04C
:101820000AEB040109EB050001231A46FEF73DFE11
:10183000A8F1010106FB014105FB1611083157F81B
:10184000210000F08DFA681C85B24545DDDB601C87
:1018500084B2B442D7DB4FE0002423E000251DE032
:1018600006FB08F0C01D06FB1400401B57F82000C3
:10187000584511D00AEB040109EB050001231A4673
:10188000FEF713FE06FB08F1C91D06FB1411491BE8
:1018900057F8210000F064FA681C85B2B542DFDB1E
:1018A000601C84B24445D9DB26E0002421E00025F9
:1018B0001BE0701E001B06FB0500083057F82000D7
:1018C000584510D00AEB040109EB050001231A4624
:1018D000FEF7EBFD711E091B06FB0511083157F8D9
:1018E000210000F03DFA681C85B24545E1DB601C33
:1018F00084B2B442DBDB00BF00BFBDE8F09F30B56F
:10190000FF25D0E9024305FB04330B80D0E90443F3
:1019100005FB0433138030BD00F01F02012191400C
:10192000024A430942F823107047000080E200E0B9
:1019300000F01F02012191404209920002F1E022D1
:10194000C2F800117047000000F01F020121914011
:10195000024A430942F823107047000000E200E009
:1019600010B5002807DA4A07140E054A00F00F03E5
:101970001B1FD45403E04A07130E024A135410BD30
:1019800018ED00E000E400E010B54FF4807003F0C3
:10199000D5FD80B14FF4807003F0D9FD012003F034
:1019A000DFFD0D48407930B901200B4948710846E8
:1019B0000168002088474FF4827003F0BFFD50B1EA
:1019C0004FF4827003F0C3FD022003F0C9FD02480A
:1019D00001680120884710BD8CF7012010B5002058
:1019E0000949086000210948C0F84411C0F84811AD
:1019F000C0F84C1100200549C1F8000102493C39EA
:101A0000086005F0B9FF10BD401101400010014011
:101A10002DE9F047074688461646C24607EB4701C0
:101A20001B4800EBC109D9F8140020B1012811D0DE
:101A3000022826D11EE0484600F0DEF90546B542F0
:101A400001D2002405E0344632465146484600F0B3
:101A50001AFA18E0484600F0CFF90546B54201D21F
:101A6000284600E03046044622465146484600F0EB
:101A70000AFA08E032465146484600F0CBF90446DF
:101A800001E0002400BF00BF2046BDE8F087000051
:101A9000A800022010B50249024802F08DF910BDDD
:101AA00008FA01200030004010B505F077FE10BDA7
:101AB00003B585B014216846FEF76BFC4FF47F2018
:101AC00004F096FD082205A94FF47F2004F000FEE3
:101AD00007B000BD01480249086070470090D0037C
:101AE00018F8012010B501F00DFB40B10020794934
:101AF00008604FF08041C1F810017749086001F09B
:101B00001DFB002855D0754800687549086073486A
:101B1000001D0068091D0860704808300068091D34
:101B200008606E480C300068091D08606B48103072
:101B30000068091D0860694814300068091D0860C4
:101B400066481830006866492031086063481C30D8
:101B50000068091D0860614820300068091D0860A0
:101B60005E4824300068091D08605C482830006821
:101B7000091D086059482C300068091D0860574845
:101B800030300068564940310860544834300068AD
:101B9000091D0860514838300068091D08604F4829
:101BA0003C300068091D08604C4840300068091D41
:101BB000086001F0DFFA10B14A484B49086001F0B3
:101BC0005BFA10B1FB204949086001F063FA38B1B3
:101BD000474801784748006861F3030045490860B9
:101BE00001F066FA18B14FF400704349086001F043
:101BF0006DFA40B14148006800F0010018B16FF083
:101C000001003E4908603E48006840F470003C49CD
:101C1000086000BF00BF00BFBFF34F8F00BF00BF11
:101C200000BF00BF00BF00BFBFF36F8F00BF00BF8A
:101C300000BF3448006800F0004030B93148001D52
:101C4000006800F00040002840D001202E490860C4
:101C500000BF2E4800680028FBD0122029490860E8
:101C600000BF2A4800680028FBD012212548001D2B
:101C7000016000BF254800680028FBD000202249F1
:101C8000086000BF214800680028FBD000BF00BFEB
:101C900000BF00BF00BFBFF34F8F00BF00BF00BF3A
:101CA00017487C38006800F4E06019490843001DBB
:101CB00013497C39086000BF00BF00BFBFF34F8FDE
:101CC00000BF00BF00BF00BF00BFFDE7FFF702FF7E
:101CD00010BD00000C010040380500400404001055
:101CE00020C50040488103008C56004018F5004094
:101CF00058020010E40E00404096024000040040EC
:101D000088ED00E00012001004E5014000E401400D
:101D10000000FA0510B504220249034802F01EF83B
:101D200010BD0000FCF901200080004010B5024900
:101D30000868804710BD000084F7012010B50446F4
:101D40001D2003F01DFEE0B200F018F810BD10B524
:101D500004461D2003F099FEE0B200F00FF810BD1C
:101D600010B504461D2003F090FEC4F3072000F0D8
:101D700005F8E0B200F002F810BD00002DE9FF5FA9
:101D80000446194800210160416018480160416023
:101D9000047000201649087000BF164E134F4FF014
:101DA0000108DFF84490C24683460097CDF80480CE
:101DB000CDF80890CDF80CA000226946301D05F042
:101DC00013F9834600BF5D4625B100BF284600F0E9
:101DD00021FB00BF00BF00E020BF054800780028BD
:101DE000FAD0BDE8FF9F000059F7012051F701200C
:101DF00050F70120C083040010B501460A69CB6882
:101E00009A4204D88C68641EE41AA01801E0D41A1F
:101E1000601E10BD2DE9F0470446894617464FF075
:101E2000000AE56800BFD4F81080A84503D9A8EBE4
:101E30000500461E04E0A5EB0800401CA1680E1A30
:101E4000A068401BB04201D9304601E0A068401BA9
:101E50000646BE4201D2304600E03846064661687A
:101E6000481932464946FEF76DFAB244B144BF1BE9
:101E70003544A068A84200D10025E560002FD2D1EA
:101E80005046BDE8F0872DE9F047044689461546DF
:101E9000E668A068871BAF4208D9616888192A469E
:101EA0004946FEF74FFA7019E06010E0B8466168E5
:101EB000881942464946FEF745FAA5EB070809EBA3
:101EC000070142466068FEF73DFAC4F80C80BDE8A1
:101ED000F08700000FB4084B10B504A902AA0398BC
:101EE00000F01CF8044602A9002000F0B8F92046D2
:101EF00010BC5DF814FB00005F22000002E008C87F
:101F0000121F08C1002AFAD170477047002001E073
:101F100001C1121F002AFBD1704700002DE9FF4FBD
:101F20008BB088460546002606E025280BD0DDE963
:101F30000D1290476D1C761C28780028F5D10FB043
:101F40003046BDE8F08F0024A146A2460122AE49EA
:101F500000E0044315F8013F203B02FA03F0084279
:101F6000F7D128782A2810D06FF02F022878A0F116
:101F70003001092915D809EB890102EB410144F030
:101F8000020400EB01096D1CF0E758F8041B5FEA3E
:101F9000010903D544F40054C9F1000944F00204D6
:101FA0006D1C28782E2817D115F8010F44F0040471
:101FB0002A280ED06FF02F022878A0F130010929CD
:101FC0000AD80AEB8A0102EB410100EB010A6D1C01
:101FD000F2E758F804AB6D1C28786C280FD006DCAB
:101FE0004C2817D068280DD06A2814D104E0742832
:101FF00010D07A280FD10DE044F400140AE044F424
:10200000801401E044F440146978814202D104F55F
:1020100080146D1C6D1C2878692865D006DC0028AA
:102020008DD0632827D0642806D15DE06E2808D0C3
:1020300073282AD0752877D0DDE90D129047761CD9
:10204000E0E0C4F30250022809D003280DD0D8F8EC
:10205000001004280DD00E6008F10408D2E0D8F872
:102060000010F217C1E90062F6E7D8F800100E8000
:10207000F2E70E70F0E718F8041B8DF8001000204E
:102080008DF80100EB46012003E058F804BB4FF047
:10209000FF3061074FF0000701D40AE07F1C57456D
:1020A0000DDA8742FADB1BF807100029F6D106E0AB
:1020B0007F1C8742FCDB1BF807100029F8D1DDE903
:1020C0000D23A9EB07008146214600F0B1F830440A
:1020D000C61904E0DDE90D121BF8010B90477F1EC5
:1020E000F8D22146484688E058F8040BC4F3025160
:1020F0004FF00A0B032900D100B2042900D140B2ED
:10210000002802DA40422D2102E0210505D52B21CD
:102110008DF82410012104E006E0E10710D0202111
:10212000F6E708AF089113E058F8040BC4F3025126
:102130004FF00A0B032900D180B2042900D1C0B2AC
:102140000021EEE75946FEF75CF9303107F8011D32
:102150000028F7D1ADEB070000F1200B600702D596
:1021600024F4803401E04FF0010ADA4502DDAAEBE5
:102170000B0000E00020824600EB0B0108980144B0
:10218000A9EB01000A90E00306D4DDE90D23214606
:102190000A9800F04DF806444FF0000908E009A93C
:1021A00011F80900DDE90D12904709F10109761CCB
:1021B00008998945F3DBE0030CD5DDE90D232146C1
:1021C0000A9800F035F8064404E0DDE90D123020ED
:1021D0009047761CBAF10001AAF1010AF5DC05E08E
:1021E000DDE90D1217F8010B9047761CBBF10001D9
:1021F000ABF1010BF4DC0A982146DDE90D2300F078
:1022000005F806446D1C97E6092801002DE9F04108
:10221000044600251E461746880404D405E03946C6
:102220002020B0476D1C641EF9D52846BDE8F0811A
:102230002DE9F041044600251E469046C80301D50D
:10224000302700E02027880404D505E041463846C1
:10225000B0476D1C641EF9D52846BDE8F0810A68B8
:10226000531C0B601070704710B5002407E007493D
:10227000096811F83400012104F0F6FB641C0448DD
:1022800000788442F3D3002010BD0000200000201D
:10229000240000202DE9F84306460D461746052F79
:1022A00002D20720BDE8F88304F01CFD38B904F021
:1022B000B7FC044600BF204600B1F3E700BF184852
:1022C000066018480570184807600021174A116019
:1022D00051600020164A1060506015E006EBC508FA
:1022E00014480068009098F802008DF8010098F8F2
:1022F0000000114A694604F00DFC044600BF204668
:1023000000B1CFE700BF00BF281EA5F10101CDB28B
:10231000E4D10A4A00210A4800F08AF8C2E7000026
:102320002000002024000020280000203000002091
:1023300038000020307D0000B9330000192F000064
:102340002C7D000072B600BF04F03EF800BF00BF55
:1023500003F044FD0028FBD100BF00BF21484088A6
:10236000012809DB2049214A891AC908012242EAC9
:1023700001401FA103F04CFF00BF2048006800F09F
:10238000010000B100BE00BF16484088022809DBEA
:102390001549164A891AC908022242EA014018A1C1
:1023A00003F036FF00BF00BF00BF00BF00BFBFF398
:1023B0004F8F00BF00BF00BF1048E438006800F432
:1023C000E06013490843001D0C49E439086000BF70
:1023D00000BF00BFBFF34F8F00BF00BF00BF00BFF3
:1023E00000BFFDE760F80120408F0400F08E04007C
:1023F000466174616C206572726F7200F0ED00E0EE
:1024000053797374656D2072657365740000000004
:102410000000FA053EB504460020009001900290AD
:1024200002946A46002144F20100FFF78BFF3EBD93
:1024300010B503460C4600BF0B48807808B9082049
:1024400010BD00BF0AB90720FAE70BB90720F7E76C
:102450001868007C08B10820F2E7196800200874A9
:102460004C744A6100BFEBE7D0F8012010B504F0CE
:10247000F7FE00200F49087048700B20887000207C
:102480000D4908600D4908700D4908701420FFF7C8
:1024900043FA06211420FFF763FA1420FFF748FAE5
:1024A000002004F0B3FE04F0ABFE064908600020F3
:1024B00010BD0000D0F80120400000205000002096
:1024C00051000020440000202DE9F04104460E4652
:1024D0001746254600BF1048807810B90820BDE88F
:1024E000F08100BF0CB90820F9E7052E01D20720C2
:1024F000F5E7686908B90820F1E7687C012801D18F
:10250000304600E0002080463B46424631462846A1
:1025100005F0EAF9E3E70000D0F8012070B50446C1
:10252000254600BF0848807808B9082070BD00BF64
:102530000CB1686908B90820F8E700202874022166
:10254000284605F0FDF9F1E7D0F8012000B5024674
:1025500000F006F800BD00B5024600F00BF800BD23
:1025600072B603480068401C0149086070470000CB
:102570001C00002004480068401E0349086008460B
:10258000006800B962B670471C0000202DE9F041D8
:1025900006460B480B49401A070900250BE009487D
:1025A00000EB05143046A168FDF705FF10B9204681
:1025B000BDE8F0816D1CBD42F1D30020F8E70000BA
:1025C000F08E0400E08E040070B503460025CD6057
:1025D0004D600E4D8D6000250D60002400220DE041
:1025E0000B4D05EB0210C5682D79FF2D05D0A342D8
:1025F00002D185680D6007E0641C521C054D044E35
:10260000AD1BB2EB151FEBD300BF70BDB48404004B
:10261000E08E0400F08E04007CB500240DE0084834
:10262000055D0326002000903346024601460190D6
:10263000284603F02EF900BF641C042CEFD37CBDA8
:10264000287D000010B5044604F0010008B100F038
:1026500011F804F0020008B1FFF7DEFF10BD000022
:1026600010B504460249085D012103F035FA10BD9A
:10267000247D00007CB500240CE00948055D0020A5
:1026800000900346012211460190284603F001F90B
:1026900000BF641C042CF0D300F004F87CBD0000E3
:1026A000247D000010B5002403E02046FFF7D8FF8A
:1026B000641C042CF9D310BD2DE9F84F04460D46D7
:1026C0001646A71C4FF001080020FFF73FFF3048D7
:1026D000006828602E4800682D494968411A2C4836
:1026E0008068401CA0EB010915E00121294802F097
:1026F0003DF901F0FDFE82465146264802F036F9CA
:102700002348006822494968411A21488068401CD2
:10271000A0EB010900BF4F45E7D8B8F1000F30D05A
:102720000021009176B1009921F00301491C00912C
:10273000009921F00401091D0091009964F38911A9
:1027400000910DE0009921F00301891C009100998E
:1027500021F00401091D0091009964F39F5100913B
:102760000B4909680A4A92681140094A0C3202EB87
:102770008100009901600649096839440C3A1160EA
:1027800000BF0020FFF7E7FE4046BDE8F88F0000DD
:102790006CFC01208800022070B504460D46A1683B
:1027A000481CA06020684554D4E90110884202D337
:1027B000204602F068FF70BD04484068034909687C
:1027C000884201D1012070470020FCE76CFC012009
:1027D00073B50D46B5B1012D02D0022D22D120E0F6
:1027E0006A464FF4804113480068FFF76DFE0446C7
:1027F00000BF264626B100BF3046FFF70BFE00BFE4
:1028000000BF10E00B480068FFF788FE044600BFD9
:10281000264626B100BF3046FFF7FCFD00BF00BFD3
:1028200001E000E000BF00BF29469DF8000001F074
:10283000EBFA7CBD088404004FF0FF31054A42F8F2
:102840002010082804DBFF23A0F108016032535454
:102850007047000054FA01200146024850F8210058
:102860007047000054FA01202DE9F04F03460C4652
:102870004FF0FF390AB1002000E0082084460AB179
:10288000082000E00C208046614624E0154850F8FE
:102890002100401CF0B91D460846274616464FFA4F
:1028A00080FBDFF840A00AF1300A0AF805B0DFF833
:1028B00034A04AF820704EB94FFA85FBA0F1080AFF
:1028C000DFF820E00EF1600E0EF80AB000BF4FFAFC
:1028D00081F902E0491C4145D8D300BF4846BDE814
:1028E000F08F000054FA012001460148405670471D
:1028F00084FA012010B50446024A03A1206902F0BF
:10290000ADFE10BDC67E000025730000014688683C
:10291000D0F83C01C0F3C000704700002DE9F0433F
:102920008FB004460F464FF00009E1684968002265
:1029300008680EA903F0DCFE18B100200FB0BDE856
:10294000F083A7B10E9803F022FEA068D0F82C0106
:10295000401CA168C1F82C01A06890F82C0100F07F
:102960000700012801D1814601E00120E6E7204669
:1029700001F0BEFF0546A878012805D9A878401EB9
:10298000C1B2204600F0B8FA2878012805D9287885
:10299000401EC1B2204600F0CBF92046FFF7AAFF47
:1029A000B9F1000F06D037A20221204602F0F4FB55
:1029B0000120C3E700BF4FF00008434608220BA9DF
:1029C0000E9803F0F3FD4FF008080D980890BDF83D
:1029D0003000ADF82400BDF83200ADF8260000202C
:1029E0008DF829000B9800F00300012818D10B98EE
:1029F000860A0B98C0F3C2008DF828000B98C0F32C
:102A00008315AA00434602A90E9803F0CFFD206962
:102A100008AB2A4602A90090304603F0EFFC23E001
:102A20000B9800F0030002281ED10B98860D0B981E
:102A3000C0F3C2008DF8280000BF082E01D2304636
:102A400000E00820054643462A4606A90E9803F0F2
:102A5000ADFDA844761B08AA294606A8236903F001
:102A6000E1FB002EE9D100BF0E9803F090FDE16874
:102A70004968002208680EA903F03AFE00289AD09F
:102A800001205BE74C6F7374206C6F6773202D20FF
:102A9000696E637265617365206C6F672062616344
:102AA0006B656E642071756575652073697A652E36
:102AB0000D0A000070B504460D462A4602A12069A1
:102AC00002F0CCFD70BD0000256300002DE9F0414F
:102AD00004460D4616461F46606801683B4632466E
:102AE000D1F810C02946E0478046BDE8F08110B516
:102AF00004460CB9002010BD2046FDF755FCFAE74E
:102B00002DE9F84304460F4615461E464FF00008CF
:102B100024E007EB0801606802686B46D2F80CC03D
:102B20002A46E04781460098804400982D1A009874
:102B300098B9A068007803280FD000BFA068D0F82B
:102B40003C01C0F340100028F8D0A068D0F83C0148
:102B500020F02000A168C1F83C0100BF002DD8D1B1
:102B60000EB100983060BDE8F883000070B50546EE
:102B70000DB9094C01E0084C083409E0204601F089
:102B80002CF9064606B904E028467168884700BF5C
:102B9000F4E700BF70BD0000C8FA012010B504467C
:102BA0002CB90120064948700020FFF7DFFF012CF7
:102BB00004D1012002498870FFF7D8FF10BD000042
:102BC000C0FA01200121014A117070470100002064
:102BD0002DE9F05F0546894616461C460A9FB9F165
:102BE000000F27D123482449401AB6EBD00F1ED23C
:102BF0004FF0000ADFF884B0D04611E01E4800EB29
:102C0000C80ADAF804205BF826001168FDF7D3FB48
:102C100020B9DAF804002060BDE8F09F08F101084F
:102C200014481549401AB8EBD00FE7D300BF002075
:102C30002060F1E715B900202060EDE7287850B159
:102C4000394630466A689047386810B900202060DD
:102C50000DE027600BE0686800EB0610006820B10B
:102C6000686800EB0610206001E00020206000BFD3
:102C7000D2E70000E08E0400A88E04001CF80120BA
:102C80002DE9F04782461F480068002836D01D48CD
:102C90000068056804F0B4FA07461B48046821463A
:102CA000384604F06FFDC61C1848007808B904F0D7
:102CB000B9FAAE4201D2284600E03046044424F07E
:102CC0007F44204604F096FA04F09AFA804639468A
:102CD000404604F057FD00F103093946204604F050
:102CE00051FD814509D904F08BFA814604F082FA3E
:102CF0002F2003F0A9FE04F08BFE01E004F0B0FAEF
:102D0000BDE8F08740000020440000205200002071
:102D100070B505460C46002C04DD224602A1286948
:102D200002F09CFC70BD00001B5B256442000000AB
:102D300070B505460C46002C04DD224602A1286928
:102D400002F08CFC70BD00001B5B25644400000099
:102D500010B50446024A0349206902F07FFC10BD09
:102D6000D07E0000082900002DE9FC5F0446002603
:102D70000027002000900025A16801F19400802127
:102D8000FDF707FB5249206902F068FC204604F079
:102D900086FEA94696E000BF01AB012269462046A7
:102DA000FFF794FE019868B940F2E738B8F1000FD8
:102DB00000D106E0DFF81CA14FEA881B5846D04737
:102DC00000BF77E09DF800001B2805D0A06890F8B0
:102DD00094001B2800D06DE09DF80000522858D1C7
:102DE0000021A06894304155A06890F895005B28B8
:102DF00006D00020A16881F894000B20BDE8FC9F5C
:102E000002250FE0A068943029466A1CD5B2405CC8
:102E1000303807EB870100EB410087B2802D01DBE2
:102E20000C20EBE7A0689430405D3B28EAD1681C99
:102E3000C0B20546802801DB0C20DFE70FE0A06868
:102E4000943029466A1CD5B2405C303806EB8601C6
:102E500000EB410086B2802D01DB0C20CEE7A0689C
:102E60009430405D0028EAD1FA2E03D9FA20A168F7
:102E7000087201E0A1680E72FA2F03D9FA21A06846
:102E8000817201E0A06887720020A16881F8940037
:102E9000B4E79DF80010A06894304155681CC0B29A
:102EA0000546092805D90020A16881F8940004206E
:102EB000A4E700BF019800287FF46EAF09F101007C
:102EC0001FFA80F9B9F57A7FFFF665AF0D2095E717
:102ED000D37E0000C17E000070B505460C46002C74
:102EE00004DD224602A1286902F0B8FB70BD000093
:102EF0001B5B25644300000070B505460C46002CA2
:102F000004DD224602A1286902F0A8FB70BD000082
:102F10001B5B2564410000002DE9F04F85B04FF0A8
:102F200000095BE03148006800EBC9042278012108
:102F30000020CDE9000108460099FDF7EFF90746AA
:102F400088462B4806C807EA010008EA0201002665
:102F50000246724081EA060002433BD02448D0E991
:102F60000010B94320EA0800214AC2E90010207885
:102F700003F04CFE0646227801210020CDE9030132
:102F800008460399FDF7CAF91A4B0CCB00EA020B6D
:102F900001EA030A22783546002002902846029969
:102FA000FDF7BCF98BEA000B8AEA010A5BEA0A0B1F
:102FB0000FD16078012800D100E00020704080F03F
:102FC000010A606820B10AF0FF012078626890472A
:102FD00000BF00BF09F1010000F0FF0906480078BA
:102FE00081459FDB05B0BDE8F08F00002000002088
:102FF00038000020300000202400002010B50021FF
:10300000034801F0C9FC044684F3100010BD000021
:1030100088000220014614480078144A1278904231
:103020001DD011480078401C0F4A107010460078DF
:10303000022801D1002010700D480B4A127850F878
:10304000220008600B4A086812681044094A1060A0
:103050001046006820F07F4010600120704700207B
:10306000086000BFFAE70000500000205100002077
:10307000480000204400002005480068082805D1C9
:103080000348001D006808B9012070470020FCE7D4
:103090003001001005480068082805D10348001DCC
:1030A000006808B9012070470020FCE730010010DB
:1030B00005480068082805D10348001D006808B9C4
:1030C000012070470020FCE7300100100C48006828
:1030D000082812D10A48001D006808B9012070476D
:1030E0000748001D0068012800D1F8E70448001DCA
:1030F0000068022801D10120F1E70120EFE700007C
:10310000300100100C480068082812D10A48001D40
:10311000006808B9012070470748001D00680128B1
:1031200000D1F8E70448001D0068022801D1012001
:10313000F1E70120EFE70000300100100C480068C3
:10314000082812D10A48001D006808B901207047FC
:103150000748001D0068012800D1F8E70448001D59
:103160000068022801D10120F1E70120EFE700000B
:103170003001001005480068082805D10348001DEB
:10318000006808B9012070470020FCE730010010FA
:10319000F0B5034600241FE0124E306806689E42D8
:1031A00003D90668F61A06601AE006689B1B0668D3
:1031B0003444002606600B4E35680A4FC6693E60EF
:1031C000C66846B10E1926F07F464660C66886601E
:1031D0001668C661156000BF024800680028DBD190
:1031E00000BFF0BD4000002010B50446A07FFF28BE
:1031F00002D0A07F02F063FC00206077207204F10F
:103200000800D4E90021904710BD2DE9F047804621
:103210000D4617469A460DB9BDE8F087BAF1000F82
:1032200003D0F9B24046FFF757FE002400E0641CCB
:10323000FDF784F80068295D405C00F0010000287B
:10324000F5D16AE000262846FFF751FCA0EB0409FF
:10325000D8F80800407BC01B484522D300BF17E0C8
:103260002819805D0A2812D1404604F018FC29195B
:10327000002332464046FFF743FC701C044440469E
:10328000FFF766FDF9B24046FFF726FE02E0761C26
:103290004E45E5D300BF2919D8F8100002F0DEF939
:1032A0003CE0D8F80800407BA0EB070916E0FDF7EA
:1032B00045F800682919895D405C00F0010028B1DB
:1032C000B1462819805D0A2800D108E0F119D8F824
:1032D0000800407B814200D301E0761CE7E700BF95
:1032E000404604F0DCFB291900234A464046FFF71C
:1032F00007FC4C4400E0641CFDF720F80068295DE1
:10330000405C00F001000028F5D14046FFF720FDA9
:10331000F9B24046FFF7E0FD00BF93E700BF40462B
:10332000FFF716FD00BF77E71E48006800F00700B2
:10333000052836D001201C49086000BF1B480068E2
:103340000028FBD01748006820F00700401D4FF010
:103350001021C1F8040300201349086000BF13487E
:1033600000680028FBD000BF00BF00BF00BF00BF47
:10337000BFF34F8F00BF00BF00BF0D48006800F4CF
:10338000E0600C490843001D0949086000BF00BF08
:1033900000BFBFF34F8F00BF00BF00BF00BF00BF23
:1033A000FDE770470413001004E5014000E401400C
:1033B0000CED00E00000FA052DE9F04780468A4652
:1033C00042460126002730463946FCF7A7FF04464F
:1033D0000D461E480068FFF7A1F88146B9F1000FBD
:1033E00001D0BDE8F0871A4903C9204029400023D5
:1033F00058405940084321D1404603F007FC30B102
:10340000144903C920432943124A03C207E0114863
:10341000D0E90010A143A8430E4AC2E900100C49AC
:1034200003C9204329430A4A03C200220A4801680B
:1034300006480068FFF748F8814605E0044903C9DB
:10344000A043A943024A03C200BFCAE72C7D000083
:1034500038000020300000202800002010B503466E
:103460000020002108E007248C401C40CC40A2B280
:10347000824200DD1046C91C0A29F4D310BD0000A9
:1034800010B59AB0142115A8FCF783FF142110A8D9
:10349000FCF77FFF1C225E4909A8FCF753FF1C22A2
:1034A0005B491C3102A8FCF74DFF4FF6FF705949EC
:1034B00008800020584908801020FDF70DFF57486C
:1034C0008378C27856A115A8FEF704FD5748007806
:1034D00040B95248C07909AA52F8201010A8FCF748
:1034E00078FF07E04D48C07902AA52F8201010A8D2
:1034F000FCF76FFF4E48007880B300204C490870FD
:1035000046490879FDF77CF9444A51791079FDF76D
:103510001DFA6A4601A910A8FDF7B0FE45490988C1
:10352000BDF804208C1A04EBD471C1F34F0010AA2B
:103530000F21FDF7EBFF6A4601A915A8FDF79EFED6
:103540003C490988BDF804208C1A04EBD471C1F3FE
:103550004F0015AA2121FDF7D9FF56E0FFE73648B5
:103560000078002851D03448007800F0040048B1B9
:103570002A490879FDF744F92F48007800F0FB004C
:103580002D4908702C48007800F0020070B12349E2
:103590000879FDF735F9214A51791079FDF7D6F907
:1035A0002548007800F0FD00234908702248007883
:1035B00000F0380048B36A4601A910A8FDF75EFE86
:1035C0001C490988BDF804208C1A04EBD471C1F39E
:1035D0004F0010AA0F21FDF799FF6A4601A915A80F
:1035E000FDF74CFE13490988BDF804208C1A04EB42
:1035F000D471C1F34F0015AA2121FDF787FF0E48B2
:10360000007800F0C7000C4908701AB010BD000027
:10361000EC7C0000580000205A000020040000202C
:10362000253032642F253032640000001400002061
:1036300000000020540000201600002010B50020DB
:10364000FDF7A6FC00200B4908804FF6FF700A49E1
:1036500008801020FDF740FE0848007848B9084A65
:1036600000210846FDF7C6FF06A278212820FDF7B5
:103670004DFF10BD5A00002058000020150000200A
:10368000302F01203838000030B599B0142112A82D
:10369000FCF77FFE14210DA8FCF77BFE142108A87F
:1036A000FCF777FE1C22904901A8FCF74BFE4FF671
:1036B000FF708E49088000208D4908801020FDF79A
:1036C0000BFE8C48807900908A48437902798AA160
:1036D00012A8FEF7FFFB8748C078009085488378E2
:1036E000028889A10DA8FEF7F5FB8248C07901AADE
:1036F00052F8201008A8FCF76CFE17AA18A912A807
:10370000FDF7BCFD84490988BDF86020914208DDC1
:1037100081490988BDF86020881A00EBD0714910F2
:1037200000E000218CB27D490988BDF85C209142FF
:1037300008DD7A490988BDF85C20881A00EBD07151
:10374000491000E000218DB212AA29462046FDF75B
:10375000DDFE7348007800285DD0002070490870B5
:1037600017AA18A90DA8FDF789FD6B490988BDF8AE
:103770006020914208DD68490988BDF86020881AF8
:1037800000EBD071491000E000218CB26349098838
:10379000BDF85C20914209DD60490988BDF85C20D4
:1037A000881A00EBD07149101E3100E000218DB263
:1037B0000DAA29462046FDF7A9FE17AA18A908A8B0
:1037C000FDF75CFD54490988BDF86020914208DD91
:1037D00051490988BDF86020881A00EBD071491062
:1037E00000E000218CB24D490988BDF85C2091426F
:1037F00009DD4A490988BDF85C20881A00EBD071C0
:1038000049103C3100E000218DB208AA294620462B
:10381000FDF77CFE65E04348007800F038000028A2
:103820005FD017AA18A90DA8FDF728FD3A49098805
:10383000BDF86020914208DD37490988BDF8602055
:10384000881A00EBD071491000E000218CB2334996
:103850000988BDF85C20914209DD30490988BDF82E
:103860005C20881A00EBD07149101E3100E0002165
:103870008DB20DAA29462046FDF748FE17AA18A9C1
:1038800008A8FDF7FBFC24490988BDF86020914297
:1038900008DD21490988BDF86020881A00EBD07145
:1038A000491000E000218CB21C490988BDF85C2059
:1038B000914209DD19490988BDF85C20881A00EB9E
:1038C000D07149103C3100E000218DB208AA294690
:1038D0002046FDF71BFE1348007800F0C700114991
:1038E000087019B030BD0000D07C000058000020E6
:1038F0005A00002004000020253032643A2530327E
:10390000643A253032640000253034642F2530328B
:10391000642F25303264000054000020560000203F
:1039200000000020160000207CB5C548C5490A6883
:10393000026049684160C3488079401CC149887170
:10394000084680793B2875DD00208871084640795B
:10395000401C4871BC48007840F00200BA49087029
:10396000B84840793B28EEDD0020B649487108464A
:103970000079401C0871B448007840F00400B24956
:103980000870B04800791728DDDD0020AD490871C6
:103990000846C078401CC8700846C079401CC871F1
:1039A0000846C079062801DD0020C871A6480078C5
:1039B00040F00800A4490870A2488078012817D078
:1039C000A0488078032813D09E48807805280FD01F
:1039D0009C48807807280BD09A488078082807D020
:1039E000984880780A2803D0964880780C2822D1FD
:1039F0009448C0781F287FDD01209249C87008468E
:103A00008078401C88709048007840F010008E4903
:103A100008708C4880780C286EDD012089498870F8
:103A200008460088401C08808748007840F0200045
:103A30008549087060E08348807804280BD081486D
:103A40008078062807D07F488078092803D07D48F1
:103A500080780B2822D17B48C0781E284CDD0120BD
:103A60007849C87008468078401C8870764800788D
:103A700040F0100074490870724880780C283BDDD3
:103A800001207049887008460088401C08806E48F4
:103A9000007840F020006C4908702DE0694A1088D9
:103AA000C21700EB92729210A0EB8202D1B265486D
:103AB000C27801F11C0082421DDD0120614AD070F4
:103AC00010468078401C90705F48007840F01000ED
:103AD0005D4A10705B4880780C280CDD0120594A43
:103AE000907010460088401C10805748007840F0C5
:103AF0002000554A107000BF5348007840F0010084
:103B0000514908700846007800F0020040B14D4865
:103B1000016800914068014601900098FDF7C8FFD8
:103B20004A480078A0B94848007800F0020018B16F
:103B300044494879FCF7E4FD4348007800F004006C
:103B400018B140490879FCF761FDFFF799FC75E071
:103B50003D48007800F00100C8B13B48007800F013
:103B6000FE00394908703A480088A0F11004394A2B
:103B70001288A2F1400505EBD572521002F1300017
:103B800004EBD472511010231A46FCF78EFC2E4819
:103B9000007800F00200C8B12B48007800F0FD006A
:103BA000294908702A480088A0F11004294A12887F
:103BB000A2F1400505EBD572521002F1180004EB9A
:103BC000D472511010231A46FCF76FFC1E4800787F
:103BD00000F00400B8B11C48007800F0FB001A495E
:103BE00008701C480088A0F1400519480088A0F121
:103BF000100404EBD472511005EBD5725010102351
:103C00001A46FCF752FC1048007800F0380098B1D2
:103C100010480088A0F150050D4A1288A2F1100446
:103C200004EBD472521002F11E0105EBD572501054
:103C300010235022FCF739FCFFF726FD7CBD000065
:103C40000C000020040000201600002015000020B9
:103C500056000020540000202DE9FC5F83460E46EC
:103C600091461F46DDE90C45002E01DA704200E066
:103C7000304682464FF0010803E09AFBF9FA08F15A
:103C80000108CA45F9DA474500D9B84634B1002ED3
:103C900003DB05F00400042800D1641E05F00200D7
:103CA00000B167B105F0010048B944B104E0641EF9
:103CB00020215846FEF770FD0CB1A045F7D3002E29
:103CC00005DA76422D215846FEF766FD07E005F03D
:103CD0000400042803D12B215846FEF75DFD05F0B2
:103CE000020002280DD105F0010050B94FB944B1CE
:103CF00004E0641E30215846FEF74EFD0CB1A0458D
:103D0000F7D33B464A4631465846CDE9004503F0D5
:103D1000CDFEBDE8FC9F30B5024600201378C3F30A
:103D20008003D3B1137803F00303012B02D0022BDD
:103D300010D107E01388C3F383139B1C0C68234442
:103D40000B6008E00B680225146805EB94542344CB
:103D50000B6000E000BF00BF012030BD2DE9F0473F
:103D600004460E469046002722E0384602F030FE18
:103D70000546384602F033FE814620462946425821
:103D80000AB1012200E0002282B14846D4F80413AF
:103D9000014009B1012100E0002139B12946204646
:103DA00002F022FE2846D6E900219047781CC7B2CF
:103DB0004745DADBBDE8F08770B505460C464FF4A1
:103DC0008471284602F0F4FD2146284603F026FEC1
:103DD00010B92046FFF708FA70BD0146086808B11F
:103DE00002680A607047026803E08A4200D17047A7
:103DF0001268002AF9D103680BB1036800E00023C0
:103E00000B60016000BFF2E770B505460C460B2D54
:103E100006D00C2D15D0182D24D0192D44D132E008
:103E200044B1012C02D0022C09D107E00D2001F091
:103E3000B4FD04E00D2001F035FE00E000BF00BF3E
:103E400032E044B1012C02D0022C09D107E00E204F
:103E500001F0A3FD04E00E2001F024FE00E000BF0D
:103E600000BF21E044B1012C02D0022C09D107E0AF
:103E70000F2001F092FD04E00F2001F013FE00E09E
:103E800000BF00BF10E044B1012C02D0022C09D1C8
:103E900007E0102001F081FD04E0102001F002FE97
:103EA00000E000BF00BF00BF00BF4CB9054800786C
:103EB00018B101200449087002E00120034908708C
:103EC00070BD000061F701201800002017000020DD
:103ED00070B5FEF7CBFA044600BF254625B100BFFA
:103EE0002846FEF797FA00BF00BF40F26662042141
:103EF0001448FEF7CFF9044600BF254625B100BFA0
:103F00002846FEF787FA00BF00BFFEF7ADF904466A
:103F100000BF254625B100BF2846FEF77BFA00BF4B
:103F200000BF094A00210948FEF782FA044600BF93
:103F3000254625B100BF2846FEF76CFA00BF00BF3A
:103F400070BD000064F70120FD46000008840400F5
:103F50002DE9F041064600274748D0F8008078E078
:103F600016B13446E66947E04448007800EB40016A
:103F70004248001D00EBC105001F0078401C3F496E
:103F80000870084600788978884202D100203B49B1
:103F900008706C68287801281AD0022802D00328FB
:103FA00017D107E0686803F05BFC00B1012700202F
:103FB00020744EE007E030490868002101742E4A61
:103FC000C169116000BF2C4800680028F3D140E0AF
:103FD00000E03EE000BF207C00B13AE0A8686060ED
:103FE000E868A0602869E0606869A06124480078FA
:103FF00008B10020606000BF224960680968401A6B
:1040000020F07F402049884208D21E496068096834
:1040100003F0B8FBA168084420600FE0194861680C
:10402000006803F0AFFB0546A068A84203D9A0686A
:10403000401B206001E00020206000BF0020606085
:10404000A060012020740020E061204603F0D4FB32
:1040500000BF002E84D10948007808494978884279
:10406000F8D11FB904480068404502D00120BDE8DE
:10407000F0810020FBE7000040000020D0F8012084
:104080005300002044000020FFFF7F0070B504466D
:104090000D461646034B32462946204600F070FD79
:1040A00070BD0000AD42000070B504460D461646D6
:1040B000034B32462946204600F062FD70BD0000E9
:1040C0007544000070B504460D461646034B324653
:1040D0002946204600F054FD70BD00008B440000CE
:1040E00070B504460D461646034B32462946204617
:1040F00000F046FD70BD0000B94500007CB50646E5
:104100000D461446012D03D0304601F010FA28B1B7
:1041100000221146304601F06FF87CBD05A16068B1
:10412000CDE9001009A202213046236801F034F8DD
:1041300000BFF2E720756E6B6E6F776E2070617254
:10414000616D657465723A200000000025733A25A0
:104150007325730D0A0000002DE9FC4707468846C9
:104160009146384601F0E3F930B100221146384655
:1041700001F042F8BDE8FC8714481549401A0609C9
:1041800000251EE0124800EB0514E0680079FF28C6
:1041900006D110A208213846A36800F0FDFF0FE009
:1041A000E0680079E168497909B112A100E013A142
:1041B000CDE9001014A208213846A36800F0ECFFF6
:1041C0006D1CB542DED300BFD4E70000F08E0400C2
:1041D000E08E040025730D0A092D20537461747557
:1041E000733A2064656163746976617465640D0A6D
:1041F0000D0A0000656E61626C656400646973613C
:10420000626C65640000000025730D0A092D2053BF
:1042100074617475733A2025730D0A092D20494481
:104220003A2025640D0A0D0A0000000070B504460E
:104230000D461646204601F07AF928B100221146B3
:10424000204600F0D9FF70BD03A20221204600F0F5
:10425000A3FF00BFF7E700004E6F74207375707006
:104260006F727465642E0D0A0000000070B504467C
:104270000D461646204601F05AF928B10022114693
:10428000204600F0B9FF70BD03A20221204600F0D5
:1042900083FF00BFF7E700004E6F742073757070E6
:1042A0006F727465642E0D0A000000002DE9FE4F48
:1042B0008246894616461D464FF0000BD9F80C0081
:1042C00000790290002E5ED0072243A12868FCF7F7
:1042D00089F8002828D1012E06D141A2022150469A
:1042E00000F05AFFBDE8FE8F022E01D14FF0010B06
:1042F000002409E0404A52F824100A226868FCF7BA
:1043000071F800B902E0641C052CF3D300BF052C42
:1043100006D13AA2022150466B6800F03DFFE1E76A
:10432000E7B24FF0020813E008223CA12868FCF72E
:1043300059F830B9012E00D1B34600274FF00108DB
:1043400006E038A2022150462B6800F025FFC9E79D
:10435000BBF1000F18D0002411E03A462146029824
:1043600000F061FA50B90021204602F01BF8034624
:1043700032A202210190504600F00EFF641C01F0B1
:10438000ADFFA042E9D825E0444621E0002001909D
:1043900055F8240001A900F05EFA38B955F8243028
:1043A0002FA20221504600F0F7FE10E03A46DDE968
:1043B000011000F038FA50B90021019801F0F2FF25
:1043C00003461EA202210090504600F0E5FE641C48
:1043D000B442DBD300BF85E7656E61626C650000A7
:1043E00042616420706172616D6574657220636FF3
:1043F000756E742E0D0A0000B0F70120556E6B6EBD
:104400006F776E207365766572697479206C657656
:10441000656C3A2025730D0A000000006469736121
:10442000626C6500556E6B6E6F776E206F7074698D
:104430006F6E3A2025730D0A000000004C6576650A
:104440006C20756E617661696C61626C6520666F67
:1044500072206D6F64756C653A2025730D0A00003B
:10446000556E6B6E6F776E206D6F64756C653A2557
:10447000730D0A002DE9F04105460C4616461F460D
:10448000204601F0FEFBBDE8F08130B500BF0024FE
:10449000CD686C7100BF30BD70B504460D46164640
:1044A00033462A462046E168FFF700FF70BD70B52D
:1044B00004460D46164633462A462046E168FFF775
:1044C000D9FF70BD70B504460D46164633462A46E0
:1044D0002046E168FFF7D9FF70BD70B504460D4670
:1044E000164633462A462046E16800F065F870BD5E
:1044F0002DE9FF4100272E4800F031FA2C48001F1B
:1045000000F02DFA2B48406803902A4885680398EC
:10451000284028490C3101EB800800BF03A9404620
:10452000FFF7F9FB30B10398284022490C3101EB29
:10453000800800E000E0F1E700BF00240AE00398F3
:10454000411C284003911B490C3151F820004DF8C3
:104550002400641C022CF2D3009800F00300012810
:104560000DD0022814D1BDF806700421009801EB8B
:104570009050401E039901EB9000039009E0BDF8B4
:1045800006700098C0F3831003990844039000E07C
:1045900000BF00BF0648001F00F0DAF9064616B15A
:1045A000044903984860384604B0BDE8F081000033
:1045B000840002206CFC01202DE9FF5F80460D463F
:1045C00001F08CFE814600BFE868407920B923A243
:1045D0000221404600F0E0FD25A328A20821404624
:1045E00000F0DAFD2DA20821404600F0D5FD0024A0
:1045F00030E0E86890F804A001231A4621465046AE
:1046000001F076FE8346002301222146504601F048
:104610006FFE0646032E01DA304600E0032007460F
:104620000121204601F0BEFE0390B74201DA2BA221
:1046300000E029A22A4850F82700294951F82B10F8
:10464000CDE90102009127A208214046039B00F01A
:10465000A3FD641C4C45CCD3BDE8FF9F4C6F677332
:10466000206172652068616C746564210D0A000028
:104670006D6F64756C655F6E616D6500252D3430FE
:1046800073207C2063757272656E74207C20627565
:10469000696C742D696E200D0A0000002D2D2D2DE2
:1046A0002D2D2D2D2D2D2D2D2D2D2D2D2D2D2D2D3A
:1046B0002D2D2D2D2D2D2D2D2D2D2D2D2D2D2D2D2A
:1046C0002D2D2D2D2D2D2D2D2D2D2D2D2D2D2D2D1A
:1046D0002D2D2D2D2D2D0D0A000000002A0000008B
:1046E000B0F70120252D343073207C20252D377321
:1046F000207C20257325730D0A00000010B50446A8
:1047000020780221FEF764F810BD000000BF02F01F
:10471000B5FF03F003F819E00D48007820B1002040
:104720000B490870FFF700F90A48007820B1002013
:1047300008490870FCF72EFF0748007820B10020D8
:1047400005490870FCF73EFF02F0E4FCE4E70000D6
:104750000100002017000020180000202DE9FF4F65
:1047600087B0044691461E46A2462546BAF8060082
:104770009AF805104843001F0690BAF806B0301D9D
:10478000B0FBFBF00590301DB0FBFBF10BFB110003
:104790000490D9F8000081190698814202D9069840
:1047A000801B01E0D9F800000746C9F8007003E05B
:1047B0002D680598401E059005980028F8D10390B3
:1047C0000498ABEB0008B84501D9384600E04046F4
:1047D000804623E00399089808440290281D049914
:1047E00008440190149828B14246DDE90110FBF716
:1047F000A9FD04E04246DDE90101FBF7A3FD00202D
:1048000004902D68A7EB0807039840440390BB452C
:1048100001D9384600E05846804600BF002FD9D164
:104820000BB0BDE8F08F2DE9F04105460E46144669
:1048300000231A463146284601F05AFD0746BC427D
:1048400002DD0020BDE8F08122463146284601F015
:104850007FFD0120F6E72DE9F04105460E4601F007
:104860003DFD074600240DE00021204601F09AFDA1
:104870008046202229464046FBF7B4FD08B9346043
:1048800002E0641CBC42EFD300BFBC4202D0012056
:10489000BDE8F0810020FBE770B503460C469CB1F3
:1048A00001F01CFD054600220AE0084800EB8201E9
:1048B00008881E68B04202D11A60002070BD521CE8
:1048C000AA42F2D30520F9E70020F7E738F80120E3
:1048D00070B505460C460020E06060600348A060AB
:1048E0000121284601F05EFD206070BDA484040013
:1048F00070B50546AE68A86800F108042868FEF7A0
:10490000F6F8A071F07CA1790844617990FBF1F28E
:1049100001FB1200401C2070F07CA17908446179F1
:1049200090FBF1F0401CA070B07CA1790844617943
:1049300090FBF1F0401CE070B07CA17908446179F3
:1049400090FBF1F201FB1200401C6070204670BD2C
:1049500010B504460021204600F013F810BD10B534
:1049600004460121204600F022F810BDF8B50446A7
:104970000D466A4629462046FBF77FFC064600980E
:10498000F8BDF8B504460D466A4629462046FBF7B1
:104990005AFC06463046F8BDF8B504460D466A4650
:1049A00029462046FBF736FC06463046F8BDF8B5EA
:1049B00004460D466A4629462046FBF737FC064664
:1049C0000098F8BDF8B504460D466A4629462046CB
:1049D000FBF760FC06460098F8BD70B5044600265B
:1049E0000020FDF7B3FD206800686168884215D992
:1049F00020680068401E226810600178204600F0A0
:104A00002FF80646207A21680978401AC5B2206836
:104A10000079A84201DA2068057100BF0020FDF787
:104A20009AFD304670BD0246D068081A138BB0FB61
:104A3000F3F0C0B2704770B504460D462E46002014
:104A4000FDF784FD31462046FFF7EDFF21680A6837
:104A5000511C2368196010700020FDF77CFD70BDAB
:104A60000246138BD06801FB030070472DE9F04F1D
:104A70008DB00746884600BFB868D0F83C01C0F347
:104A8000400038B100221146384600F0B5FB0DB0A9
:104A9000BDE8F08FB8F1010F05D926A202213846F2
:104AA00000F07AFBF3E728482849401A1C21B0FBA4
:104AB000F1F900253AE0C5EBC500244901EB80047B
:104AC000B4F818A0208BA0EB0A000C90D4E90110D8
:104AD000461A00BF20680079834600BF207A21680B
:104AE0000978401AC0B20B9060690A9064201BFBE1
:104AF00000F0B0FBF6F0099064210B9810FB01F078
:104B0000B0FBF6F008900998CDE90460CDE906B64F
:104B1000DDE90B020899CDE900A2CDE902100C4AAB
:104B2000082138460A9B00F037FB6D1C4D45C2D367
:104B300000BFACE742616420617267756D656E7499
:104B400020636F756E740000648F0400488F04004A
:104B5000CC89040030B502460B46D40802F00702A7
:104B6000012090401D5D284030BD30B50B46C20885
:104B700000F007009C5C012585402C439C5430BD0F
:104B80002DE9F04781460D4614461E4654F8048C24
:104B90004046FDF7FBFC07462FB123462A4639461F
:104BA0004846B04705E0434603A20221484600F0CC
:104BB000F3FABDE8F0870000496E76616C69642005
:104BC0006261636B656E643A2025730D0A00000014
:104BD0002DE9F04104460D4616461F46204600F0DA
:104BE0009FFC38B13A463146204600F005FB0120D3
:104BF000BDE8F0814DB1A068406805A202210368BC
:104C0000204600F0C9FA0120F2E70020F0E700009A
:104C100025733A2077726F6E6720706172616D65DF
:104C200074657220636F756E740D0A0070B504466A
:104C30000D461646022D09D1204600F071FC28B120
:104C400000221146204600F0D7FA70BD054A06A1A1
:104C5000206900F003FD054A03A1206900F0FEFC75
:104C600000BFF2E7F67E000025730000FA7E000028
:104C700070B505460C461646012C05D0022C09D10C
:104C8000284600F04DFC28B100221146284600F0CD
:104C9000B3FA70BD03A20221284600F07DFA00BFDE
:104CA000F7E70000506C6561736520737065636998
:104CB0006679206120737562636F6D6D616E642E1D
:104CC0000D0A00007CB506460C461546012C05D1A0
:104CD00000221146304600F08FFA7CBD022C0AD12A
:104CE0000BA16868CDE900100FA2022130462B68A5
:104CF00000F052FAF1E7022C01D9012000E0002077
:104D0000014600231A463046FFF762FF00BFE4E782
:104D100020756E6B6E6F776E20706172616D657459
:104D200065723A200000000025733A257325730D43
:104D30000A00000070B504460D461646012D01D04C
:104D4000012000E00020014600231A462046FFF71C
:104D50003FFF00B170BD0020A168C1F82C01E168DF
:104D60004968086801F02EFD00BFF3E72DE9FE4316
:104D700005460F469146012F01D0012000E000209A
:104D8000014600231A462846FFF722FF08B1BDE876
:104D9000FE83E86840680468204601F00FFDC6B253
:104DA000642016FB00F0A168B0FBF1F000F0FF08F2
:104DB000A068CDE900860290A86804A20821D0F876
:104DC0002C31284600F0E8F900BFE0E74C6F73741F
:104DD000206C6F67733A2025750D0A4D6178206C41
:104DE0006F67207175657565207574696C697A6186
:104DF00074696F6E3A2025752525205B25752F2552
:104E0000755D0D0A000000007CB506460C4615468F
:104E1000012C05D100221146304600F0EDF97CBD91
:104E2000022C01D0012000E00020014600231A4698
:104E30003046FFF7CDFE00B1F1E706A16868CDE985
:104E400000100AA2022130462B6800F0A5F900BF2D
:104E5000E5E7000020756E6B6E6F776E20706172F3
:104E6000616D657465723A200000000025733A2573
:104E70007325730D0A00000070B504460D461646F2
:104E8000012D01D0012000E00020014600231A4638
:104E90002046FFF79DFE00B170BDA068D0F83C0130
:104EA00020F00400A168C1F83C0100BFF4E770B530
:104EB00004460D461646012D01D0012000E00020D9
:104EC000014600231A462046FFF782FE00B170BD5E
:104ED000A068D0F83C0120F00400001DA168C1F8D2
:104EE0003C0100BFF3E700002DE9FC4106460C46FB
:104EF0001546022C01D9012000E0002001460023C4
:104F00001A463046FFF764FE08B1BDE8FC81022C6A
:104F10000AD10DA16868CDE9001011A20221304626
:104F20002B6800F039F9F0E73046FDF7EFFC08B1E7
:104F30000EA000E00EA007463B460EA20821304618
:104F400000F02AF900BFE0E720756E6B6E6F776E98
:104F500020706172616D657465723A200000000016
:104F600025733A257325730D0A0000006F6E00004B
:104F70006F6666004563686F207374617475733A79
:104F80002025730D0A00000070B504460D46164634
:104F9000012D01D0012000E00020014600231A4627
:104FA0002046FFF715FE00B170BD00BFA068D0F825
:104FB0003C0120F00800A168C1F83C0100BF00BF1F
:104FC000F2E770B504460D461646012D01D00120CA
:104FD00000E00020014600231A462046FFF7F8FDB6
:104FE00000B170BD00BFA068D0F83C0120F00800FF
:104FF0000830A168C1F83C0100BF00BFF1E7000024
:105000002DE9FF4104460F469046012F01D00120B3
:1050100000E00020014600231A462046FFF7D8FD95
:1050200008B1BDE8FF810025A068D0F834611EE01A
:105030000EB1082D00D31BE00023092201A9304640
:1050400001F0B4FA9DF80C00421CA06800F1940134
:105050000923304601F0AAFA029EA06894302B463C
:105060006D1C07A208210090204600F095F8DFE7AC
:1050700000BF0020A16881F8940000BFD1E70000C4
:105080005B2533645D2025730D0A00007CB5044662
:105090000D461646012D13D1A06800F10C02511CDB
:1050A000204602F005FB50B15021A0684173182141
:1050B000A06801730FA20421204600F06DF87CBDAA
:1050C000022D01D9012000E00020014600231A46EC
:1050D0002046FFF77DFD00B1F1E715A17068CDE92D
:1050E000001019A202212046336800F055F800BFD5
:1050F000E5E700004E6F20726573706F6E73652078
:1051000066726F6D20746865207465726D696E617A
:105110006C2C20617373756D65642038307832347F
:105120002073637265656E2073697A650D0A0000ED
:1051300020756E6B6E6F776E20706172616D657435
:1051400065723A200000000025733A257325730D1F
:105150000A00000070B504460D461646012D01D028
:10516000012000E00020014600231A462046FFF7F8
:105170002FFD00B170BD064A06A1206900F06EFA4D
:105180005021A06841731821A068017300BFF1E7A6
:10519000FF7E0000257300000FB47CB504460D4669
:1051A0000020019009A80190A068D0F83C01C0F34C
:1051B0008000B8B1A068C07BA84213D06846A1683F
:1051C000B1F80F10018000BF2946204602F010FD03
:1051D00001AA2069089900F064FA6946204602F0A5
:1051E00033FD04E001AA2069089900F05AFA002072
:1051F00001907CBC5DF814FB2DE9F04F89B00746A7
:105200000C4691464FF00008AF48FDF770FC05468C
:10521000AE48FDF76CFC281A86B2AD480090B8681D
:105220004068ACA2082103683846FFF7B5FFB968AB
:1052300049680868FDF75BFC0546A548FDF757FC83
:1052400028441FFA80F8B868406800234246416845
:105250003846FDF7DAFFA1A208213846FFF79CFF88
:10526000B9F1000F26D02CB3002521E005EB450154
:1052700004EB81014868FDF73AFC834605EB4501E4
:1052800054F82100FDF733FC5844B0420FD905EB28
:10529000450104EB81014868FDF729FC834605EBD5
:1052A000450154F82100FDF722FC584486B26D1CDC
:1052B0004D45DBD38548FDF71AFC801C304486B28F
:1052C0008148334688A2082100903846FFF764FFE2
:1052D000F01C1FFA80F80023424685A13846FDF7EE
:1052E00094FF002C7ED0002585E005EB450004EB03
:1052F00080004068F0B305EB450054F82000C8B3C7
:1053000005EB450054F820007049CDE9001005EB8D
:10531000450004EB80007BA2082143683846FFF774
:105320003BFFB01C1FFA80F805EB450104EB81013F
:105330004868FDF7DCFB834605EB450154F8210086
:10534000FDF7D5FB83440BF1020B6048FDF7CFFB63
:105350005844A8EB0000C0B2014602903846FDF761
:10536000BBFD3A213846FDF7A5FB08F101001FFA05
:1053700080F829E0FFE705EB450004EB800040687A
:1053800078B105EB450004EB80004068334656A237
:10539000082100903846FFF7FFFEF01C1FFA80F846
:1053A00012E005EB450054F8200068B105EB45001C
:1053B00054F8200033464CA2082100903846FFF7ED
:1053C000EBFEF01C1FFA80F805EB450004EB8000B3
:1053D000806860B105EB450004EB80000023424685
:1053E000816800E00AE03846FDF70FFF02E038462A
:1053F000FDF7AEFC6D1C4D45FFF477AFB868406813
:10540000806810B909B0BDE8F08FB868406880685E
:1054100004900020039080460026824617E005A8ED
:1054200052460AF1010A03AB012100900498FDF7EE
:10543000CFFB039800B90BE003990868FDF757FB11
:10544000B04204D903990868FDF751FB86B2E6E73C
:1054500000BFBAF1010F00D1D4E72DA208213846D0
:10546000FFF79AFE4FF0000A2AE005A852460AF11B
:10547000010A03AB012100900498FDF7A9FB0398F2
:1054800000B91EE0B01C1FFA80F80398006843467C
:1054900015A2082100903846FFF77EFE08F10300B0
:1054A0001FFA80F80398406838B1039800234246F9
:1054B00041683846FDF7A9FE02E03846FDF748FC92
:1054C000D3E700BF00BF9DE7E77E0000E47E000059
:1054D000F27E000025732573000000004F70746990
:1054E0006F6E733A0D0A00002020252D2A733A00B2
:1054F00053686F7720636F6D6D616E642068656CB3
:10550000702E0000202025732573257300000000F5
:10551000537562636F6D6D616E64733A0D0A0000BE
:1055200001468868D0F83C01C0F34000704701464E
:105530008868D0F83C01C0F34000704701464FF046
:105540008040405808B1012070470020FCE708B5B2
:1055500000224FF080410A500958009100BF08BD59
:1055600001490860704700000803004001490860D5
:105570007047000004030040012291070A50704761
:1055800010B500240A48007808B185240EE00020F8
:105590000749886048600861C860064801F036FA2B
:1055A000044601F029FA012001490870204610BD87
:1055B000C0FA01209D2B000010B5044614488078E5
:1055C00078B114B10120616888470020FCF7BEFF64
:1055D0000F48C068401C0E49C8600020FCF7BBFFA4
:1055E00015E00020FCF7B2FF24B121460848103036
:1055F000FEF7F9FB0648C06808B901F019FA04483B
:10560000C068401C0249C8600020FCF7A4FF10BD20
:10561000C0FA01202DE9F0470446884615461F468A
:1056200026780B4840F826500A4840F826704FF07C
:1056300000090DB1084800E000200246334641460B
:10564000201D01F0C9FB81464846BDE8F0870000F7
:1056500034FA012044FA0120097400000FB438B56F
:105660000446059810B938BC5DF814FB0020009082
:1056700006A800906A462046059900F012F800201E
:10568000009000BFEFE770B50446A06800B970BD98
:10569000D4E90403A268216898470020A06000BFF5
:1056A000F5E72DE9FC5F82460D4614460DB9BDE8CD
:1056B000FC9F00BF2E786D1C06B9E1E0252E70D14D
:1056C00000274FF0010900BF2E782B2E0CD02D2E75
:1056D00002D0302E0CD103E047F001076D1C0AE028
:1056E00047F002076D1C06E047F004076D1C02E05E
:1056F0004FF0000900BF00BFB9F1000FE4D14FF037
:10570000000800BF2A2E06D12168081D2060086805
:1057100080446D1C0DE02E78302E01DB392E00DD2B
:1057200007E06D1CA6F1300008EB880100EB410892
:10573000E8E700BF4FF0000B2E782E2E10D16D1C25
:1057400000BF2E78302E01DB392E00DD07E06D1C06
:10575000A6F130000BEB8B0100EB410BF1E700BF32
:105760002E7800BF6C2E01D0682E02D16D1C2E78D1
:1057700000E000E0F6E700BF692E21D008DC252E0E
:105780006DD0582E39D0632E0CD0642E6CD116E01B
:10579000702E4CD0732E3ED0752E1FD0782E63D134
:1057A0002AE065E02168081D2060D1F8009009F02A
:1057B000FF00019050460199FCF7EEFF55E000BF55
:1057C0002168081D2060D1F800905B460A224946F6
:1057D0005046CDE90087FEF73FFA46E02168081DF4
:1057E0002060D1F800905B460A2249465046CDE938
:1057F000008702F05BF938E000BF2168081D2060D7
:10580000D1F800905B46102249465046CDE900870A
:1058100002F04CF929E02168081D20600868019019
:105820003B4642465046019901F0EEFE1DE02168DC
:10583000081D2060D1F8009030215046FCF7ACFFE5
:1058400078215046FCF7A8FF002008210B461022C3
:10585000CDE900104946504602F028F905E025211F
:105860005046FCF799FF00E000BF00BF6D1C03E04D
:1058700031465046FCF790FF287800287FF41AAF95
:1058800000BF9AF80C0010B15046FFF7FCFE00BFB5
:105890000DE72DE9FF470C4615461E46DDE90C785D
:1058A000684600F095F8814644EA450040EA8600E3
:1058B00040EA072040EA084109F5E060009A40F814
:1058C0002210BDE8FF872DE9FF470C4615461E460E
:1058D000DDE90C78684600F0ABF8814644EA450003
:1058E00040EA860040EA072040EA084109F5E06006
:1058F000009A40F82210BDE8FF872DE9FF470C46CB
:1059000015461E46DDE90C78684600F0A1F8814690
:1059100044EA450040EA860040EA072040EA0841A0
:1059200009F5E060009A40F82210BDE8FF871CB539
:1059300004460020009003460122114601902046B3
:10594000FFF7C1FF1CBD73B50D46684600F080F837
:10595000044604F5E060009950F8210020F440313D
:1059600004F5E060009A40F82210009950F82100F8
:1059700040EA054104F5E060009A40F822107CBD41
:1059800031B5684600F034F804460121009A01FA66
:1059900002F0C4F80C0500BF38BD31B5684600F010
:1059A00037F804460121009A01FA02F0C4F80C0508
:1059B00000BF38BD31B5684600F03AF80446012111
:1059C000009A01FA02F0C4F80C0500BF38BD0000CF
:1059D00001460868202802D24FF0A040704708789E
:1059E00000F01F0008600148F8E7000000030050C5
:1059F00001460868202802D24FF0A040704708787E
:105A000000F01F0008600148F8E7000000030050A4
:105A100001460868202802D24FF0A040704708785D
:105A200000F01F0008600148F8E700000003005084
:105A300001460868202802D24FF0A040704708783D
:105A400000F01F0008600148F8E700000003005064
:105A500001460868202802D24FF0A040704708781D
:105A600000F01F0008600148F8E700000003005044
:105A700031B56846FFF7ECFF044600BFD4F81005C7
:105A80000099C84000F0010038BD31B56846FFF705
:105A9000AFFF04460121009A01FA02F0C4F808059C
:105AA00000BF38BD31B56846FFF7B2FF044601219B
:105AB000009A01FA02F0C4F8080500BF38BD31B5FC
:105AC0006846FFF7B5FF04460121009A01FA02F08B
:105AD000C4F8080500BF38BDF8B504460D466DB9D9
