:020000040000FA
:1000000058220020150200001D0200001F020000FF
:100010002102000023020000250200000000000071
:1000200000000000000000000000000027020000A7
:1000300029020000000000002B0200002D02000039
:10004000FD0700002F020000E50A00002F0200005B
:100050002F0200002F020000E50200002F02000026
:10006000CD0A00002F0200002F0200002F02000026
:100070002F0200002F0200002F0200002F020000BC
:100080002F020000510800002F0200002F02000084
:10009000850800002F0200002F0200002F02000040
:1000A0002F0200002F0200002F0200002F0200008C
:1000B0002F0200002F0200000000000000000000DE
:1000C0002F0200002F0200002F0200002F0200006C
:1000D0002F0200002F0200002F0200002F0200005C
:1000E0002F0200002F0200002F020000000000007D
:1000F000000000002F020000000000002F0200009E
:1001000000000000000000000000000000000000EF
:1001100000000000000000000000000000000000DF
:1001200000000000000000000000000000000000CF
:1001300000000000000000000000000000000000BF
:1001400000000000000000000000000000000000AF
:10015000000000000000000000000000000000009F
:10016000000000000000000000000000000000008F
:10017000000000000000000000000000000000007F
:10018000000000000000000000000000000000006F
:10019000000000000000000000000000000000005F
:1001A000000000000000000000000000000000004F
:1001B000000000000000000000000000000000003F
:1001C000000000000000000000000000000000002F
:1001D000000000000000000000000000000000001F
:1001E000000000000000000000000000000000000F
:1001F00000000000000000000000000000000000FF
:10020000DFF80CD000F028F800480047AF170000D6
:10021000582200200648804706480047FEE7FEE7D0
:10022000FEE7FEE7FEE7FEE7FEE7FEE7FEE7FEE7A6
:100230009D08000001020000202A04DB203A00FA99
:1002400002F1002070479140C2F1200320FA03F32D
:100250001943904070470000064C074D06E0E068E7
:1002600040F0010394E8070098471034AC42F6D3FD
:10027000FFF7CAFFE0230000002400002DE9F04151
:1002800007460C4615461E462A2000F033FC380A65
:1002900000F048FC384600F045FC200A00F042FC23
:1002A000204600F03FFC2B2000F024FC280A00F040
:1002B00039FC284600F036FC300A00F033FC3046AA
:1002C00000F030FC2C2000F015FCBDE8F08100218E
:1002D00005E0002200E0521CFF2AFCD3491C8142A9
:1002E000F7D370472DE9F04F8DB0002700200B9019
:1002F0000C904FF480700A900126002412E00A98B6
:1003000001F02EFC40B100BF7E480068304018B1BB
:100310000A9801F017FC374376000A98001D80B256
:100320000A90641C082CEAD34FF4BE7001F018FC4C
:1003300050B14FF4BE7001F005FC47F000470BAA26
:100340000221002001F0D6FBF8B200B30126002400
:100350001BE006EA0700B0B100BF6B4850F824006C
:10036000C0F30520804600BF674850F82400C0F362
:1003700001408146204600F09DFD054615B14946E5
:100380004046A84700BF7600641C082CE1D307F064
:10039000004000287DD04FF0000B0020089009900D
:1003A000002505E04FF0FF3006A941F825006D1C3F
:1003B000022DF7D300BF4FF0000B002463E0534839
:1003C000005D0590059820F0C00004904F4800574C
:1003D000401C002856D006A9049801F007FA00280E
:1003E00050D005984FEA9019049800F0ABFD804674
:1003F00000F060FD0390039810B9B9F1030F40D1EC
:10040000B9F1030F03D108A9049801F0FAF904988F
:10041000029002A801F02AFB0190019800F5E0602B
:10042000029950F82100C0F3014800BF0BA90498BD
:1004300001F0DCF98246BAF1000F02D0B8F1020FE8
:1004400005D0BAF1000F1BD1B8F1030F18D1B9F1E3
:10045000030F0FD1B8F1020F01D1032000E00220F9
:1004600002900299049801F099FA0BF1010000F052
:10047000FF0B00BF039818B14946DDE90320904700
:1004800000BF00BF641C042C99D3BBF1000F31D016
:1004900000E034E04FF0010804AA0221002001F03E
:1004A00029FB00250BE004A850F825000BA951F802
:1004B0002510884202D04FF0000802E06D1C022D8A
:1004C000F1D300BFB8F1000F02D04FF0000B10E0E5
:1004D00000250CE004A850F825000BA941F82500E0
:1004E00008A850F8250006A941F825006D1C022D2A
:1004F000F0D300BFBBF1000F7FF45DAF00BF0DB0C4
:10050000BDE8F08F04630040106500403802002011
:1005100070B5044600BF4FF4A07606EB8600860156
:1005200040F23F13002219461046FFF7A7FE2D2088
:1005300001F051FA2E2001F0C3FA022001F0C0FAB6
:10054000002512E0201200F005FB2F2001F043FAF5
:100550002F2001F0B5FAE0B200F0FCFA2F2001F0F4
:100560003AFA2F2001F0ACFA6D1CB542EAD32D20E7
:1005700001F0A6FA70BD10B5022001F0F1F91B21BF
:100580001A2001F0CDFA2821222001F0C9FA2F21EA
:100590002A2001F0C5FA282001F092FA6420FFF722
:1005A00096FE282001F017FA4FF44870FFF78FFEEF
:1005B000282001F085FA4FF44870FFF788FE3620B6
:1005C00000F098FA482000F0ADFA3A2000F092FAD4
:1005D000052000F0A7FAF02000F08CFAC32000F00C
:1005E000A1FAF02000F086FA962000F09BFAB120E4
:1005F00000F080FAA02000F095FA102000F092FAA6
:10060000B42000F077FA002000F08CFAB52000F05A
:1006100071FA402000F086FA402000F083FA0020B2
:1006200000F080FA042000F07DFAB62000F062FAB3
:100630008A2000F077FA072000F074FA272000F0F3
:1006400071FAB92000F056FA022000F06BFAC520CA
:1006500000F050FA2E2000F065FAE82000F04AFA87
:10066000402000F05FFA8A2000F05CFA002000F0E1
:1006700059FA002000F056FA292000F053FA192008
:1006800000F050FAA52000F04DFA932000F04AFA4D
:10069000E02000F02FFAF02000F044FA072000F0EC
:1006A00041FA0E2000F03EFA0A2000F03BFA082042
:1006B00000F038FA252000F035FA382000F032FA40
:1006C000432000F02FFA512000F02CFA382000F0DF
:1006D00029FA142000F026FA122000F023FA322022
:1006E00000F020FA3F2000F01DFAE12000F002FAAD
:1006F000F02000F017FA082000F014FA0D2000F0A6
:1007000011FA092000F00EFA092000F00BFA262059
:1007100000F008FA392000F005FA452000F002FA4E
:10072000522000F0FFF9072000F0FCF9132000F040
:10073000F9F9162000F0F6F9322000F0F3F93F2025
:1007400000F0F0F9F02000F0D5F93C2000F0EAF9D3
:10075000F02000F0CFF9692000F0E4F9112000F05A
:10076000C9F99620FFF7B3FD212000F0C3F9292035
:1007700000F0C0F92A2001F02EF92B2001F02BF90E
:100780004FF6FF70FFF7C4FE10BD000000F01F021F
:1007900001219140024A430942F8231070470000AA
:1007A00080E200E000F01F02012191404209920026
:1007B00002F1E022C2F800117047000000F01F02B1
:1007C00001219140024A430942F82310704700007A
:1007D00000E200E010B5002807DA4A07140E054AC7
:1007E00000F00F031B1FD45403E04A07130E024A04
:1007F000135410BD18ED00E000E400E010B54FF414
:10080000807001F009F880B14FF4807001F00DF8AC
:10081000012001F013F80D48407930B901200B494F
:10082000487108460168002088474FF4827000F044
:10083000F3FF50B14FF4827000F0F7FF022000F098
:10084000FDFF024801680120884710BD74000020A8
:1008500010B500200949086000210948C0F844117A
:10086000C0F84811C0F84C1100200549C1F800013A
:1008700002493C39086001F011FD10BD40110140F2
:100880000010014010B501F01BFC10BD01480249E9
:10089000086070470090D0037C00002010B500F085
:1008A000B5FC40B10020794908604FF08041C1F8A3
:1008B00010017749086000F0C5FC002855D0754844
:1008C0000068754908607348001D0068091D0860CC
:1008D000704808300068091D08606E480C300068D8
:1008E000091D08606B4810300068091D08606948E0
:1008F00014300068091D08606648183000686649B1
:100900002031086063481C300068091D0860614898
:1009100020300068091D08605E4824300068091D09
:1009200008605C4828300068091D086059482C3070
:100930000068091D0860574830300068564940314A
:100940000860544834300068091D08605148383048
:100950000068091D08604F483C300068091D0860A8
:100960004C4840300068091D086000F087FC10B159
:100970004A484B49086000F003FC10B1FB2049498C
:10098000086000F00BFC38B1474801784748006820
:1009900061F303004549086000F00EFC18B14FF404
:1009A00000704349086000F015FC40B14148006800
:1009B00000F0010018B16FF001003E4908603E48A8
:1009C000006840F470003C49086000BF00BF00BFF1
:1009D000BFF34F8F00BF00BF00BF00BF00BF00BF0D
:1009E000BFF36F8F00BF00BF00BF3448006800F046
:1009F000004030B93148001D006800F00040002878
:100A000040D001202E49086000BF2E480068002811
:100A1000FBD012202949086000BF2A48006800283E
:100A2000FBD012212548001D016000BF2548006849
:100A30000028FBD000202249086000BF2148006840
:100A40000028FBD000BF00BF00BF00BF00BFBFF346
:100A50004F8F00BF00BF00BF17487C38006800F40C
:100A6000E06019490843001D13497C39086000BF44
:100A700000BF00BFBFF34F8F00BF00BF00BF00BF6C
:100A800000BFFDE7FFF702FF10BD00000C010040B2
:100A9000380500400404001020C5004048810300D0
:100AA0008C56004018F5004058020010E40E00403B
:100AB000409602400004004088ED00E00012001063
:100AC00004E5014000E401400000FA0510B50422ED
:100AD0000249034800F0A6FC10BD0000CC01002034
:100AE0000080004010B502490868804710BD000032
:100AF0006C00002010B504462D2000F06CFF022091
:100B000000F0DEFF2E2000F066FFE0B200F022F8D9
:100B10002F2000F060FF2F2000F0D2FF2D2000F0EA
:100B2000CFFF10BD10B504462D2000F054FF022069
:100B300000F0C6FF2E2000F0C3FFE0B200F00AF87C
:100B40002F2000F048FF2F2000F0BAFF2D2000F0EA
:100B5000B7FF10BD70B5054600240EE005F001009A
:100B600020B10749085D00F0ABFF03E00449085DD0
:100B700000F031FF6D10601CC4B2082CEEDB70BDBC
:100B80003C00002002E008C8121F08C1002AFAD168
:100B900070477047002001E001C1121F002AFBD1FD
:100BA0007047000010B5002407E00749096811F8F4
:100BB0003400012101F02EF8641C044800788442BE
:100BC000F3D3002010BD0000080000200C0000201E
:100BD0002DE9F84306460D461746052F02D2072099
:100BE000BDE8F88301F054F938B901F0EFF8044694
:100BF00000BF204600B1F3E700BF18480660184860
:100C00000570184807600021174A116051600020E4
:100C1000164A1060506015E006EBC50814480068DD
:100C2000009098F802008DF8010098F80000114A31
:100C3000694601F045F8044600BF204600B1CFE701
:100C400000BF00BF281EA5F10101CDB2E4D10A4AC0
:100C500000210A4800F050F8C2E700000800002018
:100C60000C000020100000201800002020000020B0
:100C70008C2300008113000039100000882300003D
:100C800072B600BF1348006800F0010000B100BE5A
:100C900000BF00BF00BF00BF00BF00BFBFF34F8F4A
:100CA00000BF00BF00BF0B48E438006800F4E060FC
:100CB00009490843001D0749E439086000BF00BF27
:100CC00000BFBFF34F8F00BF00BF00BF00BF00BF1A
:100CD000FDE70000F0ED00E00000FA053EB5044637
:100CE000002000900190029002946A46002144F294
:100CF0000100FFF7C5FF3EBD10B503460C4600BF1F
:100D00000B48807808B9082010BD00BF0AB9072039
:100D1000FAE70BB90720F7E71868007C08B108204C
:100D2000F2E71968002008744C744A6100BFEBE7D1
:100D3000A000002010B501F075F900200F490870DF
:100D400048700B20887000200D4908600D4908701C
:100D50000D4908701420FFF719FD06211420FFF734
:100D600039FD1420FFF71EFD002001F031F901F0DC
:100D700029F906490860002010BD0000A0000020ED
:100D80002800002038000020390000202C0000201E
:100D90002DE9F04104460E461746254600BF10488F
:100DA000807810B90820BDE8F08100BF0CB9082098
:100DB000F9E7052E01D20720F5E7686908B9082090
:100DC000F1E7687C012801D1304600E00020804630
:100DD0003B4642463146284601F018FAE3E7000058
:100DE000A000002070B50446254600BF0848807862
:100DF00008B9082070BD00BF0CB1686908B90820A7
:100E0000F8E7002028740221284601F02BFAF1E7C8
:100E1000A000002000B5024600F006F800BD00B5B5
:100E2000024600F00BF800BD72B603480068401C93
:100E30000149086070470000000000200448006875
:100E4000401E034908600846006800B962B6704752
:100E50000000002013B50C4664B1012C02D0022C16
:100E60000ED10CE06A464FF4804109480068FFF754
:100E70008FFF06E006480068FFF7B4FF01E000E0DE
:100E800000BF00BF21469DF8000000F010FB1CBD14
:100E9000982300004FF0FF31054A42F8201008283F
:100EA00004DBFF23A0F108016032535470470000B7
:100EB000D80100200146024850F821007047000088
:100EC000D80100202DE9F04F03460C464FF0FF39C2
:100ED0000AB1002000E0082084460AB1082000E0A2
:100EE0000C208046614624E0154850F82100401C43
:100EF000F0B91D460846274616464FFA80FBDFF834
:100F000040A00AF1300A0AF805B0DFF834A04AF828
:100F100020704EB94FFA85FBA0F1080ADFF820E0F7
:100F20000EF1600E0EF80AB000BF4FFA81F902E030
:100F3000491C4145D8D300BF4846BDE8F08F0000AA
:100F4000D8010020014601484056704708020020A1
:100F500070B505460DB9094C01E0084C083409E0AC
:100F6000204600F08DFA064606B904E0284671686E
:100F7000884700BFF4E700BF70BD00004C020020AE
:100F800010B504462CB90120064948700020FFF72F
:100F9000DFFF012C04D1012002498870FFF7D8FF40
:100FA00010BD0000440200202DE9F04782461F4892
:100FB0000068002836D01D480068056801F002F876
:100FC00007461B4804682146384601F06EF8C61CE7
:100FD0001848007808B901F007F8AE4201D2284657
:100FE00000E03046044424F07F44204600F0E4FF53
:100FF00000F0E8FF80463946404601F056F800F11F
:1010000003093946204601F050F8814509D900F01E
:10101000D9FF814600F0D0FF2F2000F0EFFD01F056
:1010200089F901E000F0FEFFBDE8F087280000200C
:101030002C0000203A0000202DE9F04F85B04FF041
:1010400000095BE03148006800EBC9042278012107
:101050000020CDE9000108460099FFF7EDF80746AA
:1010600088462B4806C807EA010008EA0201002664
:101070000246724081EA060002433BD02448D0E990
:101080000010B94320EA0800214AC2E90010207884
:1010900000F092FE0646227801210020CDE90301EE
:1010A00008460399FFF7C8F81A4B0CCB00EA020B6D
:1010B00001EA030A22783546002002902846029968
:1010C000FFF7BAF88BEA000B8AEA010A5BEA0A0B1F
:1010D0000FD16078012800D100E00020704080F03E
:1010E000010A606820B10AF0FF0120786268904729
:1010F00000BF00BF09F1010000F0FF0906480078B9
:1011000081459FDB05B0BDE8F08F0000080000209E
:1011100020000020180000200C0000200146144888
:101120000078144A127890421DD011480078401C73
:101130000F4A107010460078022801D1002010706C
:101140000D480B4A127850F8220008600B4A0868D4
:1011500012681044094A10601046006820F07F4071
:101160001060012070470020086000BFFAE700000F
:101170003800002039000020300000202C00002022
:1011800005480068082805D10348001D006808B913
:10119000012070470020FCE730010010054800687E
:1011A000082805D10348001D006808B901207047D0
:1011B0000020FCE73001001005480068082805D130
:1011C0000348001D006808B9012070470020FCE7B3
:1011D000300100100C480068082812D10A48001D90
:1011E000006808B9012070470748001D0068012801
:1011F00000D1F8E70448001D0068022801D1012051
:10120000F1E70120EFE70000300100100C48006812
:10121000082812D10A48001D006808B9012070474B
:101220000748001D0068012800D1F8E70448001DA8
:101230000068022801D10120F1E70120EFE700005A
:10124000300100100C480068082812D10A48001D1F
:10125000006808B9012070470748001D0068012890
:1012600000D1F8E70448001D0068022801D10120E0
:10127000F1E70120EFE700003001001005480068A9
:10128000082805D10348001D006808B901207047EF
:101290000020FCE730010010F0B5034600241FE0F9
:1012A000124E306806689E4203D90668F61A066038
:1012B0001AE006689B1B06683444002606600B4E45
:1012C00035680A4FC6693E60C66846B10E1926F0F9
:1012D0007F464660C66886601668C661156000BFB6
:1012E000024800680028DBD100BFF0BD28000020C4
:1012F0001E48006800F00700052836D001201C4970
:10130000086000BF1B4800680028FBD01748006831
:1013100020F00700401D4FF01021C1F80403002009
:101320001349086000BF134800680028FBD000BFC5
:1013300000BF00BF00BF00BFBFF34F8F00BF00BFA3
:1013400000BF0D48006800F4E0600C490843001D30
:101350000949086000BF00BF00BFBFF34F8F00BF47
:1013600000BF00BF00BF00BFFDE7704704130010BF
:1013700004E5014000E401400CED00E00000FA0546
:101380002DE9F04780468A4642460126002730462E
:101390003946FEF751FF04460D461E480068FFF728
:1013A00021FD8146B9F1000F01D0BDE8F0871A494F
:1013B00003C920402940002358405940084321D107
:1013C000404600F0F9FC30B1144903C920432943D9
:1013D000124A03C207E01148D0E90010A143A84314
:1013E0000E4AC2E900100C4903C9204329430A4AA6
:1013F00003C200220A48016806480068FFF7C8FCDB
:10140000814605E0044903C9A043A943024A03C237
:1014100000BFCAE788230000200000201800002039
:10142000100000202DE9F04704460E4690460027A4
:1014300022E0384600F0A6FB0546384600F0A9FB3E
:1014400081462046294642580AB1012200E0002286
:1014500082B14846D4F80413014009B1012100E0EB
:10146000002139B12946204600F098FB2846D6E9EC
:1014700000219047781CC7B24745DADBBDE8F0870A
:101480000146086808B102680A607047026803E014
:101490008A4200D170471268002AF9D103680BB163
:1014A000036800E000230B60016000BFF2E770B545
:1014B00005460C460B2D06D00C2D27D0182D48D0F4
:1014C000192D22D168E044B1012C02D0022C1BD18D
:1014D00010E00D2000F08CFA16E00D2000F0FDFA6F
:1014E0000E2000F0FAFA0F2000F0F7FA102000F0BA
:1014F000F4FA09E00E2000F07BFA0F2000F078FAF1
:10150000102000F075FA00BF00BF68E044B1012C64
:1015100002D0022C1BD110E00E2000F069FA16E078
:101520000D2000F0DAFA0E2000F0D7FA0F2000F0BC
:10153000D4FA102000F0D1FA09E00D2000F058FA9A
:101540000F2000F055FA102000F052FA00BF00BF43
:1015500045E044B1012C02D0022C1BD110E00F2039
:1015600000F046FA16E00D2000F0B7FA0E2000F069
:10157000B4FA0F2000F0B1FA102000F0AEFA09E042
:101580000D2000F035FA0E2000F032FA102000F0A5
:101590002FFA00BF00BF22E044B1012C02D0022C80
:1015A0001BD110E0102000F023FA16E00D2000F00F
:1015B00094FA0E2000F091FA0F2000F08EFA10201D
:1015C00000F08BFA09E00D2000F012FA0E2000F076
:1015D0000FFA0F2000F00CFA00BF00BF00BF00BFE1
:1015E00070BD000070B5FFF7A5FB044600BF25469F
:1015F00025B100BF2846FFF771FB00BF00BF40F2D6
:10160000666204211448FFF7E3FA044600BF25464A
:1016100025B100BF2846FFF761FB00BF00BFFFF701
:10162000C1FA044600BF254625B100BF2846FFF792
:1016300055FB00BF00BF094A00210948FFF75CFBCA
:10164000044600BF254625B100BF2846FFF746FBEC
:1016500000BF00BF70BD00004C000020A1170000BB
:10166000982300002DE9F041064600274748D0F8AE
:10167000008078E016B13446E66947E044480078D7
:1016800000EB40014248001D00EBC105001F00783F
:10169000401C3F490870084600788978884202D18A
:1016A00000203B4908706C68287801281AD002286D
:1016B00002D0032817D107E0686800F063FD00B18D
:1016C0000127002020744EE007E03049086800211F
:1016D00001742E4AC169116000BF2C4800680028BF
:1016E000F3D140E000E03EE000BF207C00B13AE0F2
:1016F000A8686060E868A0602869E0606869A06127
:101700002448007808B10020606000BF224960686A
:101710000968401A20F07F402049884208D21E49BB
:101720006068096800F0C1FCA168084420600FE00F
:1017300019486168006800F0B8FC0546A068A84236
:1017400003D9A068401B206001E00020206000BF9A
:1017500000206060A060012020740020E06120462D
:1017600000F0DCFC00BF002E84D109480078084955
:1017700049788842F8D11FB904480068404502D032
:101780000120BDE8F0810020FBE7000028000020D8
:10179000A00000203B0000202C000020FFFF7F0065
:1017A00010B5044620780221FFF754FB10BD00BF9E
:1017B00000F064FC0D2000F0B5F80E2000F0B2F847
:1017C0000F2000F0AFF8102000F0ACF80D2000F072
:1017D0006AF90E2000F067F90F2000F064F910207C
:1017E00000F061F901E000F0E3FBFCE730B50246F0
:1017F0000B46D40802F00702012090401D5D2840EE
:1018000030BD30B50B46C20800F007009C5C0125D6
:1018100085402C439C5430BD01464FF080404058D9
:1018200008B1012070470020FCE708B500224FF006
:1018300080410A500958009100BF08BD0149086065
:10184000704700000803004001490860704700002D
:1018500004030040012291070A50704710B500248C
:101860000A48007808B185240EE000200749886006
:1018700048600861C860064800F0A2F9044600F01C
:1018800095F9012001490870204610BD440200204E
:10189000810F000010B504461448807878B114B167
:1018A0000120616888470020FFF7B4FA0F48C0683C
:1018B000401C0E49C8600020FFF7B1FA15E0002077
:1018C000FFF7A8FA24B1214608481030FFF7DEFDE3
:1018D0000648C06808B900F085F90448C068401C93
:1018E0000249C8600020FFF79AFA10BD44020020A8
:1018F0002DE9FF470C4615461E46DDE90C78684683
:1019000000F0B4F8814644EA450040EA860040EA27
:10191000072040EA084109F5E060009A40F82210EB
:10192000BDE8FF872DE9F84F044601252E464FF00C
:101930000008C14647460094684600F067F88246B2
:1019400045EA460040EA880040EA092040EA0741AB
:101950000AF5E060009A40F8221000BFBDE8F88F59
:101960002DE9F84F044601252E464FF00008C146E8
:1019700047460094684600F059F8824645EA46001A
:1019800040EA880040EA092040EA07410AF5E060A1
:10199000009A40F8221000BFBDE8F88F73B50D46DD
:1019A000684600F063F8044604F5E060009950F8DA
:1019B000210020F4403104F5E060009A40F8221044
:1019C000009950F8210040EA054104F5E060009AD2
:1019D00040F822107CBD31B5684600F027F8044677
:1019E0000121009A01FA02F0C4F80C0500BF38BDCD
:1019F00031B5684600F02AF804460121009A01FA40
:101A000002F0C4F80C0500BF38BD000001460868AC
:101A1000202802D24FF0A0407047087800F01F0045
:101A200008600148F8E7000000030050014608681C
:101A3000202802D24FF0A0407047087800F01F0025
:101A400008600148F8E700000003005001460868FC
:101A5000202802D24FF0A0407047087800F01F0005
:101A600008600148F8E700000003005001460868DC
:101A7000202802D24FF0A0407047087800F01F00E5
:101A800008600148F8E700000003005031B56846DF
:101A9000FFF7ECFF044600BFD4F810050099C840DA
:101AA00000F0010038BD31B56846FFF7AFFF0446CE
:101AB0000121009A01FA02F0C4F8080500BF38BD00
:101AC00031B56846FFF7B2FF04460121009A01FADA
:101AD00002F0C4F8080500BF38BD31B56846FFF70D
:101AE000B5FF04460121009A01FA02F0C4F8080586
:101AF00000BF38BD3CB50B46084D30CDCDE90045A3
:101B0000014606E05DF82140D4F810551560121D1D
:101B1000491CC4188C42F5D83CBD00009C23000031
:101B200070B504460D4603E02046FFF719FF641C1C
:101B3000AC42F9D970BD0000014601480844704725
:101B40000060004038B504462046FFF7F5FF00214D
:101B500001602046FFF7F0FF0068009000BF38BD2D
:101B600010B504462046FFF7E7FF0068012800D1C2
:101B700010BD0020FCE7000001490860704700002C
:101B80000463004001464FF4A07000EB810080B276
:101B9000704701464FF480308840704708B50022F6
:101BA00042504258009200BF08BD000010B500F03E
:101BB00079F901200149086000BF10BD18050040F7
:101BC00001460020064A12790AB1852006E0044A3F
:101BD00011600122024B1A7100225A7170470000F5
:101BE0007400002010B54FF48270FFF71EFE022033
:101BF000FFF72AFE0820FFF72DFE10BD70B5044642
:101C000004B970BD024EA5012846B04700BFF8E7F1
:101C1000912300002DE9F04706460D46304600F0BE
:101C2000A5F9E0B13046FFF78DF9083822490F5C7D
:101C3000BC11032C08D13046FFF728FF08B1032060
:101C400000E00220804605E0012C01D1022000E0E6
:101C50000320804641463046FFF7A0FE2AE030468A
:101C600000F090F930B33046FFF76CF90446A0005D
:101C700000F5807087B22046104951F8201041F0DD
:101C800001020E4941F8202000BF3846FFF75AFFF5
:101C90007DB13046FFF756F98146FFF70BF98046D4
:101CA000B8F1000F04D0012101FA04F0FFF764FF3E
:101CB00000BF00BFBDE8F08738020020106500407B
:101CC0002DE9FC4706460D4617464FF00008304602
:101CD00000F03EF910B14FF0080864E0A878C0F3B6
:101CE000400239463046FFF7EDF80446601C0028F4
:101CF00056D0A878C0F3800030BBA87800F001006F
:101D000090B1019601A8FFF7B1FE814609F5E060A8
:101D1000019950F8210020F0020A09F5E0600199CC
:101D200040F821A000BF0CE095F801900020009041
:101D30004B460246014601903046FFF7D9FD00BFF1
:101D400000BF304600F0FAF8A878C0F34000D0B1E8
:101D50002878164951F82410154A1140134A42F8C0
:101D60002410114651F824104FF47C5202EA062246
:101D70004FF4403303EA00431A4311430B4A42F83D
:101D8000241000BF0EE0A4F108000A49085C29787D
:101D900040EA811042B2A4F1080006490A5401E069
:101DA0004FF0040800BF4046BDE8FC8710650040C6
:101DB000FFC0FCFF3802002010B504462046FFF7A4
:101DC00065FE08B1012010BD0020FCE72DE9F041BF
:101DD0002B4890F86A0018B108252846BDE8F08124
:101DE000002404E0204600F0DDF8601CC4B2302C72
:101DF000F8DB002404E02046FFF74CF8601CC4B276
:101E00000C2CF8DB1E4800214166A0F86810062261
:101E1000134610461946002809DA4E074FEA166C99
:101E2000184E00F00F073F1F06F807C003E04E07EB
:101E3000370E154E375400BF00BF062000BF0121EA
:101E40008140124A430942F8231000BF00BF01211C
:101E500081404209920002F1E022C2F8001100BF65
:101E600000BF4FF4BE70FFF76DFE4FF00040FFF76C
:101E700083FE0120024981F86A0000252846ADE76B
:101E8000D801002018ED00E000E400E080E200E06E
:101E9000034890F86A0008B1012070470020FCE771
:101EA000D8010020F0B5062300200146C41700EB3E
:101EB000D4646411A40004F1E024D4F80041024683
:101EC000C51700EBD5656D11A0EB45160125B54092
:101ED0002C400CB1012400E0002444BB00221C462D
:101EE00010462146002807DA4D072F0E104D00F04E
:101EF0000F06361FAF5503E04D072E0E0D4D2E5425
:101F000000BF00BF002000BF012181400A4A4409F0
:101F100042F8241000BF00BF012181404209920015
:101F200002F1E022C2F8001100BF00BF00BFF0BD07
:101F300018ED00E000E400E080E200E010B50446A7
:101F400002492046FFF75DFC10BD00003C02002066
:101F5000014605484056012202EBE07008B101201D
:101F600070470020FCE700000802002001460448FA
:101F70004056082801DB012070470020FCE70000E4
:101F800008020020014606484056002805DB0448A8
:101F90004056082801DA012070470020FCE70000C5
:101FA00008020020FF2201490A547047080200205D
:101FB00020BF40BF20BF7047014908607047000044
:101FC00040150140014800687047000004150140B9
:101FD00010B504460348046006211120FEF7FAFB01
:101FE00010BD00000815014010B54FF480300A49BB
:101FF00008600A49C1F804031120FEF7C7FB11204D
:10200000FEF7D0FB0120054908602F20FFF7F6FD01
:1020100001200349087010BD441301400010014025
:102020003A00002010B51120012181400E4A4309D9
:1020300042F8231000BF4FF480300C4908600C496F
:10204000C1F80803012048602F20FFF7D7FD0120C9
:10205000074988600020074908602F20FFF7CEFD60
:1020600000200549087010BD80E100E048130140E0
:10207000001001402C0000203A00002070B5FFF74E
:10208000EDFB044600BF254625B100BF2846FEF7FC
:1020900025FE00BF00BF0020FFF7FCFBFFF728F97B
:1020A000FFF7A0FAFEF767FA70BD0246501A20F05B
:1020B0007F40704710B50446D4E90510884710BD2D
:1020C0002DE9FC410020019000260E4804680E48CE
:1020D00007686846FFF722F805462DB101AA214698
:1020E0000098FFF7D9F801260198FFF7BBFA00B175
:1020F000012616B13846FEF757FF00200349087045
:10210000BDE8FC812C000020280000203B000020BE
:1021100010B51420FEF752FB10BD000010B5184991
:10212000096811B91649086028E0154A0168126863
:10213000126891420DD81249096809680268891A23
:102140000F4A126811600E490968C1610C490860A4
:1021500014E002680A4C2368216803E00C68121B33
:102160000B46C96911B10C689442F7D311B10C68E0
:10217000A41A0C600260C161D86100BF10BD0000EC
:10218000280000202DE9F04106461C48D0F80080C8
:1021900005682C4604E0B44200D103E02546E4691A
:1021A000002CF8D100BF14B90020BDE8F081A54291
:1021B00013D112480068C0691049086008460068D9
:1021C00058B901200E49886000200E49086001209E
:1021D0000D4908702F20FFF711FD2768E069E861BD
:1021E000EC6914B1206838442060044800688045D8
:1021F00001D00120D9E70020D7E700002800002007
:10220000001001402C0000203B0000202DE9F84385
:1022100005460E46174698464FF000090020FEF787
:10222000F9FD684600F08CF8044614B94FF0040933
:102230000DE0012020706560FFF7C4FEA060E6603D
:102240002761C4F814809DF8000000F097F8002082
:10225000FEF7E5FDB9F1000F01D1FFF759FF484640
:10226000BDE8F883F8B505460E4600270020FEF7C6
:10227000D1FD684600F064F804460CB9042705E077
:10228000267065609DF8000000F078F80020FEF7E9
:10229000C6FD0FB9FFF73CFF3846F8BD2DE9F04108
:1022A0001F480068002838D00027FFF78BFE8046C3
:1022B0001C4801684046FFF7F8FE064618480568C6
:1022C00010E02868B04200D90EE02868361A286865
:1022D00007442C46ED69207C20B100202074204664
:1022E000FFF7E8FE002DECD100BF0F4800780F4942
:1022F0000978884209D10D480078401CC0B20B49CA
:102300000870022801D1002008700948074909789F
:1023100040F82170FFF7FCFE00BFBDE8F08100002F
:10232000280000202C000020380000203900002068
:102330003000002010B51120FEF740FA10BD00005B
:1023400010B502460C484078401CC1B20A4880785B
:10235000884200D1002108480078884201D100203D
:1023600010BD11700448407800EB40040248001D85
:1023700000EBC4031846F3E7A000002001494870B1
:1023800070470000A0000020800000200300000033
:102390000338FDD870470000AC0100200000005059
:1023A000000300506E7266785F6770696F74655FD6
:1023B000696E6974006E7266785F6770696F7465C4
:1023C0005F6F75745F696E6974006E7266785F67BF
:1023D00070696F74655F696E5F696E697400000093
:1023E000002400000000002080000000840B00009A
:1023F0008024000080000020D8210000940B000001
:1024000000000000000000000000000000000000CC
:1024100000000000000000000000000000000000BC
:1024200000000000000000000000000000000000AC
:102430000000000000000000000000002627251B0F
:1024400024231A22FFFF0000100000000B000300ED
:10245000550E00000C000300550E0000180003008C
:10246000550E000019000300550E0000000000008A
:102470000000000000000000000000000090D003F9
:0400000500000201F4
:00000001FF
