:020000040000FA
:10000000502B0020F9020000010300000303000050
:1000100005030000070300000903000000000000C2
:100020000000000000000000000000000B030000C2
:100030000D030000000000000F030000110300008A
:100040000506000013030000C108000013030000B0
:100050001303000013030000510400001303000009
:100060001303000013030000130300001303000038
:100070001303000013030000130300001303000028
:10008000130300005D0600001303000013030000CB
:10009000E106000013030000130300001303000037
:1000A00013030000130300001303000013030000F8
:1000B0001303000013030000000000000000000014
:1000C00013030000130300001303000013030000D8
:1000D00013030000130300001303000013030000C8
:1000E00013030000130300001303000000000000CE
:1000F00000000000130300000000000013030000D4
:1001000000000000000000000000000000000000EF
:1001100000000000000000000000000000000000DF
:1001200000000000000000000000000000000000CF
:1001300000000000000000000000000000000000BF
:1001400000000000000000000000000000000000AF
:10015000000000000000000000000000000000009F
:10016000000000000000000000000000000000008F
:10017000000000000000000000000000000000007F
:10018000000000000000000000000000000000006F
:10019000000000000000000000000000000000005F
:1001A000000000000000000000000000000000004F
:1001B000000000000000000000000000000000003F
:1001C000000000000000000000000000000000002F
:1001D000000000000000000000000000000000001F
:1001E000000000000000000000000000000000000F
:1001F00000000000000000000000000000000000FF
:10020000DFF80CD000F012F900480047F9180000A0
:10021000502B002030B4044654E8000F0D4644E84B
:100220000053002BF8D1156030BC704730B4044641
:1002300054E8000F40EA010544E80053002BF7D1D1
:10024000156030BC704730B4044654E8000F00EA33
:10025000010544E80053002BF7D1156030BC70470E
:1002600030B4044654E8000F80EA010544E8005326
:10027000002BF7D1156030BC704730B4044654E809
:10028000000F00EB010544E80053002BF7D1156087
:1002900030BC704730B4044654E8000FA0EB0105B1
:1002A00044E80053002BF7D1156030BC704770B4A0
:1002B00004464FF0000054E8006F0D68AE4207BFDF
:1002C00044E80023012044E800630E60002B1CBFBB
:1002D0000020F0E770BC704730B4044654E8000FCB
:1002E00088422CBF451A054644E80053002BF5D13F
:1002F000156030BC7047000006488047064800473C
:10030000FEE7FEE7FEE7FEE7FEE7FEE7FEE7FEE7C5
:10031000FEE7FEE7E5060000010200002DE9F05FC0
:100320000546002092469B46884606468146402464
:100330001BE0284641464746224600F067F85346F0
:100340005A46C01A914110D311461846224600F071
:1003500016F82D1A67EB01084F46224601200021AE
:1003600000F00DF817EB00094E41201EA4F1010426
:10037000DFDC484631462A464346BDE8F09F202A46
:1003800004DB203A00FA02F1002070479140C2F1EC
:10039000200320FA03F31943904070470048704748
:1003A000882F000040EA01039B0703D009E008C939
:1003B000121F08C0042AFAD203E011F8013B00F82A
:1003C000013B521EF9D27047D2B201E000F8012B76
:1003D000491EFBD270470022F6E710B513460A46C5
:1003E00004461946FFF7F0FF204610BD421C10F8E6
:1003F000011B0029FBD1801A7047034611F8012B1D
:1004000000F8012B002AF9D118467047202A04DB96
:10041000203A21FA02F00021704721FA02F3D0407D
:10042000C2F120029140084319467047064C074D1F
:1004300006E0E06840F0010394E8070098471034B4
:10044000AC42F6D3FFF7E0FE403000006030000021
:100450002DE9F04F00268DB0DFF8A081B14604965B
:100460004FF48075012437460596284601F036FD85
:1004700038B1D8F80403204203D0284601F024FD07
:1004800026432D1D64007F1CADB2082FEDD34FF421
:10049000BE74204601F022FD48B1204601F014FD53
:1004A00046F0004604AA0221002001F0F7FC544C5B
:1004B00016F0FF0F15D00127002537420DD008EBAD
:1004C0008501D1F81005D1F81015C0F3052054F8B6
:1004D0002520C1F3014102B190477F006D1C082D1A
:1004E000EBD3002E7EDA0020CDF82890411E0DF1CE
:1004F000100B07AACDF82C9042F82010401C914612
:100500000228F9D300252E46A11911F8607F91F930
:10051000000027F0C008401C40D007A9404601F069
:10052000D3FA40B34FEA971A404600F049FF54F817
:1005300020701FB1BAF1030F03D006E0BAF1030F28
:100540002CD10AA9404601F0C7FA02A8CDF80880CC
:1005500001F078FC029900EB8100D0F8000704A9B3
:10056000C0F301400290404601F0AEFA0028029824
:1005700002D0022802D011E003280FD1BAF1030FF4
:1005800008D10298022833D00221404601F034FC01
:100590006D1CEDB217B151464046B847761C042E8B
:1005A000B2D3002D21D001AA0221002001F076FC57
:1005B00000205A460DF1040152F8206051F8203015
:1005C000B34217D000200AAE4FEA090351F8207059
:1005D00042F8207056F8207043F82070401C022822
:1005E000F4D300E001E0002D8CD10DB0BDE8F08F18
:1005F0000321CAE7401C0228DED3F6E70060004072
:100600006801002070B54FF48076304601F06EFA34
:10061000114CB50560B1304601F06FFA0120C5F804
:100620000803607920B901206071216800208847A3
:100630004FF48276304601F059FA00280AD030464D
:1006400001F05BFA0220C5F808032168BDE870409C
:100650000120084770BD0000140000200748002159
:10066000C0F84011C0F84411C0F84811C0F84C114E
:10067000C0F80011C0F8041102F0DEBA0010014009
:1006800000F024B970B50E46144900EB400001EBB0
:10069000C0051446E86A183520B101280FD0022899
:1006A00005D113E0284600F045F9A04201D200240C
:1006B00011E022463146284600F074F90BE0284646
:1006C00000F038F9A042F4D20446F2E73146284659
:1006D00000F03BF90446204670BD0000C808002029
:1006E00002F0FCB930B54FF0805000228300D0F802
:1006F0003011C3F80C21C3F81021624B1A60624B11
:100700001B68624C2360604B1B1D1B68241D23600B
:100710005D4B08331B68241D23605B4B0C331B6847
:10072000241D2360584B10331B68241D2360564B37
:1007300014331B68241D2360534B18331B68534C20
:1007400020342360504B1C331B68241D23604E4B08
:1007500020331B68241D23604B4B24331B68241D4E
:100760002360494B28331B68241D2360464B2C33E0
:100770001B68241D2360444B30331B68434C4034BA
:100780002360414B34331B68241D23603E4B3833B8
:100790001B68241D23603C4B3C331B68241D2360D5
:1007A000394B40331B68241D23600123082902D1E3
:1007B000D0F8344114B1082904D006E0354C34494E
:1007C000216005E0D0F8344114B1082904D006E0D6
:1007D000314CFB21216005E0D0F8344114B10829E7
:1007E00008D00EE090F858422C48016864F30301E9
:1007F000016002E0D0F834411CB929494FF400707F
:10080000086028480168C90702D06FF00101016043
:100810002548016841F470010160BFF34F8FBFF3B9
:100820006F8F4FF01021D1F80002002803DBD1F8C0
:100830000402002822DA1D4C23601D480368002BA7
:10084000FCD01223C1F800320568002DFCD0C1F89D
:10085000043201680029FCD0226001680029FCD024
:10086000BFF34F8F10487C380168124A01F4E061F1
:1008700011430160BFF34F8F00BFFDE70F490E48E2
:10088000086030BD380500400404001020C5004059
:10089000488103008C56004018F50040E40E0040EB
:1008A000409602400004004088ED00E004E501406D
:1008B00000E401400400FA050090D003C4000020C9
:1008C00001480068004700001C00002010B5124CD1
:1008D00002202061606111A0A06104F17800E06154
:1008E0004FF4007020620020A06260620BA1A1643E
:1008F000E06204F51E71E1641021A065C4E91410E2
:10090000E06509A1E01DFFF778FD08A12046FFF78B
:1009100074FD2020A07110BDC80800205465726DC0
:10092000696E616C00000000525454005345474703
:10093000455200000269C1688A4203D88068401AA3
:10094000104400E0501A401E70472DE9F047C4687B
:100950001746894606464FF000083069A04201D983
:10096000051B02E0B168201A0D1AB0686D1E001B4D
:10097000A84200D80546BD4200D33D4670682A46CD
:1009800020444946FFF70EFDB0687F1B2C44A84465
:10099000A944A04200D10024F460002FDDD14046DC
:1009A000BDE8F0872DE9F04104468846D4E9020706
:1009B000C51BE168606816460844B54206D9414641
:1009C000FFF7F0FCB819E060BDE8F0812A46414627
:1009D000FFF7E8FC761B08EB050132466068FFF77D
:1009E000E1FCE660F0E7002809DB00F01F020121CE
:1009F00091404009800000F1E020C0F8801270476B
:100A0000002809DB00F01F0201219140400980000D
:100A100000F1E020C0F800117047002809DB00F069
:100A20001F02012191404009800000F1E020C0F840
:100A3000001270474907090E002804DB00F1E0208E
:100A400080F80014704700F00F0000F1E02080F8FB
:100A5000141D704702E008C8121F08C1002AFAD10D
:100A600070477047002001E001C1121F002AFBD12E
:100A70007047022000F08CB970B50024064D06E0E6
:100A80006868012110F8340001F014FE641C287815
:100A90008442F5D3002070BD28000020F8B515462B
:100AA0000C460646052A01D20720F8BD01F0FAFEE1
:100AB00018B901F0BDFE0028F7D1124900224E609E
:100AC0000C708D60C1E90422C1E906220E4D0DE0D3
:100AD00006EBC4002968009181788DF80110007838
:100AE0000A4A694601F032FE0028DED1641EE4B2F3
:100AF000EED2BDE8F84004480021054A001D00F090
:100B00007BB8000028000020902E0000AD150000EA
:100B1000C114000072B601F059FC00BF01F0AEFA3A
:100B20000028FBD111481249401AC408012000EBEB
:100B3000044010A101F0BAFB11480068C00700D0C2
:100B400000BE022000EB04400EA101F0AFFBBFF39A
:100B50004F8F0B48E43801680E4A01F4E0611143FD
:100B60000160BFF34F8F00BFFDE70000A830000019
:100B700070300000466174616C206572726F7200A3
:100B8000F0ED00E053797374656D207265736574E0
:100B9000000000000400FA050EB500210091CDE927
:100BA00001106A4644F20100FFF7B4FF0EBD0000D9
:100BB0000A480B4910B5401AC008032101EB004058
:100BC00008A101F073FB00BF01F058FA0028FBD127
:100BD000BDE81040012000F0DBB80000A8300000A4
:100BE000703000006170705F7469636B5F68616E84
:100BF000646C65722E000000074B9B7823B12AB10C
:100C000020B10068037C1BB10820704707207047A3
:100C10004174426100207047F401002070B501F07A
:100C2000CDFE104800240B21047044700E4D8170DD
:100C300014206C602C706C70FFF7D5FE0621142018
:100C4000FFF7F8FE1420FFF7DBFE084804600621DA
:100C50001120FFF7EFFE0548001F0068A860002084
:100C600070BD0000F401002048000020081501407C
:100C70002DE9F843DFF8709099F802305BB350B378
:100C8000052902D20720BDE8F88343691BB3437CE2
:100C9000012B22D000270446002588461646284608
:100CA00000F036F8684602F05BF8C0B1012101702F
:100CB0000E4944600968C0E90218C0E904769DF84D
:100CC000000089F80100002000F024F81420FFF74C
:100CD000A4FE2846D7E70820D5E70F46DBE7042522
:100CE000002000F017F8F4E7F4010020041501409B
:100CF0000649897839B130B1416921B100210174C7
:100D0000022101F079BF082070470000F4010020A3
:100D100000F002B800F008B872B602480168491C39
:100D2000016070475C00002003490868401E0860AD
:100D300000D162B6704700005C0000202DE9FC4144
:100D40000646C0074FF000050ED0104F00240122C8
:100D5000385D009500231146019501F01BF8641CD5
:100D6000042CF4D300F04EF8B0070DD5074E002444
:100D7000361D0022305D032300951146019501F0D8
:100D800009F8641C042CF4D3BDE8FC81542E000047
:100D9000094908B5085C0090684601F045F8D0F8AC
:100DA0000425009B0121994021EA0203C0F808357F
:100DB0001140C0F80C1508BD542E00000249085C13
:100DC000012101F058B80000542E00000249085CCF
:100DD000002101F050B80000542E0000084908B569
:100DE000085C0090684601F01FF8D0F804050099EF
:100DF000C84010F0010000D0012080F0010008BDC3
:100E0000542E000010B500242046FFF7D7FF641CC5
:100E1000042CF9D310BD10B500242046FFF7D6FFEF
:100E2000641C042CF9D310BD10B50246064B4FF0DC
:100E3000FF3000215C5C944201D1084610BD491C82
:100E40000429F7D310BD0000582E00002DE9F0470B
:100E50000D468146FFF7E8FF0446042836D2DFF846
:100E600074801B481C4EA8F10C0725B3012D0ED031
:100E7000022D2BD104EB440030444578002D25D0C1
:100E8000B968002922D02846BDE8F047084704EB9E
:100E90004401755C0E44717849B10E4A4FF400412B
:100EA000093A8068FFF7E4FE08B987F80390B17843
:100EB00008F80410E2E78068FFF71AFF04EB44012A
:100EC000314418F804008D78A842D7D0BDE8F087E7
:100ED0005C2E0000100000202801002070B524497D
:100EE000244A254E891AC90803220124234D02EB06
:100EF00001420A2814D00B2825D00C280FD1104607
:100F00001FA101F0D3F900BF01F0B8F80028FBD110
:100F1000FFF754FF0120FFF751FF2348046070BD25
:100F2000104622A101F0C2F901F0A8F80028FBD177
:100F30003068FFF7DDFE08B1FFF72EFE0120FFF756
:100F40003DFF2C7070BD104621A101F0AFF900BF2C
:100F500001F094F80028FBD100224FF48041306862
:100F6000FFF786FE08B1FFF717FE0020287070BD5E
:100F7000A830000070300000502E0000000000205B
:100F80006273705F6576656E745F68616E646C65D0
:100F9000723A204253505F4556454E545F53595361
:100FA0004F46462E00000000000500406273705F4F
:100FB0006576656E745F68616E646C65723A204236
:100FC00053505F4556454E545F534C4545502E0097
:100FD0006273705F6576656E745F68616E646C6580
:100FE000723A204253505F4556454E545F57414B2D
:100FF0004555502E0000000070B50023042810D283
:101000000D4D00EB4004012A02D101290CD0002231
:10101000094E00EB4000304461B1012906D002299D
:1010200006D00723184670BD0E30C2B22A55F9E724
:101030004270F7E78270F5E72801002070B5064698
:101040001E480024C0E90161B00720D50025012217
:1010500011462846FFF7D0FF6D1C0446042D02D22E
:10106000002CF4D013E094B940F2666204211448D5
:10107000FFF714FD04000AD1FFF7FEFC040006D1BF
:101080000F48104A0021001FFFF7B6FD0446F00785
:1010900012D00120FFF752FE74B909480A4A002114
:1010A0000C38FFF7A9FD040006D10548074A0121C5
:1010B0000838FFF7A1FD0446204670BD040000205B
:1010C000682E00005513000051170000730A00003D
:1010D0002DE9F05F6E4C054600266078B34618B1E6
:1010E00084F801B000F01CFB6A4F4FF47A694FF4AA
:1010F000C87A4FF00108182D69D2DFE805F00C130B
:1011000013384754696E727B727BC58484848484EF
:10111000B3B6B9BCC5C500F003FB3868FFF7E8FDFE
:1011200006465CE00020FFF759FE00284FF0000063
:1011300008D0FFF743FE022D02D14FF4E16008E032
:10114000484606E0FFF742FE022D01D1C82000E02C
:101150005046410CC0034FF4FA72801841F100016F
:10116000257052000023FFF7D9F801462AE000203D
:10117000FFF734FE00284FF0000004D0FFF71EFEFA
:101180004FF44870E5E7FFF721FEDFE70020FFF7A7
:1011900025FE00284FF0000002D0FFF70FFECFE73A
:1011A000FFF714FED4E70020FFF718FE00284FF0E9
:1011B000000002D0FFF702FE01E0FFF707FE2570F6
:1011C00041F69A1100223868FFF752FD064646E0C4
:1011D0000020FFF7DDFD257008E0002051E02570BC
:1011E0003DE084F801800120FFF7D2FD002240F6A7
:1011F000CD41E8E784F801800120FFF7C9FD002216
:101200004FF48041DFE77868FFF772FD0646D5F1BD
:10121000110000D02EB10220FFF7D0FD84F802B0FB
:101220001DE0012816D980B2C8214843C117C9035F
:1012300041EA5041C0034FF4FA72801841F10001B5
:1012400052000023FFF76AF8014600227868FFF792
:101250000FFD06460220FFF7B9FD84F802803046F4
:10126000BDE8F09F00F05CFAB9E700F059FAB4E786
:1012700000F056FA04E000F053FA0020FFF7A6FD54
:101280000120FFF7A3FDAAE7FFF7C5FDA7E70000D0
:10129000040000205C2E00002DE9F0470546861C66
:1012A00090460F464FF001090020FFF731FD1B4C1F
:1012B00020683860D4E90001401AA16804F21C4794
:1012C000081A0EE00121384600F096FB00F0C6FA3D
:1012D0000146384600F090FBD4E90001401AA168AD
:1012E000081A401C8642EDD8B8F1000F03D0052043
:1012F00065F3891002E0062065F39F50A26821681B
:10130000114004EB8101C860206830442060002057
:10131000FFF700FD4846BDE8F0870000A404002068
:1013200030B482680468531C8360A154D0E9011270
:101330008A4202D330BC00F034BC30BC704700009D
:10134000034803C8814201D1012070470020704743
:10135000A404002000780221FFF778BD05494FF072
:10136000FF32082841F8202002D3084480F8582092
:101370007047000068010020F0B54FF0FF3512B152
:101380000023082601E008230C260C4C05E000BFD2
:1013900054F823707F1C04D05B1CB342F8D328465A
:1013A000F0BD26185DB286F8305044F82310002AAC
:1013B000F5D1E11881F85800F1E70000680100203C
:1013C0000249084490F9300070470000680100208D
:1013D00070B5084C050009D010342168002907D0E9
:1013E00008682060496828468847F6E70834F4E72B
:1013F00070BD000054010020054A012120B10128E0
:1014000005D19170FFF7E4BF51700020FAE77047F3
:10141000540100202DE9F05F26484168F1B3DFF860
:1014200098B00E688146DBF8004087688078E11B41
:1014300021F07F45ED1CB0B9DFF880804FF480309B
:10144000C8F84403C8F804031120FFF7CCFA1120B0
:10145000FFF7D6FA4FF0010AC8F800A02F2001F0DC
:1014600021F989F802A0B54200D23546124BE8199D
:101470003C3320F07F401860DBF800105A46091B0F
:1014800021F07F41001B20F07F40C91C81420FD911
:10149000106818602F2001F005F900E004E0BDE8B5
:1014A000F05F1120FFF7B9BABDE8F05F01F086BA2E
:1014B000BDE8F09F480000200415014000100140E5
:1014C0002DE9F0470025DFF88C803CE060680021C2
:1014D00000EBC506012032789146FEF750FFD4E9B3
:1014E000062300EA020701EA030C57EA0C0728D09A
:1014F00082438B434846C4E9062301F091F93278D0
:101500008246914601200021FEF739FFD4E90423E9
:1015100000EA020401EA03074A4650460021FEF7AA
:101520002EFF44404F403C430BD17078012801D03E
:10153000012100E00021726881EA0A010AB14846EF
:1015400090476D1CEDB298F8000044468542BDD32B
:10155000BDE8F0872800002010B50021024800F007
:1015600056FA80F3100010BDC00800200E4910B5D7
:101570000A784C780023A24212D0521CD2B20A70D0
:10158000022A00D10B70084A0B780C3252F8232043
:1015900002608868104420F07F408860012010BD00
:1015A0000360002010BD0000480000202DE9F0413C
:1015B0008046024601200021FEF7E1FE1A4F054653
:1015C0000E467868FFF794FB00280CD1174CD4E93D
:1015D000062110462A4001EA06031A4305D0A84313
:1015E000B143C4E90601BDE8F081404601F018F9B5
:1015F00030B1D4E9040128433143C4E9040105E0D2
:10160000D4E90410A943B043C4E90410D4E90601A5
:1016100028433143C4E90601A1687868BDE8F04178
:101620000022FFF725BB0000902E000028000020BC
:101630002DE9FC5F0E008346DDE90C47C6F1000092
:1016400098469246814600D40846012503E000BF33
:1016500090FBFAF06D1C5045FADAA84500D94546D2
:1016600024B1002E01DB780700D5641EB80702D52F
:10167000B8F1000F0AD0F80708D13CB1A54205D255
:1016800020215846641EFFF74BFEF6E7002E02DAD3
:101690004E462D2102E0780703D52B215846FFF74F
:1016A0003FFE07F0030002280BD1B8F1000F08D16C
:1016B0003CB1A54205D230215846641EFFF730FEEA
:1016C000F6E7CDE90047434652463146584601F019
:1016D000EDFABDE8FC9F024600201268530713D5BF
:1016E00002F00300012802D002280CD105E0C2F369
:1016F00083100B68801C184404E00223086803EB85
:10170000925210440860012070470268134602E0BC
:101710008A4204D01268002AFAD10B600160704737
:101720000A4810B5807860B1002401E0022C06D090
:101730002046FFF743FB641C042CF7D310BD0324A1
:10174000F6E7BDE81040FFF75DBB00000400002095
:1017500003480179C90702D00078FFF7B9BC704788
:10176000040000202DE9F047394E002780463D4611
:10177000DFF8E090D6F804A057E003D00446D0F894
:101780001C8035E099F8002002EB4201521CD2B2D5
:1017900089F8002009EBC10199F80230091D9A422D
:1017A00001D189F8005048680A780446012A12D00D
:1017B000022A02D0032A3BD108E001F0EDF900B182
:1017C0000127257434E00574C06900E070680028C2
:1017D000F9D170602CE0207C50BB88686060C868DC
:1017E000A0600869E0604869A061F07800B16560B8
:1017F0006268B168184B501A20F07F40984202D2BC
:10180000A168084406E0881AA16820F07F40814260
:1018100002D9081A206000E0256065600120A560FB
:1018200020742046E56101F099F9B8F10000A4D1D7
:1018300099F8001099F801008142A3D117B9716895
:10184000514502D00120BDE8F0870020FBE70000F1
:1018500048000020F4010020FFFF7F002DE9FF4138
:101860000026234800F0C5F82148001F074600F075
:10187000C0F8204C60680090A56800E000986946B8
:10188000284004EB80000C30FFF725FF0028F5D13D
:1018900001AA009901EA050304EB8303491CDB68F4
:1018A00042F82030401C00910228F2D3019800F049
:1018B000030001280BD0022810D10198032101EB6D
:1018C00090500099BDF80A6001EB900005E0019886
:1018D000BDF80A60C0F3831008440090384600F059
:1018E00085F808B10098606004B03046BDE8F0812A
:1018F000BC080020A404002001F04AFA09480A4963
:10190000401AC008032101EB004008A100F0CEFC02
:1019100000F0B4FB0028FBD1FFF758FA00F04AFEB4
:10192000FCE70000A8300000703000006D61696EB7
:1019300020737461727465642E0000002DE9F04715
:10194000C5881E1DB6FBF5F78946B6FBF5F10446C2
:1019500005FB176C407916686843DDF820A0F7187E
:10196000001F874200D9C61A166001E02468491E8C
:101970000029FBD1A5EB0C078846B74216D818E022
:1019800004EB0C00001D09EB0803BAF1000F3A4606
:1019900002D00146184600E01946FEF703FD246810
:1019A000F61B4FF0000CB844B54201D9374600E0B1
:1019B0002F46002EE4D1BDE8F087000030B5024686
:1019C00051B100F0EBFC0021074C08E034F8213065
:1019D0001568AB4202D11160002030BD491C814224
:1019E000F4D3052030BD000000000000002100F00D
:1019F00009B8012100F010B808B56A46FEF73DFCB1
:101A0000009808BD08B56A46FEF71DFC08BD08B57C
:101A10006A46FEF7FFFB08BD08B56A46FEF706FCFE
:101A2000009808BD08B56A46FEF734FC009808BD6A
:101A300070B5044600252846FFF76AF921686268F8
:101A4000086890420ED9401E08600178238AE26837
:101A500001FB0325227A2168101AC0B20A7982425A
:101A600000D208710020FFF755F9284670BD70B507
:101A700005460C460020FFF74BF9E868298A201A32
:101A8000B0FBF1F12A681068431C13600170BDE8D7
:101A900070400020FFF73EB910B530B1017A4268BE
:101AA0000368891AC9B21A6006E00E2010BD0368E7
:101AB0001A68541C1C601170491EC9B2F7D2006824
:101AC00000210171084610BDC20800F00703012083
:101AD000895C98400840704710B5C20800F00703C1
:101AE000885C01249C402043885410BD00F1804054
:101AF0000068002800D00120704708B500F1804040
:101B0000002101600068009008BD000070B50A4C1B
:101B1000207808B185250CE00020A060606020617D
:101B2000E060064800F09EFD054600F083FD0120C0
:101B30002070284670BD000054010020F9130000F9
:101B400070B5104D0446A87838B114B16168012011
:101B500088470020FFF7DCF80CE00020FFF7D8F8FA
:101B600024B1084821461030FFF7CFFDE86808B9D6
:101B700000F088FDE868401CE860BDE87040002087
:101B8000FFF7C8B8540100200FB408B50399002925
:101B900004D004AA00926A4600F00FF801B05DF884
:101BA00014FB10B582680446002A05D0D4E904036A
:101BB000216898470020A06010BD2DE9FC479146A0
:101BC0000C00804676D014F8011B39B125290ED0BF
:101BD0004046FFF7A5FB20780028F4D198F80C00C8
:101BE000002867D04046BDE8FC47FFF7DABF002079
:101BF000012221782B291BD02D2902D0302908D190
:101C000002E040F0010001E040F00200641C002A04
:101C1000EFD100252A290ED02178A1F130020A2A1D
:101C200011D205EB850201EB4205641C303DF1E762
:101C300040F00400EAE7D9F800100B1DC9F80030A5
:101C40000968641C0D44217800232E290BD114F857
:101C5000011FA1F130020A2A05D203EB830201EB36
:101C60004203303BF3E76C290DD068290BD069297A
:101C700021D00BDC252918D0582931D063290ED06A
:101C8000642915D117E014F8011FECE7702969D019
:101C9000732932D075291BD0782909D120E0D9F8D1
:101CA0000000011DC9F8001001784046FFF738FB1D
:101CB000641C90E76CE0D9F800100A1DC9F80020F8
:101CC0000968CDE900500A224046FFF7B1FCEFE772
:101CD000D9F800100A1DC9F8002009680A2206E098
:101CE000D9F800100A1DC9F8002009681022CDE9B2
:101CF0000050404600F0DAFFDAE7D9F8001000277C
:101D00000A1DC9F800200E68C00705D112E0404640
:101D1000761C7F1CFFF704FB31780029F7D104E023
:101D2000202140466D1EFFF7FBFABD42C0D9002DB1
:101D3000F6D1BDE74EB13046FEF758FB074604E04A
:101D4000202140466D1EFFF7EBFABD4206D9002D5B
:101D5000F6D103E04046761CFFF7E2FA317800291D
:101D6000F8D1A5E7D9F80000011DC9F800100568F1
:101D700030214046FFF7D4FA78214046FFF7D0FAE9
:101D800008200021CDE90001034610222946B0E7D2
:101D9000BDE8FC872DE9FF411C46DDE90A781546C0
:101DA0000E46684600F040F846EA450141EA8401E3
:101DB00041EA072242EA0841009A00EB8200C0F89B
:101DC0000017BDE8FF812DE9FF411C46DDE90A78D7
:101DD00015460E46684600F035F846EA450141EAE8
:101DE000840141EA072242EA0841009A00EB82009E
:101DF000C0F80017BDE8FF8113B50C46684600F037
:101E000021F8009900EB8101D1F8002722F440323B
:101E1000C1F80027009900EB8100D0F8001741EAD3
:101E20000441C0F800171CBD0168202902D24FF000
:101E3000A040704701F01F01016001487047000099
:101E4000000300500168202902D24FF0A0407047E3
:101E500001F01F01016001487047000000030050BD
:101E600001B56846FFF7EEFFD0F810050099C840AD
:101E700000F0010008BD38B501240090684631B17A
:101E8000FFF7D2FF00998C40C0F8084538BDFFF736
:101E9000CBFF00998C40C0F80C4538BD1CB5094CEF
:101EA0000144D4E90034CDE900346C4606E000BFBB
:101EB00054F82030D3F81035401C08C28142F7D8BE
:101EC0001CBD0000882E0000034908B5084400210D
:101ED00001600068009008BD006000400249405861
:101EE000012800D0002070470060004030B5154A3E
:101EF00001460020D2F8104423460AE0DB681D7931
:101F0000854205D1401C0A28F6DB4FF0FF3030BD7A
:101F10001B68002BF2D1431CF9D0CB681871D2F8A2
:101F2000103443B1DB68CC681B682360D2F81024FE
:101F3000D268116030BDC2F81014C96800220A606E
:101F400030BD0000A40400207047FEF799BB704725
:101F500008B5034A00924023024A00F005F808BD84
:101F6000012A00000C030020F0B595B01C46154670
:101F70000F4608461A9E00F0E3FA182109A8FEF75A
:101F80002AFA0E96CDE909540023082203A93846FF
:101F900000F0EBFA05980690BDF81000ADF81C00B3
:101FA000BDF81200ADF81E0000208DF82100039846
:101FB000082600F00300012802D0022818D032E0E1
:101FC00003983346850AC0F3C2008DF820000398B9
:101FD0000FA9C0F38314A200384600F0C6FA09A87E
:101FE000009006AB22460FA9284600F005FA1AE039
:101FF0000398840DC0F3C2008DF82000082C01D294
:10200000254600E0082533462A460FA9384600F049
:10201000ACFA2E44641B09AB06AA29460FA800F0AF
:1020200049F9002CEAD1384600F090FA15B0F0BD1D
:102030000A4A012902EBC00007D0022907D0032970
:1020400007D0042907D000207047022070470420E1
:102050007047007970474079704700007030000089
:1020600010B5FFF772FF04210348FFF73FFF024955
:102070000120C968487110BD603000002DE9F047AB
:102080008CB0FFF75DF918B100200CB0BDE8F08707
:102090007D4C0020C4F81804BFF34F8F6068029095
:1020A000A5684FF00008284004EB80000CE000BF5A
:1020B000D4F8180470B921680298814201D861608F
:1020C000E2E7284004EB80000C3002A9FFF703FB95
:1020D0000028EDD1002003AA029901EA050304EBD0
:1020E0008303491CDB6842F82030401C029102281F
:1020F000F2D3039800F00300022802D001284DD04B
:10210000A7E003985022810D8946B2EB905F00D87A
:1021100050210E4666F39F50039008315B4800F053
:10212000C6F9070078D000F00BFA4346082203A94D
:10213000384600F022FA029908F1080A2940681A84
:102140008000001D864222D94F4D0C3530B1C2B2FD
:1021500004EB8101301A90460C3104E02946F2B2BA
:10216000002590462846C6B25346384600F005FA88
:102170000AEB080325B132462946384600F0FDF93E
:10218000029909F1030001EB900002903BE004EB9F
:1021900081015346324638460C31EFE70398C0F3CD
:1021A0008310062800D30620039960F38911C1F338
:1021B0008310801C03918100344800F078F90700F7
:1021C00047D000F0BDF94346082203A9384600F085
:1021D000D4F908F1080800260FE00298434600EA07
:1021E0000501401C04EB81010290042238460C31A9
:1021F00000F0C3F908F10408761C0398C0F38310BB
:10220000B042EAD847B1D4F81054D4F8180478B1E1
:10221000384600F09BF931E01BE0E868407901287E
:1022200004D12A682846394612689047E86805684C
:10223000002DF2D1384600F089F90020FEF768FD44
:10224000D4F8180408B9029860600020FEF762FD17
:1022500014E0D4F8104405E02168204689688847D6
:10226000E0680468002CF7D109480A49401AC00800
:10227000022101EB004008A100F018F8FFF760F818
:1022800080F0010001E70000A4040020B03000004D
:10229000A8300000703000004261636B656E6473AB
:1022A00020666C75736865640000000000231A46A0
:1022B00000F0CEBB2DE9F0470E4680461C46924604
:1022C00008293ED894F80C90002020731946104637
:1022D00000F028FB0025B54206D218F805201AA107
:1022E0002046FFF751FC03E019A12046FFF74CFC04
:1022F0006D1C082DEFD317A12046FFF745FC0025E4
:10230000B54210D218F80570FEF748F80068C05DB5
:1023100010F03E0F01D03A4600E02E220EA12046DA
:10232000FFF732FC03E00DA12046FFF72DFC6D1CEA
:10233000082DE5D301222146504600F0D5FA84F855
:102340000C90BDE8F08700002025303278000000B6
:10235000202020007C0000002563000020000000F9
:102360000B4810B5FF218160002101604160C0F879
:102370001814C0F8141480F82014064800F0E4F88B
:10238000002803D1044800F02FF9002010BD000000
:10239000A4040020B0300000F82E000002480349D9
:1023A000401AC00870470000B030000070300000D4
:1023B00013B56846FFF702FB08B100201CBD0248B8
:1023C000009950F831001CBD7030000070B509480C
:1023D0000125D0F8104480F8205407E0E0684571EA
:1023E0002168204649688847E0680468002CF5D1D8
:1023F00070BD0000A40400202DE9FF4781460C9D1C
:1024000000200C462F7B287398461646294618460E
:1024100000F088FA072E42D2DFE806F004090F1612
:102420001F2A360049462846FFF7AEFB37E04946EB
:1024300028462268FFF7A8FB31E0D4E9002349468B
:102440002846FFF7A1FB2AE0A0680090D4E900230A
:1024500049462846FFF798FB21E0D4E90201CDE97F
:102460000001D4E9002349462846FFF78DFB16E01A
:1024700004F1080007C88DE80700D4E900234946A5
:102480002846FFF781FB0AE004F108000FC88DE839
:102490000F00D4E9002349462846FFF775FB0022C8
:1024A0002946404600F020FA2F73BDE8FF872DE94A
:1024B000F041058A80462D1F4819C01CB0FBF5F07D
:1024C000C6B24046FFF7B4FA041E19D000202071AE
:1024D00001206071E58000272546761EC4F8008043
:1024E0000BE04046FFF7A4FA60B16179491C6171C5
:1024F000286005467F1CC0F80080B742F1D3204613
:10250000BDE8F081204600F002F80020F8E72DE950
:10251000F041457901466B1E002201E00968521C1A
:102520009A42FBD30F680146002605E038460C6846
:10253000FFF79DFA2146761CAE42F7D3BDE8F08145
:102540000121001DFFF758BAFFF7A6BA10B50446DF
:102550000121001DFFF766FA10F0FF0F04D120469D
:10256000BDE81040FFF7D3BF10BD1CB5019201229A
:10257000009201AAFFF7E2F91CBD1CB501920022EE
:10258000009201AAFFF7DAF91CBD0000064910B558
:1025900000204870091D0860BFF35F8F034904489D
:1025A00000F030F8002010BD60000020D02E0000A8
:1025B0000003002010B50020FEF7AAFBF1EE100A80
:1025C00020F09F00E1EE100ABFF35F8F0549402025
:1025D000C1F880020020FEF79DFB20BF40BF20BF56
:1025E00010BD000004E000E0826800219160826874
:1025F0001161826851618268D1608268516080682F
:1026000001607047016009684160AFF3008010B558
:10261000D0E900215368994201D1002104E0D1E9B9
:102620000034A34202D01946816010BD08314160D8
:10263000F0E7000009480068012110F0010F08D1FF
:102640004FF0E020C02280F80024C0F880128430CF
:10265000C1670349012008607047000000E100E005
:10266000180500400649024600200B790BB1852071
:1026700070470A6001220A7100224A717047000007
:102680001400002010B54FF48270FFF736FA0220D4
:102690004107C1F8040302490120086010BD000091
:1026A00008000040002802D0014980010847704717
:1026B000A12E00002DE9F0410E46804600F0FCF806
:1026C000204D0028404616D0FEF77AFE284490F8A8
:1026D00058008009032802D001280AD003E04046B0
:1026E000FFF7BEFB28B103214046BDE8F041FFF7EC
:1026F00083BB0221F8E700F0EBF8002820D0404629
:10270000FEF75EFE0446104F4FF4807007EB840125
:1027100000EB8400D1F8102580B242F00102C1F82C
:102720001025FFF7D1FB002E0AD04046FEF748FEE9
:1027300055F82000002803D00120A040C7F804036A
:10274000BDE8F08168010020006000402DE9FC41F7
:10275000DFF8C080044608EB0400002790F9300041
:102760001346C0170E46401C01D008274FE0B07832
:102770001946C0F340022046FEF7FEFD0546401C08
:1027800044D0B07841071CD4C0070DD068460094EF
:10279000FFF758FB009900EB8100D0F8001721F0FB
:1027A0000201C0F8001707E000217378204600916D
:1027B0000A460191FFF707FB164920466431FFF7EF
:1027C0008BF9B078800718D51348317800EB850075
:1027D000D0F81025114B1A40C0F810254FF47C5248
:1027E0004FF4403302EA042203EA01410A43D0F8DD
:1027F00010150A43C0F8102509E008EB05003278EF
:1028000010F8581F41EA8211017000E00427384691
:10281000BDE8FC816801002000600040FFC0FCFFB3
:1028200010B5FFF71DFB002800D0012010BD0000EF
:1028300070B5194D95F86A0008B1082070BD0020E8
:10284000411E2A18401CC0B282F830103028F8D33C
:1028500000242046FEF782FD641CE4B20C2CF8D361
:102860000D490024C0204C66A1F868400B4981F84E
:10287000000401264020891FC1F880028431C86706
:102880004FF4BE70FFF720FB0549F007C1F80403C1
:1028900085F86A60204670BD6801002006E000E00F
:1028A00000600040034890F86A00002800D0012032
:1028B00070470000680100200449084490F9300086
:1028C000082801DB012070470020704768010020C4
:1028D0000449084490F93000082801D201207047CB
:1028E000002070476801002010B50C46017A0529C8
:1028F00008D0407A38B1084808A102682046FFF79E
:1029000043F900E01AB106A12046FFF73DF9204641
:10291000BDE81040FFF745B9A00000202573000076
:102920000D0A000038B5C3880D46044633B114A023
:10293000009015A216A12846FFF726F9217A05294D
:102940001CD0607A48B1A088FFF772FB164951F895
:10295000202016A12846FFF717F9A0880021FFF7CD
:1029600027FD03461049207A143951F8202001B080
:102970002846BDE830400EA1FFF706B938BD00007B
:102980001B5B306D000000001B5B313B33316D0081
:1029900025734C6F67732064726F707065642028B4
:1029A00025642925730D0A00A0000020257300006E
:1029B0003C25733E2025733A2000000070B50126A7
:1029C00070044FF0E0210025C1F88001BFF34F8F64
:1029D000BFF36F8F084C4010C4F84803C4F80803D5
:1029E00066602F20FFF75EFEA660044C2F20A560D6
:1029F000FFF758FEA57070BD001001404800002090
:102A00002DE9F0411400884618D000250E4F03260A
:102A100008EB050122460020FDF734FE0544241A88
:102A200040B93878002809D008494FF47A408847DF
:102A3000761E05D001203870002CE9D1BDE8F08168
:102A400000203870FAE7000068000020F12E000036
:102A50002DE9F84F204D92468946064698460122B8
:102A600069461846AF68FEF717FC58B30098002176
:102A70000446801C09E000BF00EA07035AF8212041
:102A800005EB8303401C491CDA604145F4D34FEA4F
:102A9000164AFEF761FD4AEA0041601C384005EB2A
:102AA00080003C4005EB8402C160D06866F3C5003D
:102AB00068F3891069F39F2020F00300401C20F088
:102AC0000400D06095F8200402E000BFFFF7D6FABA
:102AD0000028FBD1BDE8F88FA40400202DE9F84FB1
:102AE0001D4C00256846D4E901A6FEF73FFD0027EE
:102AF00038B30023009A61681CE0D1F800C0084692
:102B0000944503D9ACEB02020A6015E0A2EB0C027B
:102B100063440760D0F80CC0C1698146BCF1000F66
:102B200008D006EB030828F07F48C0E9018CC9F8FB
:102B30001C5005460029E0D128466160FEF712FED0
:102B400003E02846FEF70EFE10B15046FEF762FC89
:102B5000E770BDE8F88F0000480000200D4B10B56D
:102B6000596831B102680C68A24204D8A21A0A60FE
:102B7000C161586010BD0B4603E00B46C969121BCA
:102B800021B10C689442F8D3A41A0C600260C161B0
:102B9000D86110BD480000202DE9F041144E77683F
:102BA0003D462C4603E0844204D02546E469002CCF
:102BB000F9D11BE0D4B1A5420BD1F869706040B9DE
:102BC0000C49012088600021B160F0702F20FFF7D0
:102BD00069FD2168E069E86110B102681144016093
:102BE0007068874202D00120BDE8F0810020FBE739
:102BF0004800002000100140F8B5064600240D46AC
:102C00002046FEF785F8684600F0AAF868B105701E
:102C1000084946609DF8000048700020FEF77AF8E9
:102C20001420FDF7FAFE2046F8BD04240020FEF72C
:102C300071F8F8E7F40100202DE9F041194D6C68B6
:102C4000002C2CD0184800270068A968B846401A04
:102C500020F07F462068B0420CD82146361A07443F
:102C6000E469087C20B181F8108088694969884747
:102C7000002CEFD129786878814206D1401CC0B27F
:102C80006870022801D185F80180064869780C3007
:102C900040F82170BDE8F0411420FDF7BEBEBDE84C
:102CA000F081000048000020041501402DE9F05F8C
:102CB0008346DDE90A4A994690460D4608460127B3
:102CC00003E000BFB0FBF8F07F1C4045FAD2B945E5
:102CD00000D94F465FEACA7012D18CB15FEA8A70A0
:102CE00002D5B9F1000F01D0202607E0302605E01B
:102CF00031465846641EFEF713FB0CB1A742F7D3CA
:102D00005FF00106B9F1010F02D9A9F1010903E051
:102D1000B5FBF6F0404502D306FB08F6F2E7DFF814
:102D20003C9000BFB5FBF6F000FB165519F80010FB
:102D30005846FEF7F5FAB6FBF8F6002EF2D15FEA38
:102D4000CA7009D0002C07D0A74205D220215846CE
:102D5000641EFEF7E5FAF5E7BDE8F09FA62E000039
:102D60000A494A788B78521CD2B2934200D1002291
:102D70000B78934201D1002070470270487800EB35
:102D8000400001EBC000001D70470000F40100206E
:102D900010B54FF400410020FFF7E2FA08B1FDF74B
:102DA000FBFEFFF75DF9FFF7F1FB08B1FDF7F4FE5D
:102DB000FEF7ACFE08B1FDF7EFFE0020FEF7C0FE07
:102DC000FDF72CFF08B1FDF7E7FE1E490320FEF7D3
:102DD00035F908B1FDF7E0FE00210A220846FEF7AA
:102DE0000BF908B1FDF7D8FE0B2200210120FEF7F8
:102DF00003F908B1FDF7D0FE0C2200210220FEF7F6
:102E0000FBF808B1FDF7C8FE0B2200210320FEF7F6
:102E1000F3F808B1FDF7C0FE0B4A01210B48FDF79E
:102E2000EBFE08B1FDF7B8FE084800224FF48041E0
:102E30000068FDF71DFF002803D0BDE81040FDF736
:102E4000ABBE10BDDD0E0000B10B0000502E000027
:102E5000C80000200D0E0F100B0C1819E800002000
:102E600008010020340100200B0003004D0E00007B
:102E70000C0003004D0E0000180003004D0E000072
:102E8000190003004D0E0000000000500003005028
:102E900003000000D401002000000000000000003A
:102EA0000338FDD87047303132333435363738394E
:102EB000414243444546000000000000000000007D
:102EC0000000000000000000000000000000000002
:102ED000B82E0000D02E000004000000511F00009A
:102EE0004F1F0000491F000000000000000000000C
:102EF0000338FDD8704700000C0400207F0000005C
:102F00008C0400200040404040404040404041414F
:102F100041414140404040404040404040404040AE
:102F20004040404040050202020202020202020248
:102F30000202020202202020202020202020200245
:102F400002020202020290909090909010101010D5
:102F50001010101010101010101010101010101071
:102F60000202020202028888888888880808080805
:102F700008080808080808080808080808080808D1
:102F80000202020240000000052F00007761726E0D
:102F9000696E670064656275670000001B5B313B0A
:102FA00033306D001B5B306D000000001B5B313B5C
:102FB00033316D001B5B313B33326D001B5B313BAA
:102FC00033336D001B5B313B33346D001B5B313B96
:102FD00033356D001B5B313B33366D001B5B313B82
:102FE00033376D00696E666F000000006572726FA6
:102FF00072000000636C6F636B000000434C4F4332
:103000004B0000004750494F5445000050525300B8
:1030100055415254000000005541525445000000F3
:103020007077725F6D676D74000000007274745F7A
:103030006C6F675F6261636B656E640061707000E6
:10304000C430000000000020C8000000540A000046
:103050008C310000C8000020882A0000640A0000AB
:10306000DC2E0000000000002C3000006C0000206E
:10307000F42F000000000000FC2F00000000000002
:1030800004300000000000000C30000000000000D0
:1030900010300000000000001830000000000000A8
:1030A00020300000000000003C300000000003035E
:1030B0007C000020740000207C0000204C030020D5
:1030C00018000000000000000000000000000000E8
:1030D00000000000000000000000000000000000F0
:1030E00000000000000000000000000000000000E0
:1030F00000000000000000000000000000000000D0
:1031000000000000000000000000000000000000BF
:1031100000000000000000000000000000000000AF
:10312000000000000000000000000000000000009F
:1031300000000000FF000000000000000000000090
:10314000000000000000000000000000000000007F
:1031500000000000EC2F00008C2F0000E42F000086
:10316000942F0000A42F00009C2F0000AC2F000023
:10317000B42F0000BC2F0000C42F0000CC2F000093
:0C318000D42F0000DC2F00000090D003D2
:0400000500000201F4
:00000001FF
