:020000040000FA
:10000000C0200220F90200000103000003030000E9
:1000100005030000070300000903000000000000C2
:100020000000000000000000000000000B030000C2
:100030000D030000000000000F030000110300008A
:10004000130300001303000059140000C91100003D
:100050001303000013030000130300001303000048
:1000600041140000130300001303000013030000F9
:100070001303000013030000130300001303000028
:100080001303000013030000130300001303000018
:100090001303000013030000130300001303000008
:1000A00013030000130300001303000013030000F8
:1000B0001303000013030000000000000000000014
:1000C00013030000130300001303000013030000D8
:1000D00013030000130300001303000013030000C8
:1000E00013030000130300001303000000000000CE
:1000F00000000000130300000000000013030000D4
:1001000000000000000000000000000000000000EF
:1001100000000000000000000000000000000000DF
:1001200000000000000000000000000000000000CF
:1001300000000000000000000000000000000000BF
:1001400000000000000000000000000000000000AF
:10015000000000000000000000000000000000009F
:10016000000000000000000000000000000000008F
:10017000000000000000000000000000000000007F
:10018000000000000000000000000000000000006F
:10019000000000000000000000000000000000005F
:1001A000000000000000000000000000000000004F
:1001B000000000000000000000000000000000003F
:1001C000000000000000000000000000000000002F
:1001D000000000000000000000000000000000001F
:1001E000000000000000000000000000000000000F
:1001F00000000000000000000000000000000000FF
:10020000DFF80CD000F004F9004800479D330000EF
:10021000C020022030B4044654E8000F0D4644E8E4
:100220000053002BF8D1156030BC704730B4044641
:1002300054E8000F40EA010544E80053002BF7D1D1
:10024000156030BC704730B4044654E8000F00EA33
:10025000010544E80053002BF7D1156030BC70470E
:1002600030B4044654E8000F80EA010544E8005326
:10027000002BF7D1156030BC704730B4044654E809
:10028000000F00EB010544E80053002BF7D1156087
:1002900030BC704730B4044654E8000FA0EB0105B1
:1002A00044E80053002BF7D1156030BC704770B4A0
:1002B00004464FF0000054E8006F0D68AE4207BFDF
:1002C00044E80023012044E800630E60002B1CBFBB
:1002D0000020F0E770BC704730B4044654E8000FCB
:1002E00088422CBF451A054644E80053002BF5D13F
:1002F000156030BC7047000006488047064800473C
:10030000FEE7FEE7FEE7FEE7FEE7FEE7FEE7FEE7C5
:10031000FEE7FEE7111200000102000000487047EE
:10032000A86B040010B5431A934209D283188818A9
:1003300003E010F8011D03F8011D521EF9D210BD93
:1003400040EA01039B0703D009E008C9121F08C057
:10035000042AFAD203E011F8013B00F8013B521ED7
:10036000F9D210BDD2B201E000F8012B491EFBD238
:1003700070470022F6E710B513460A4604461946B0
:10038000FFF7F0FF204610BD421C10F8011B0029AA
:10039000FBD1801A704710B5002200E0521C835C2C
:1003A0008C5CA34201D1002BF8D1D8B2E1B2401A43
:1003B00010BD034611F8012B00F8012B002AF9D1DA
:1003C0001846704730B505460020034600E05B1C28
:1003D000934205D2EC5CC85C201A01D1002CF6D106
:1003E00030BD30B50B46014600202022012409E033
:1003F00021FA02F59D4205D303FA02F5491B04FADE
:1004000002F52844151EA2F10102F1DC30BD000006
:10041000064C074D06E0E06840F0010394E8070051
:1004200098471034AC42F6D3FFF7EEFE3C7304005D
:100430005C73040070B58C1810F8015B15F00703AD
:1004400001D110F8013B2A1106D110F8012B03E06D
:1004500010F8016B01F8016B5B1EF9D12B0705D475
:100460000023521E0DD401F8013BFAE710F8013BBE
:10047000CB1A921C03E013F8015B01F8015B521EDA
:10048000F9D5A142D8D3002070BD2DE9F041054631
:100490000C4616461F461A35641C2A2000F0E4FF5D
:1004A000280A00F0EAFF284600F0E7FFA919080A29
:1004B00000F0E3FFA81900F0E0FF2B2000F0D4FFCC
:1004C000200A00F0DAFF204600F0D7FFE119080A01
:1004D00000F0D3FFE01900F0D0FF2C2000F0C4FFA3
:1004E000BDE8F08113B50122BDF8003040F2B274CE
:1004F000A34277DBBDF8003042F20F74A34271DCF7
:100500009DF80230002B6DD09DF802300C2B69DC79
:100510009DF80330002B65D09DF803301F2B1BDDA9
:100520009DF80230012B5DD09DF80230032B59D08D
:100530009DF80230052B55D09DF80230072B51D085
:100540009DF80230082B4DD09DF802300A2B49D07F
:100550009DF802300C2B45D09DF803301E2B0FDD8B
:100560009DF80230042B3DD09DF80230062B39D087
:100570009DF80230092B35D09DF802300B2B31D07D
:100580009DF803301D2B0CDD9DF80230022B08D1A5
:10059000BDF80010CB1701EB93739B10A1EB830305
:1005A00003B39DF803301C2B0CDD9DF80230022BA9
:1005B00008D1BDF80000C31700EB93739B10A0EBAC
:1005C00083037BB99DF80430172B0BDC9DF80530B5
:1005D0003B2B07DC9DF806303B2B03DC9DF80730F6
:1005E000062B00DD002210461CBD00002DE9F04165
:1005F0000446254605B90EE000BF4FF47A7606B9E9
:1006000005E0DFF81880B7013846C04700BF681E14
:10061000051EF2D100BFBDE8F08100004169040071
:100620002DE9F04F97B004460D46042604279D4A55
:10063000D2E900109268CDE9110210913C2299494B
:100640000C3101A8FFF76EFE15AA16A9964800F016
:100650006BFD9649088800EBD0714FEA6108944918
:10066000088800EBD0714FEA610913AA14A99148D8
:1006700000F05AFD8D49088800EBD0714FEA610AFD
:100680008B49088800EBD0714FEA610B0020009085
:10069000BDF85420A9EB020291B2BDF85820A8EB96
:1006A000020290B2BDF85430BDF8582000F0A2F913
:1006B0000C2094FBF0F100FB1140032816DA032014
:1006C00094FBF0F100FB114110A850F8210009EB58
:1006D00007020090BDF85430D21A91B2A8EB06027E
:1006E00090B20023009A00F087FC6EE00C2094FB8F
:1006F000F0F100FB114003281ADB0C2094FBF0F111
:1007000000FB1140062813DA032094FBF0F100FBF4
:10071000114010A951F82000A9EB070291B2A8EBF3
:100720000602009090B25A23009A00F065FC4CE05B
:100730000C2094FBF0F100FB114006281DDB0C207F
:1007400094FBF0F100FB1140092816DA032094FB1A
:10075000F0F100FB114010A951F82000A9EB0702AD
:1007600091B208EB06020090BDF85830D21A90B250
:10077000B423009A00F040FC27E00C2094FBF0F139
:1007800000FB1140092820DB0C2094FBF0F100FB5A
:1007900011400C2819DA032094FBF0F100FB114002
:1007A00010A951F8200009EB07020090BDF8543061
:1007B000D21A91B208EB0602BDF85830D21A90B2A4
:1007C0004FF48773009A00F017FC0F2D16DA0F20F4
:1007D00095FBF0F100FB115001A951F820000BEB43
:1007E00007020090BDF84C30D21A91B2AAEB060273
:1007F00090B20023009A00F0FFFB50E00F2D15DBB4
:100800001E2D13DA0F2095FBF0F100FB115001A90A
:1008100051F82000ABEB070291B2AAEB0602009060
:1008200090B25A23009A00F0E7FB38E01E2D18DB47
:100830002D2D16DA0F2095FBF0F100FB115001A9C8
:1008400051F82000ABEB070291B20AEB06020090D0
:10085000BDF85030D21A90B2B423009A00F0CCFB0D
:100860001DE02D2D1BDB3C2D19DA0F2095FBF0F13F
:1008700000FB115001A951F820000BEB070200907A
:10088000BDF84C30D21A91B20AEB0602BDF85030D6
:10089000D21A90B24FF48773009A00F0ADFB17B0F4
:1008A000BDE8F08F6C6200003000002024000020C2
:1008B00026000020C03C00207CB5054600200090AA
:1008C0000190286068604FF47F24208880B2ADF8E2
:1008D00000002068000C8DF802002068000E8DF8E2
:1008E0000300241D20788DF804002088000A8DF86C
:1008F00005002068000C8DF806002068000E8DF8B9
:100900000700DDE90001FFF7EDFDE0B940F2E3701B
:10091000ADF800000C208DF802001F208DF80300B8
:1009200017208DF804003B208DF8050023208DF85A
:100930000600DDE9000100F00BF88DF80700DDE9A5
:10094000000100F04BFC00982860019868607CBDB5
:1009500033B504230022BDF8000040F2B274A04277
:1009600001DAFF203CBD40F2B27108E001F0030063
:1009700010B902F5B77201E002F26D12491CBDF820
:1009800000008842F2D80720B2FBF0F400FB1422EA
:1009900098180724B0FBF4F504FB15031846E1E7AB
:1009A00070B5044600BFA02606EB860006019F2313
:1009B0004F2200210846FFF768FD1D2003F072FE5C
:1009C000002506E0201200F06FFDE0B200F06CFDA3
:1009D0006D1CB542F6D370BD70B505460E46144683
:1009E00001231A4631462846FFF74FFD204600F006
:1009F0004DFD70BD2DE9F04781460C4617461E4659
:100A0000DDF820A0254614E0A019431B3A462946EC
:100A10004846FFF73AFD4FF0000806E0504600F068
:100A200035FD08F101001FFA80F8B845F6DB681CB7
:100A300085B2A019A842E7DABDE8F08710B5042115
:100A4000032003F06AFE1D211C2003F066FE05F062
:100A500045F91C2003F026FE0A20FFF7C7FD1C20E5
:100A600003F0ABFD0A20FFF7C1FD1C2003F01AFEC6
:100A70007820FFF7BBFD112000F0F6FC7820FFF78F
:100A8000B5FDB12000F0F0FC052000F0F6FC3C20A4
:100A900000F0F3FC3C2000F0F0FCB22000F0E4FC9D
:100AA000052000F0EAFC3C2000F0E7FC3C2000F0D0
:100AB000E4FCB32000F0D8FC052000F0DEFC3C2074
:100AC00000F0DBFC3C2000F0D8FC052000F0D5FC59
:100AD0003C2000F0D2FC3C2000F0CFFCB42000F021
:100AE000C3FC002000F0C9FCB62000F0BDFCB4201F
:100AF00000F0C3FCF02000F0C0FCC02000F0B4FC0B
:100B0000AB2000F0BAFC0B2000F0B7FC042000F092
:100B1000B4FCC12000F0A8FCC52000F0AEFCC2204F
:100B200000F0A2FC0D2000F0A8FC002000F0A5FCC5
:100B3000C32000F099FC8D2000F09FFC6A2000F09B
:100B40009CFCC42000F090FC8D2000F096FCEE2070
:100B500000F093FCC52000F087FC0F2000F08DFC16
:100B6000362000F081FCC82000F087FCE02000F077
:100B70007BFC072000F081FC0E2000F07EFC0820AA
:100B800000F07BFC072000F078FC102000F075FCE2
:100B9000072000F072FC022000F06FFC072000F03C
:100BA0006CFC092000F069FC0F2000F066FC252099
:100BB00000F063FC362000F060FC002000F05DFCDB
:100BC000082000F05AFC042000F057FC102000F030
:100BD00054FCE12000F048FC0A2000F04EFC0D20FF
:100BE00000F04BFC082000F048FC072000F045FC1A
:100BF0000F2000F042FC072000F03FFC022000F034
:100C00003CFC072000F039FC092000F036FC0F20E6
:100C100000F033FC252000F030FC352000F02DFCE6
:100C2000002000F02AFC092000F027FC042000F03E
:100C300024FC102000F021FCFC2000F015FC80209A
:100C400000F01BFCF02000F00FFC112000F015FC60
:100C5000D62000F009FCCB2000F00FFC3A2000F079
:100C600003FC052000F009FC212000F0FDFB2920F9
:100C700000F0FAFB032003F0A0FC0020FFF790FE39
:100C800010BD000070B504460D46164600202880B1
:100C900030801CB12046FFF777FB00B970BD0F48CC
:100CA0000078308014E02078802809DA0B49087831
:100CB00000EBD0712A8802EB61012980641C07E0F7
:100CC000607828B128880549097808442880A41C40
:100CD00020780028E7D100BFE0E700002C000020CA
:100CE000002803DD112801DA01490870704700006F
:100CF0002C0000202DE9FF5F06460C461746A24651
:100D00003A4B1978CB1701EB5373DB10DFF8DCC0DB
:100D10009CF800004FEAE07C00EB5C7C4FEAEC0CB6
:100D2000A0EBCC0CBCF1000F02D04FF0010C01E0A5
:100D30004FF0000C6344DFF8B4C09CF8002002EBD5
:100D4000D27C4FEA6C0C03FB0CF303F0FF0BA7F112
:100D50002000C7B2002545E024480078102805D1BE
:100D6000234800EB071010F8058001E0BDE8FF9F65
:100D700000BF4FF000092FE008F0800030B11D489F
:100D8000028821463046FFF727FE07E0039828B97E
:100D90001948028821463046FFF71EFE4FEA486098
:100DA0004FEA1068601C84B214480088844200DB5B
:100DB000DCE7A4EB0A000D490978884208D15446C3
:100DC000701C86B20E480088864200DBCEE706E043
:100DD00009F1010000F0FF09B9F1080FCCDB00BFF9
:100DE000681CC5B25D45B7DB00BFBFE72C00002023
:100DF000F8640000280000202A00002026000020BF
:100E0000240000202DE9FF4F81B006460C4617460E
:100E1000A24600BF394A1178CA1701EB5272D210AC
:100E2000364B1878C31700EB5373DB10A0EBC303EA
:100E30000BB1012300E000231A44304B1B785A43C6
:100E4000D2B20092A020C0EB2720401E5E21414379
:100E5000F8B2A138012212FB00101FFA80FB002516
:100E600046E026480078102805D1254800EB4B10B5
:100E700010F8058002E005B0BDE8F08F00BF4FF02C
:100E800000092FE008F0800030B11E48028821469A
:100E90003046FFF7A1FD07E0049828B91A480288F8
:100EA00021463046FFF798FD4FEA48604FEA106848
:100EB000601C84B215480088844200DBDBE7A4EBA9
:100EC0000A000E490978884208D15446701C86B23F
:100ED0000F480088864200DBCDE706E009F10100FB
:100EE00000F0FF09B9F1080FCCDB00BF681CC5B2E8
:100EF00000988542B5DB00BFBDE700002C00002054
:100F0000E86A0000280000202A00002026000020B7
:100F1000240000202DE9F04105460E46144605F058
:100F2000FF0800272DE01A480088854200DB2BE0EF
:100F300018480088864200DB26E0207880280EDAF8
:100F40002278002331462846FFF7D4FE124908785C
:100F500000EBD07105EB61018DB2641C11E060788B
:100F600078B1207807026078384487B200233A4687
:100F700031462846FFF746FF07480078284485B2E7
:100F8000A41C20780028CED100BFBDE8F08100006D
:100F900024000020260000202C0000202DE9F0472E
:100FA000814688461446FF22D4E9021002FB010064
:100FB00086B2D4E9041002FB01001FFA80FA002572
:100FC00016E008EB0501012332464846FFF75DFABB
:100FD000002709E005FB06F10831394454F82100E7
:100FE00000F054FA781C87B2B742F3DB681C85B274
:100FF0005545E6DBBDE8F0872DE9F05F834689467D
:1010000017469A46FF22D7E9021002FB010085B27B
:10101000D7E9041002FB01001FFA80F8BAF1000FB3
:1010200009D0BAF15A0F22D0BAF1B40F3ED0BAF5B6
:10103000877F76D158E0002416E009EB04010123F4
:101040002A465846FFF721FA002609E004FB05F17D
:101050000831314457F8210000F018FA701C86B2AC
:10106000AE42F3DB601C84B24445E6DB59E0002469
:1010700019E009EB0401012342465846FFF705FA3F
:1010800000260CE0A8F1010105FB014106FB15114A
:10109000083157F8210000F0F9F9701C86B2464576
:1010A000F0DB601C84B2AC42E3DB3AE0002418E0E1
:1010B00009EB040101232A465846FFF7E6F900260A
:1010C0000BE005FB08F1C91D05FB1411891B57F83E
:1010D000210000F0DBF9701C86B2AE42F1DB601C2F
:1010E00084B24445E4DB1CE0002417E009EB040172
:1010F000012342465846FFF7C8F900260AE0691E58
:10110000091B05FB0611083157F8210000F0BEF954
:10111000701C86B24645F2DB601C84B2AC42E5DB53
:1011200000BF00BFBDE8F09F30B5FF25D0E9024306
:1011300005FB04330B80D0E9044305FB0433138023
:1011400030BD00002DE9F047074688461646C246E6
:1011500007EB47011B4800EBC109D9F8140020B187
:10116000012811D0022826D11EE0484600F0DAF905
:101170000546B54201D2002405E0344632465146C8
:10118000484600F016FA18E0484600F0CBF905464C
:10119000B54201D2284600E0304604462246514678
:1011A000484600F006FA08E032465146484600F04C
:1011B000C7F9044601E0002400BF00BF2046BDE897
:1011C000F08700004CFE012010B50249024801F0F2
:1011D0009BFD10BD2CF801200030004003B585B008
:1011E00014216846FFF7C5F84FF47F2003F0C2FFD3
:1011F000082205A94FF47F2004F02CF807B000BDA9
:1012000001480249086070470090D003C0F70120F0
:1012100010B501F061F840B10020794908604FF045
:101220008041C1F810017749086001F071F8002889
:1012300055D075480068754908607348001D0068FE
:10124000091D0860704808300068091D08606E4874
:101250000C300068091D08606B4810300068091DDB
:101260000860694814300068091D08606648183035
:10127000006866492031086063481C300068091D19
:101280000860614820300068091D08605E4824300D
:101290000068091D08605C4828300068091D086066
:1012A00059482C300068091D0860574830300068E4
:1012B000564940310860544834300068091D0860C0
:1012C000514838300068091D08604F483C300068BC
:1012D000091D08604C4840300068091D086001F095
:1012E00033F810B14A484B49086000F0AFFF10B125
:1012F000FB204949086000F0B7FF38B14748017842
:101300004748006861F303004549086000F0BAFFF0
:1013100018B14FF400704349086000F0C1FF40B1BC
:101320004148006800F0010018B16FF001003E492B
:1013300008603E48006840F470003C49086000BF07
:1013400000BF00BFBFF34F8F00BF00BF00BF00BF93
:1013500000BF00BFBFF36F8F00BF00BF00BF3448A6
:10136000006800F0004030B93148001D006800F00E
:101370000040002840D001202E49086000BF2E48C0
:1013800000680028FBD012202949086000BF2A48C5
:1013900000680028FBD012212548001D016000BF15
:1013A000254800680028FBD000202249086000BFC3
:1013B000214800680028FBD000BF00BF00BF00BF6D
:1013C00000BFBFF34F8F00BF00BF00BF17487C387E
:1013D000006800F4E06019490843001D13497C3996
:1013E000086000BF00BF00BFBFF34F8F00BF00BF4A
:1013F00000BF00BF00BFFDE7FFF702FF10BD000008
:101400000C010040380500400404001020C50040D5
:10141000488103008C56004018F500405802001027
:10142000E40E0040409602400004004088ED00E0D9
:101430000012001004E5014000E401400000FA053C
:1014400010B504220249034801F030FC10BD000031
:1014500020F801200080004010B50249086880474C
:1014600010BD000034F7012010B504461D2003F024
:10147000A4F8E0B200F018F810BD10B504461D2025
:1014800003F010F9E0B200F00FF810BD10B50446FB
:101490001D2003F007F9C4F3072000F005F8E0B2BF
:1014A00000F002F810BD00002DE9FF5F0446194866
:1014B0000021016041601848016041600470002013
:1014C0001649087000BF164E134F4FF00108DFF8A1
:1014D0004490C24683460097CDF80480CDF808902A
:1014E000CDF80CA000226946301D04F089F983462E
:1014F00000BF5D4625B100BF284600F0B3FA00BF2B
:1015000000BF00E020BF054800780028FAD0BDE801
:10151000FF9F000029F7012021F7012020F701207B
:101520003069040010B501460A69CB689A4204D8B4
:101530008C68641EE41AA01801E0D41A601E10BD65
:101540002DE9F0470446894617464FF0000AE56842
:1015500000BFD4F81080A84503D9A8EB0500461EAB
:1015600004E0A5EB0800401CA1680E1AA068401B0F
:10157000B04201D9304601E0A068401B0646BE4299
:1015800001D2304600E038460646616848193246C6
:101590004946FEF7C7FEB244B144BF1B3544A068BC
:1015A000A84200D10025E560002FD2D15046BDE809
:1015B000F0872DE9F047044689461546E668A0689D
:1015C000871BAF4208D9616888192A464946FEF749
:1015D000A9FE7019E06010E0B846616888194246BB
:1015E0004946FEF79FFEA5EB070809EB07014246B7
:1015F0006068FEF797FEC4F80C80BDE8F087000035
:101600000FB4084B10B504A902AA039800F01CF807
:10161000044602A9002000F0B8F9204610BC5DF88D
:1016200014FB00008B19000002E008C8121F08C15B
:10163000002AFAD170477047002001E001C1121F53
:10164000002AFBD1704700002DE9FF4F8BB0884680
:101650000546002606E025280BD0DDE90D1290474F
:101660006D1C761C28780028F5D10FB03046BDE8F7
:10167000F08F0024A146A2460122AE4900E00443B7
:1016800015F8013F203B02FA03F00842F7D1287811
:101690002A2810D06FF02F022878A0F130010929F4
:1016A00015D809EB890102EB410144F0020400EB7B
:1016B00001096D1CF0E758F8041B5FEA010903D526
:1016C00044F40054C9F1000944F002046D1C287868
:1016D0002E2817D115F8010F44F004042A280ED043
:1016E0006FF02F022878A0F1300109290AD80AEBFF
:1016F0008A0102EB410100EB010A6D1CF2E758F888
:1017000004AB6D1C28786C280FD006DC4C2817D051
:1017100068280DD06A2814D104E0742810D07A28E3
:101720000FD10DE044F400140AE044F4801401E009
:1017300044F440146978814202D104F580146D1C90
:101740006D1C2878692865D006DC00288DD06328B8
:1017500027D0642806D15DE06E2808D073282AD0EF
:10176000752877D0DDE90D129047761CE0E0C4F3D0
:101770000250022809D003280DD0D8F80010042800
:101780000DD00E6008F10408D2E0D8F80010F2176E
:10179000C1E90062F6E7D8F800100E80F2E70E709B
:1017A000F0E718F8041B8DF8001000208DF80100F8
:1017B000EB46012003E058F804BB4FF0FF3061070F
:1017C0004FF0000701D40AE07F1C57450DDA87422D
:1017D000FADB1BF807100029F6D106E07F1C8742D0
:1017E000FCDB1BF807100029F8D1DDE90D23A9EB7C
:1017F00007008146214600F0B1F83044C61904E0E4
:10180000DDE90D121BF8010B90477F1EF8D221462F
:10181000484688E058F8040BC4F302514FF00A0B15
:10182000032900D100B2042900D140B2002802DA15
:1018300040422D2102E0210505D52B218DF82410F1
:10184000012104E006E0E10710D02021F6E708AF0F
:10185000089113E058F8040BC4F302514FF00A0B3F
:10186000032900D180B2042900D1C0B20021EEE7E3
:101870005946FEF7B6FD303107F8011D0028F7D1B3
:10188000ADEB070000F1200B600702D524F4803493
:1018900001E04FF0010ADA4502DDAAEB0B0000E09F
:1018A0000020824600EB0B0108980144A9EB0100DF
:1018B0000A90E00306D4DDE90D2321460A9800F0E2
:1018C0004DF806444FF0000908E009A911F8090095
:1018D000DDE90D12904709F10109761C0899894547
:1018E000F3DBE0030CD5DDE90D2321460A9800F077
:1018F00035F8064404E0DDE90D1230209047761CEF
:10190000BAF10001AAF1010AF5DC05E0DDE90D12EA
:1019100017F8010B9047761CBBF10001ABF1010BEE
:10192000F4DC0A982146DDE90D2300F005F80644B1
:101930006D1C97E6092801002DE9F04104460025B9
:101940001E461746880404D405E039462020B047D7
:101950006D1C641EF9D52846BDE8F0812DE9F041E3
:10196000044600251E469046C80301D5302700E0F6
:101970002027880404D505E041463846B0476D1C51
:10198000641EF9D52846BDE8F0810A68531C0B6037
:101990001070704772B600BF03F0D8FA00BF00BFE6
:1019A00002F0DEFF0028FBD100BF00BF21484088C5
:1019B000012809DB2049214A891AC908012242EA83
:1019C00001401FA103F0E6F900BF2048006800F0C5
:1019D000010000B100BE00BF16484088022809DBA4
:1019E0001549164A891AC908022242EA014018A17B
:1019F00003F0D0F900BF00BF00BF00BF00BFBFF3BE
:101A00004F8F00BF00BF00BF1048E438006800F4EB
:101A1000E06013490843001D0C49E439086000BF29
:101A200000BF00BFBFF34F8F00BF00BF00BF00BFAC
:101A300000BFFDE7FCF70120DC730400A473040081
:101A4000466174616C206572726F7200F0ED00E0A7
:101A500053797374656D20726573657400000000BE
:101A60000000FA053EB50446002000900190029067
:101A700002946A46002144F20100FFF78BFF3EBD4D
:101A800000B5024600F006F800BD00B5024600F0C1
:101A90000BF800BD72B603480068401C014908609D
:101AA000704700002000002004480068401E0349E1
:101AB00008600846006800B962B670472000002040
:101AC0002DE9F04106460B480B49401A070900254D
:101AD0000BE0094800EB05143046A168FEF75BFCFB
:101AE00010B92046BDE8F0816D1CBD42F1D3002045
:101AF000F8E70000A47304009473040070B5034673
:101B00000025CD604D600E4D8D6000250D600024D8
:101B100000220DE00B4D05EB0210C5682D79FF2D5D
:101B200005D0A34202D185680D6007E0641C521CF9
:101B3000054D044EAD1BB2EB151FEBD300BF70BDBE
:101B4000D469040094730400A47304007CB50024D9
:101B50000DE00848055D032600200090334602464C
:101B600001460190284602F0CEFC00BF641C042C04
:101B7000EFD37CBDB862000010B5044604F001004C
:101B800008B100F011F804F0020008B1FFF7DEFF21
:101B900010BD000010B504460249085D012102F0A5
:101BA0009BFD10BDB46200007CB500240CE0094828
:101BB000055D002000900346012211460190284651
:101BC00002F0A1FC00BF641C042CF0D300F004F868
:101BD0007CBD0000B462000010B5002403E0204684
:101BE000FFF7D8FF641C042CF9D310BD2DE9F84F82
:101BF00004460D461646A71C4FF001080020FFF7CB
:101C00003FFF3048006828602E4800682D49496829
:101C1000411A2C488068401CA0EB010915E0012105
:101C2000294801F02DFD01F0B3FA824651462648BD
:101C300001F026FD2348006822494968411A2148DD
:101C40008068401CA0EB010900BF4F45E7D8B8F100
:101C5000000F30D00021009176B1009921F00301EE
:101C6000491C0091009921F00401091D009100997F
:101C700064F3891100910DE0009921F00301891CA2
:101C80000091009921F00401091D0091009964F36D
:101C90009F5100910B4909680A4A92681140094A0C
:101CA0000C3202EB81000099016006490968394451
:101CB0000C3A116000BF0020FFF7E7FE4046BDE888
:101CC000F88F000010FA01202CFE012070B50446A8
:101CD0000D46A168481CA06020684554D4E9011055
:101CE000884202D3204602F0EEFA70BD04484068F4
:101CF00003490968884201D1012070470020FCE7B0
:101D000010FA012010B50446024A03A1206902F02E
:101D1000C5FA10BD366400002573000001468868CE
:101D2000D0F83C01C0F3C000704700002DE9F0433B
:101D30008FB004460F464FF00009E1684968002261
:101D400008680EA903F096FA18B100200FB0BDE89C
:101D5000F083A7B10E9803F0DCF9A068D0F82C014D
:101D6000401CA168C1F82C01A06890F82C0100F07B
:101D70000700012801D1814601E00120E6E7204665
:101D800001F040FC0546A878012805D9A878401E36
:101D9000C1B2204600F03EFA2878012805D92878FB
:101DA000401EC1B2204600F051F92046FFF7AAFFBD
:101DB000B9F1000F06D037A20221204602F060F8E8
:101DC0000120C3E700BF4FF00008434608220BA9DB
:101DD0000E9803F0ADF94FF008080D980890BDF883
:101DE0003000ADF82400BDF83200ADF82600002028
:101DF0008DF829000B9800F00300012818D10B98EA
:101E0000860A0B98C0F3C2008DF828000B98C0F327
:101E10008315AA00434602A90E9803F089F92069A8
:101E200008AB2A4602A90090304603F0A9F823E047
:101E30000B9800F0030002281ED10B98860D0B981A
:101E4000C0F3C2008DF8280000BF082E01D2304632
:101E500000E00820054643462A4606A90E9803F0EE
:101E600067F9A844761B08AA294606A8236902F048
:101E70009BFF002EE9D100BF0E9803F04AF9E168FC
:101E80004968002208680EA903F0F4F900289AD0E6
:101E900001205BE74C6F7374206C6F6773202D20FB
:101EA000696E637265617365206C6F672062616340
:101EB0006B656E642071756575652073697A652E32
:101EC0000D0A000070B504460D462A4602A120699D
:101ED00002F0E4F970BD0000256300002DE9F04137
:101EE00004460D4616461F46606801683B4632466A
:101EF000D1F810C02946E0478046BDE8F08110B512
:101F000004460CB9002010BD2046FEF73DFAFAE762
:101F10002DE9F84304460F4615461E464FF00008CB
:101F200024E007EB0801606802686B46D2F80CC039
:101F30002A46E04781460098804400982D1A009870
:101F400098B9A068007803280FD000BFA068D0F827
:101F50003C01C0F340100028F8D0A068D0F83C0144
:101F600020F02000A168C1F83C0100BF002DD8D1AD
:101F70000EB100983060BDE8F88300002DE9F05FF5
:101F80000546894616461C460A9FB9F1000F27D11F
:101F900023482449401AB6EBD00F1ED24FF0000A56
:101FA000DFF884B0D04611E01E4800EBC80ADAF82A
:101FB00004205BF826001168FEF7EDF920B9DAF885
:101FC00004002060BDE8F09F08F10108144815499D
:101FD000401AB8EBD00FE7D300BF00202060F1E734
:101FE00015B900202060EDE7287850B13946304619
:101FF0006A689047386810B9002020600DE02760BB
:102000000BE0686800EB0610006820B1686800EB20
:102010000610206001E00020206000BFD2E7000031
:10202000947304005C730400C4F7012070B5054686
:102030000C46002C04DD224602A1286902F02EF98C
:1020400070BD00001B5B25644200000070B50546B2
:102050000C46002C04DD224602A1286902F01EF97C
:1020600070BD00001B5B25644400000010B50446F1
:10207000024A0349206902F011F910BD40640000D2
:10208000181D00002DE9FC5F0446002600270020F3
:1020900000900025A16801F194008021FEF769F904
:1020A0005249206902F0FAF8204604F001F8A946E6
:1020B00096E000BF01AB012269462046FFF70EFF04
:1020C000019868B940F2E738B8F1000F00D106E096
:1020D000DFF81CA14FEA881B5846D04700BF77E0C5
:1020E0009DF800001B2805D0A06890F894001B28DC
:1020F00000D06DE09DF80000522858D10021A06862
:1021000094304155A06890F895005B2806D00020D7
:10211000A16881F894000B20BDE8FC9F02250FE028
:10212000A068943029466A1CD5B2405C303807EB71
:10213000870100EB410087B2802D01DB0C20EBE72B
:10214000A0689430405D3B28EAD1681CC0B20546C7
:10215000802801DB0C20DFE70FE0A06894302946DF
:102160006A1CD5B2405C303806EB860100EB4100BA
:1021700086B2802D01DB0C20CEE7A0689430405D54
:102180000028EAD1FA2E03D9FA20A168087201E0EA
:10219000A1680E72FA2F03D9FA21A068817201E0BA
:1021A000A06887720020A16881F89400B4E79DF8C8
:1021B0000010A06894304155681CC0B2054609283B
:1021C00005D90020A16881F894000420A4E700BF8D
:1021D000019800287FF46EAF09F101001FFA80F921
:1021E000B9F57A7FFFF665AF0D2095E743640000EF
:1021F0003164000070B505460C46002C04DD224613
:1022000002A1286902F04AF870BD00001B5B25643A
:102210004300000070B505460C46002C04DD224644
:1022200002A1286902F03AF870BD00001B5B25642A
:102230004100000010B50021034801F037FA0446C0
:1022400084F3100010BD00002CFE0120054800683A
:10225000082805D10348001D006808B9012070470F
:102260000020FCE73001001005480068082805D16F
:102270000348001D006808B9012070470020FCE7F2
:102280003001001005480068082805D10348001DEA
:10229000006808B9012070470020FCE730010010F9
:1022A0000C480068082812D10A48001D006808B9C7
:1022B000012070470748001D0068012800D1F8E799
:1022C0000448001D0068022801D10120F1E7012027
:1022D000EFE70000300100100C480068082812D118
:1022E0000A48001D006808B9012070470748001D12
:1022F0000068012800D1F8E70448001D00680228A2
:1023000001D10120F1E70120EFE7000030010010CA
:102310000C480068082812D10A48001D006808B956
:10232000012070470748001D0068012800D1F8E728
:102330000448001D0068022801D10120F1E70120B6
:10234000EFE700003001001005480068082805D1BB
:102350000348001D006808B9012070470020FCE711
:102360003001001010B50446A07FFF2802D0A07FE6
:1023700002F0A5F900206077207204F10800D4E98A
:102380000021904710BD2DE9F04780460D461746C5
:102390009A460DB9BDE8F087BAF1000F03D0F9B243
:1023A0004046FFF727FF002400E0641CFDF7B6FF5E
:1023B0000068295D405C00F001000028F5D16AE06A
:1023C00000262846FFF79BFDA0EB0409D8F808007B
:1023D000407BC01B484522D300BF17E02819805D11
:1023E0000A2812D1404603F063FE29190023324621
:1023F0004046FFF78DFD701C04444046FFF736FE53
:10240000F9B24046FFF7F6FE02E0761C4E45E5D3F2
:1024100000BF2919D8F8100001F040FF3CE0D8F8BF
:102420000800407BA0EB070916E0FDF777FF006886
:102430002919895D405C00F0010028B1B1462819D6
:10244000805D0A2800D108E0F119D8F80800407B27
:10245000814200D301E0761CE7E700BF404603F06D
:1024600027FE291900234A464046FFF751FD4C44F8
:1024700000E0641CFDF752FF0068295D405C00F03D
:1024800001000028F5D14046FFF7F0FDF9B24046C3
:10249000FFF7B0FE00BF93E700BF4046FFF7E6FD41
:1024A00000BF77E71E48006800F00700052836D017
:1024B00001201C49086000BF1B4800680028FBD0B1
:1024C0001748006820F00700401D4FF01021C1F8A8
:1024D000040300201349086000BF13480068002867
:1024E000FBD000BF00BF00BF00BF00BFBFF34F8FD6
:1024F00000BF00BF00BF0D48006800F4E0600C4959
:102500000843001D0949086000BF00BF00BFBFF3BA
:102510004F8F00BF00BF00BF00BF00BFFDE7704787
:102520000413001004E5014000E401400CED00E05C
:102530000000FA0510B503460020002108E007243A
:102540008C401C40CC40A2B2824200DD1046C91C27
:102550000A29F4D310BD000000B587B0142102A8E9
:10256000FDF707FF1020FEF7BBFB1548C078009071
:1025700013488378028813A102A8FFF741F8154891
:10258000007840B10020134908700D4A5179107944
:10259000FEF746F812E01048007878B10E4800784F
:1025A00000F0020028B9064840790C498979884230
:1025B00004D1034A51791079FEF732F807B000BD13
:1025C00004000020253034642F253032642F25305C
:1025D0003264000000000020150000200C000020E4
:1025E00010B50020FEF7DCF90020094908804FF6FD
:1025F000FF70084908801020FEF772FB064800783B
:1026000020B9064A00210846FEF7C8FC10BD0000AC
:102610002A0000202800002014000020002F0120A4
:1026200030B599B0142112A8FDF7A3FE14210DA80E
:10263000FDF79FFE142108A8FDF79BFE1C22904980
:1026400001A8FDF76FFE4FF6FF708E49088000204D
:102650008D4908801020FEF743FB8C48807900905C
:102660008A48437902798AA112A8FEF7C9FF8748F0
:10267000C078009085488378028889A10DA8FEF76C
:10268000BFFF8248C07901AA52F8201008A8FDF7C0
:1026900090FE17AA18A912A8FEF7F4FA844909882F
:1026A000BDF86020914208DD81490988BDF86020AD
:1026B000881A00EBD071491000E000218CB27D49EE
:1026C0000988BDF85C20914208DD7A490988BDF887
:1026D0005C20881A00EBD071491000E000218DB217
:1026E00012AA29462046FEF715FC734800780028F8
:1026F0005DD000207049087017AA18A90DA8FEF730
:10270000C1FA6B490988BDF86020914208DD68492B
:102710000988BDF86020881A00EBD071491000E0EC
:1027200000218CB263490988BDF85C20914209DD23
:1027300060490988BDF85C20881A00EBD071491007
:102740001E3100E000218DB20DAA29462046FEF779
:10275000E1FB17AA18A908A8FEF794FA54490988BA
:10276000BDF86020914208DD51490988BDF860201C
:10277000881A00EBD071491000E000218CB24D495D
:102780000988BDF85C20914209DD4A490988BDF8F5
:102790005C20881A00EBD07149103C3100E0002128
:1027A0008DB208AA29462046FEF7B4FB65E04348EF
:1027B000007800F0380000285FD017AA18A90DA8EB
:1027C000FEF760FA3A490988BDF86020914208DDB9
:1027D00037490988BDF86020881A00EBD07149108C
:1027E00000E000218CB233490988BDF85C20914299
:1027F00009DD30490988BDF85C20881A00EBD071EA
:1028000049101E3100E000218DB20DAA2946204654
:10281000FEF780FB17AA18A908A8FEF733FA244987
:102820000988BDF86020914208DD21490988BDF87A
:102830006020881A00EBD071491000E000218CB2B2
:102840001C490988BDF85C20914209DD19490988B5
:10285000BDF85C20881A00EBD07149103C3100E0D3
:1028600000218DB208AA29462046FEF753FB1348E3
:10287000007800F0C7001149087019B030BD0000A1
:1028800050620000280000202A00002004000020E0
:10289000253032643A253032643A25303264000003
:1028A000253034642F253032642F25303264000007
:1028B0002400002026000020000000201500002039
:1028C00070B5B348B3490A680260496841603C206A
:1028D000B0498871084680793B2873DD00208871F3
:1028E00008464079401C4871AB48007840F002002F
:1028F000A94908700846007840F004000870A5480F
:1029000040793B28E9DD0020A2494871084600795A
:10291000401C0871084600791728DEDD0020087188
:102920000846C078401CC8700846C079401CC87171
:102930000846C079062801DD0020C8719648007855
:1029400040F008009449087092488078012817D018
:1029500090488078032813D08E48807805280FD0BF
:102960008C48807807280BD08A488078082807D0C0
:10297000884880780A2803D0864880780C2822D19D
:102980008448C0781F287FDD01208249C87008462E
:102990008078401C88708048007840F010007E49A4
:1029A00008707C4880780C286EDD01207949887099
:1029B00008460088401C08807748007840F02000D6
:1029C0007549087060E07348807804280BD071481E
:1029D0008078062807D06F488078092803D06D4892
:1029E00080780B2822D16B48C0781E284CDD01204E
:1029F0006849C87008468078401C8870664800782E
:102A000040F0100064490870624880780C283BDD73
:102A100001206049887008460088401C08805E4894
:102A2000007840F020005C4908702DE0594A108879
:102A3000C21700EB92729210A0EB8202D1B25548FD
:102A4000C27801F11C0082421DDD0120514AD07084
:102A500010468078401C90704F48007840F010007D
:102A60004D4A10704B4880780C280CDD0120494AF3
:102A7000907010460088401C10804748007840F055
:102A80002000454A107000BF4348007840F0010024
:102A9000414908704148007810B9FFF75DFD75E0C5
:102AA0003D48007800F00100C8B13B48007800F0D4
:102AB000FE00394908703A480088A0F11004394AEC
:102AC0001288A2F1400505EBD572521002F13000D8
:102AD00004EBD472511010231A46FDF7D6FC2E4891
:102AE000007800F00200C8B12B48007800F0FD002B
:102AF000294908702A480088A0F11004294A128840
:102B0000A2F1400505EBD572521002F1180004EB5A
:102B1000D472511010231A46FDF7B7FC1E480078F6
:102B200000F00400B8B11C48007800F0FB001A491E
:102B300008701C480088A0F1400519480088A0F1E1
:102B4000100404EBD472511005EBD5725010102311
:102B50001A46FDF79AFC1048007800F0380098B14A
:102B600010480088A0F150050D4A1288A2F1100407
:102B700004EBD472521002F11E0105EBD572501015
:102B800010235022FDF781FCFFF74AFD70BD0000C5
:102B90000C0000200400002015000020140000207C
:102BA00026000020240000202DE9FC5F83460E460D
:102BB00091461F46DDE90C45002E01DA704200E027
:102BC000304682464FF0010803E09AFBF9FA08F11B
:102BD0000108CA45F9DA474500D9B84634B1002E94
:102BE00003DB05F00400042800D1641E05F0020098
:102BF00000B167B105F0010048B944B104E0641EBA
:102C000020215846FFF762F80CB1A045F7D3002EFB
:102C100005DA76422D215846FFF758F807E005F00F
:102C20000400042803D12B215846FFF74FF805F084
:102C3000020002280DD105F0010050B94FB944B18E
:102C400004E0641E30215846FFF740F80CB1A0455F
:102C5000F7D33B464A4631465846CDE9004503F096
:102C60002DFABDE8FC9F30B5024600201378C3F36F
:102C70008003D3B1137803F00303012B02D0022B9E
:102C800010D107E01388C3F383139B1C0C68234403
:102C90000B6008E00B680225146805EB945423448C
:102CA0000B6000E000BF00BF012030BD2DE9F04700
:102CB00004460E469046002722E0384602F04AFCC1
:102CC0000546384602F04DFC8146204629464258CA
:102CD0000AB1012200E0002282B14846D4F8041370
:102CE000014009B1012100E0002139B12946204607
:102CF00002F03CFC2846D6E900219047781CC7B278
:102D00004745DADBBDE8F08770B505460C464FF461
:102D10008471284602F00EFC2146284603F087F90C
:102D200010B92046FFF71EFB70BD000070B50446C9
:102D30000D461646034B32462946204600F094FDC8
:102D400070BD00004D2F000070B504460D461646BC
:102D5000034B32462946204600F086FD70BD000038
:102D60001531000070B504460D461646034B324639
:102D70002946204600F078FD70BD00002B31000090
:102D800070B504460D461646034B3246294620468A
:102D900000F06AFD70BD0000593200007CB50646A7
:102DA0000D461446012D03D0304601F034FA28B107
:102DB00000221146304601F093F87CBD05A1606801
:102DC000CDE9001009A202213046236801F058F82D
:102DD00000BFF2E720756E6B6E6F776E20706172C8
:102DE000616D657465723A200000000025733A2514
:102DF0007325730D0A0000002DE9FC47074688463D
:102E00009146384601F007FA30B1002211463846A3
:102E100001F066F8BDE8FC8714481549401A060918
:102E200000251EE0124800EB0514E0680079FF2839
:102E300006D110A208213846A36801F021F80FE05E
:102E4000E0680079E168497909B112A100E013A1B5
:102E5000CDE9001014A208213846A36801F010F84B
:102E60006D1CB542DED300BFD4E70000A47304009C
:102E70009473040025730D0A092D20537461747531
:102E8000733A2064656163746976617465640D0AE0
:102E90000D0A0000656E61626C65640064697361AF
:102EA000626C65640000000025730D0A092D205333
:102EB00074617475733A2025730D0A092D204944F5
:102EC0003A2025640D0A0D0A0000000070B5044682
:102ED0000D461646204601F09EF928B10022114603
:102EE000204600F0FDFF70BD03A20221204600F045
:102EF000C7FF00BFF7E700004E6F74207375707056
:102F00006F727465642E0D0A0000000070B50446EF
:102F10000D461646204601F07EF928B100221146E2
:102F2000204600F0DDFF70BD03A20221204600F024
:102F3000A7FF00BFF7E700004E6F74207375707035
:102F40006F727465642E0D0A000000002DE9FE4FBB
:102F50008246894616461D464FF0000BD9F80C00F4
:102F600000790290002E5ED0072243A12868FDF769
:102F700029FA002828D1012E06D141A2022150466B
:102F800000F07EFFBDE8FE8F022E01D14FF0010B55
:102F9000002409E0404A52F824100A226868FDF72C
:102FA00011FA00B902E0641C052CF3D300BF052C14
:102FB00006D13AA2022150466B6800F061FFE1E7BA
:102FC000E7B24FF0020813E008223CA12868FDF7A1
:102FD000F9F930B9012E00D1B34600274FF00108AE
:102FE00006E038A2022150462B6800F049FFC9E7ED
:102FF000BBF1000F18D0002411E03A462146029898
:1030000000F09BFA50B90021204601F08DFF0346E5
:1030100032A202210190504600F032FF641C01F000
:103020001FFFA042E9D825E0444621E0002001909E
:1030300055F8240001A900F098FA38B955F8243061
:103040002FA20221504600F01BFF10E03A46DDE9B6
:10305000011000F072FA50B90021019801F064FFEC
:1030600003461EA202210090504600F009FF641C96
:10307000B442DBD300BF85E7656E61626C6500001A
:1030800042616420706172616D6574657220636F66
:10309000756E742E0D0A000058F70120556E6B6E88
:1030A0006F776E207365766572697479206C6576CA
:1030B000656C3A2025730D0A000000006469736195
:1030C000626C6500556E6B6E6F776E206F70746901
:1030D0006F6E3A2025730D0A000000004C6576657E
:1030E0006C20756E617661696C61626C6520666FDB
:1030F00072206D6F64756C653A2025730D0A0000AF
:10310000556E6B6E6F776E206D6F64756C653A25CA
:10311000730D0A002DE9F04105460C4616461F4680
:10312000204601F071FBBDE8F08130B500BF0024FE
:10313000CD686C7100BF30BD70B504460D461646B3
:1031400033462A462046E168FFF700FF70BD70B5A0
:1031500004460D46164633462A462046E168FFF7E8
:10316000D9FF70BD70B504460D46164633462A4653
:103170002046E168FFF7D9FF70BD70B504460D46E3
:10318000164633462A462046E16800F065F870BDD1
:103190002DE9FF4100272E4800F06BFA2C48001F54
:1031A00000F067FA2B48406803902A488568039826
:1031B000284028490C3101EB800800BF03A9404694
:1031C000FFF751FD30B10398284022490C3101EB43
:1031D000800800E000E0F1E700BF00240AE0039867
:1031E000411C284003911B490C3151F820004DF837
:1031F0002400641C022CF2D3009800F00300012884
:103200000DD0022814D1BDF806700421009801EBFE
:103210009050401E039901EB9000039009E0BDF827
:1032200006700098C0F3831003990844039000E0EF
:1032300000BF00BF0648001F00F014FA064616B192
:10324000044903984860384604B0BDE8F0810000A6
:1032500028FE012010FA01202DE9FF5F80460D466F
:1032600001F0FEFD814600BFE868407920B923A245
:103270000221404600F004FE25A328A20821404672
:1032800000F0FEFD2DA20821404600F0F9FD0024CB
:1032900030E0E86890F804A001231A462146504621
:1032A00001F0E8FD8346002301222146504601F04B
:1032B000E1FD0646032E01DA304600E00320074612
:1032C0000121204601F030FE0390B74201DA2BA223
:1032D00000E029A22A4850F82700294951F82B106C
:1032E000CDE90102009127A208214046039B00F08E
:1032F000C7FD641C4C45CCD3BDE8FF9F4C6F677382
:10330000206172652068616C746564210D0A00009B
:103310006D6F64756C655F6E616D6500252D343071
:1033200073207C2063757272656E74207C206275D8
:10333000696C742D696E200D0A0000002D2D2D2D55
:103340002D2D2D2D2D2D2D2D2D2D2D2D2D2D2D2DAD
:103350002D2D2D2D2D2D2D2D2D2D2D2D2D2D2D2D9D
:103360002D2D2D2D2D2D2D2D2D2D2D2D2D2D2D2D8D
:103370002D2D2D2D2D2D0D0A000000002A000000FE
:1033800058F70120252D343073207C20252D3773EC
:10339000207C20257325730D0A0000001CB5002534
:1033A000FFF780F80320FEF7E7FB03210B2001F075
:1033B000DEF803210C2001F0DAF80D240020009043
:1033C0000346012211460190204601F082F800BF19
:1033D0000D2001F05AF9FDF731FB02F0CFFD44E07A
:1033E0002248007820B1002020490870FFF768FAD1
:1033F0000B2001F03DF958B90E2001F0D1F800BFC3
:103400000B2001F035F90028FAD00E2001F03DF92B
:103410000C2001F02DF958B90E2001F0C1F800BFC1
:103420000C2001F025F90028FAD00E2001F02DF92A
:10343000312D15DD0D20019001A801F0D9F80446C9
:10344000D4F80465012001998840B043C4F8080508
:103450000120019988403040C4F80C0500BF0025C8
:103460000A2000F0DFFE681CC5B2B9E701000020A9
:103470002DE9FF4F87B0044691461E46A2462546D9
:10348000BAF806009AF805104843001F0690BAF8EB
:1034900006B0301DB0FBFBF00590301DB0FBFBF11A
:1034A0000BFB11000490D9F80000811906988142A5
:1034B00002D90698801B01E0D9F800000746C9F838
:1034C000007003E02D680598401E059005980028BF
:1034D000F8D103900498ABEB0008B84501D9384601
:1034E00000E04046804623E0039908980844029093
:1034F000281D049908440190149828B14246DDE93A
:103500000110FCF70FFF04E04246DDE90101FCF782
:1035100009FF002004902D68A7EB0807039840449A
:103520000390BB4501D9384600E05846804600BFAD
:10353000002FD9D10BB0BDE8F08F2DE9F041054641
:103540000E46144600231A463146284601F092FCE6
:103550000746BC4202DD0020BDE8F081224631462C
:10356000284601F0B7FC0120F6E72DE9F0410546B9
:103570000E4601F075FC074600240DE000212046B0
:1035800001F0D2FC8046202229464046FCF71AFF73
:1035900008B9346002E0641CBC42EFD300BFBC42F7
:1035A00002D00120BDE8F0810020FBE770B50346A2
:1035B0000C469CB101F054FC054600220AE0084884
:1035C00000EB820108881E68B04202D11A60002018
:1035D00070BD521CAA42F2D30520F9E70020F7E79C
:1035E000E0F7012070B505460C460020E060606001
:1035F0000348A0600121284601F096FC206070BDC0
:10360000C469040070B50546AE68A86800F10804F6
:103610002868FEF774FCA071F07CA17908446179F8
:1036200090FBF1F201FB1200401C2070F07CA179AC
:103630000844617990FBF1F0401CA070B07CA17946
:103640000844617990FBF1F0401CE070B07CA179F6
:103650000844617990FBF1F201FB1200401C60709C
:10366000204670BD10B504460021204600F013F836
:1036700010BD10B504460121204600F022F810BD0F
:10368000F8B504460D466A4629462046FCF7F5FD86
:1036900006460098F8BDF8B504460D466A46294628
:1036A0002046FCF7D0FD06463046F8BDF8B5044686
:1036B0000D466A4629462046FCF7ACFD06463046D4
:1036C000F8BDF8B504460D466A4629462046FCF783
:1036D000ADFD06460098F8BDF8B504460D466A46AD
:1036E00029462046FCF7D6FD06460098F8BD70B581
:1036F000044600260020FEF7C3F9206800686168D0
:10370000884215D920680068401E22681060017840
:10371000204600F02FF80646207A21680978401AE2
:10372000C5B220680079A84201DA2068057100BF9F
:103730000020FEF7AAF9304670BD0246D068081A8C
:10374000138BB0FBF3F0C0B2704770B504460D4662
:103750002E460020FEF794F931462046FFF7EDFF94
:1037600021680A68511C2368196010700020FEF758
:103770008CF970BD0246138BD06801FB03007047C3
:103780002DE9F04F8DB00746884600BFB868D0F8E5
:103790003C01C0F3400038B100221146384600F029
:1037A0009FFB0DB0BDE8F08FB8F1010F05D926A23F
:1037B0000221384600F064FBF3E728482849401A04
:1037C0001C21B0FBF1F900253AE0C5EBC500244906
:1037D00001EB8004B4F818A0208BA0EB0A000C9039
:1037E000D4E90110461A00BF20680079834600BF63
:1037F000207A21680978401AC0B20B9060690A905B
:1038000064201BFB00F0B0FBF6F0099064210B98DC
:1038100010FB01F0B0FBF6F008900998CDE90460C8
:10382000CDE906B6DDE90B020899CDE900A2CDE9A4
:1038300002100C4A082138460A9B00F021FB6D1C3F
:103840004D45C2D300BFACE7426164206172677529
:103850006D656E7420636F756E74000000740400F3
:10386000E4730400986E04002DE9F04781460D468C
:1038700014461E4654F8048C4046FEF721F90746CC
:103880002FB123462A4639464846B04705E043460D
:1038900003A20221484600F0F3FABDE8F0870000D9
:1038A000496E76616C6964206261636B656E643A2F
:1038B0002025730D0A0000002DE9F04104460D4655
:1038C00016461F46204600F09FFC38B13A46314666
:1038D000204600F005FB0120BDE8F0814DB1A06855
:1038E000406805A202210368204600F0C9FA0120C1
:1038F000F2E70020F0E7000025733A2077726F6E40
:103900006720706172616D6574657220636F756E9A
:10391000740D0A0070B504460D461646022D09D1F5
:10392000204600F071FC28B100221146204600F02C
:10393000D7FA70BD054A06A1206900F0AFFC054A20
:1039400003A1206900F0AAFC00BFF2E76664000052
:10395000257300006A64000070B505460C461646E3
:10396000012C05D0022C09D1284600F04DFC28B1CD
:1039700000221146284600F0B3FA70BD03A20221CE
:10398000284600F07DFA00BFF7E70000506C656143
:103990007365207370656369667920612073756251
:1039A000636F6D6D616E642E0D0A00007CB5064676
:1039B0000C461546012C05D100221146304600F078
:1039C0008FFA7CBD022C0AD10BA16868CDE90010EA
:1039D0000FA2022130462B6800F052FAF1E7022CC8
:1039E00001D9012000E00020014600231A4630469C
:1039F000FFF762FF00BFE4E720756E6B6E6F776EB6
:103A000020706172616D657465723A20000000007B
:103A100025733A257325730D0A00000070B504461E
:103A20000D461646012D01D0012000E00020014680
:103A300000231A462046FFF73FFF00B170BD00206B
:103A4000A168C1F82C01E1684968086801F07CFCB4
:103A500000BFF3E72DE9FE4305460F469146012FCF
:103A600001D0012000E00020014600231A4628462C
:103A7000FFF722FF08B1BDE8FE83E86840680468EC
:103A8000204601F05DFCC6B2642016FB00F0A16880
:103A9000B0FBF1F000F0FF08A068CDE900860290CD
:103AA000A86804A20821D0F82C31284600F0E8F9D3
:103AB00000BFE0E74C6F7374206C6F67733A20258A
:103AC000750D0A4D6178206C6F672071756575659D
:103AD000207574696C697A6174696F6E3A20257516
:103AE0002525205B25752F25755D0D0A000000003A
:103AF0007CB506460C461546012C05D10022114620
:103B0000304600F0EDF97CBD022C01D0012000E030
:103B10000020014600231A463046FFF7CDFE00B1D3
:103B2000F1E706A16868CDE900100AA2022130463B
:103B30002B6800F0A5F900BFE5E7000020756E6B6B
:103B40006E6F776E20706172616D657465723A2078
:103B50000000000025733A257325730D0A0000004C
:103B600070B504460D461646012D01D0012000E037
:103B70000020014600231A462046FFF79DFE00B1B3
:103B800070BDA068D0F83C0120F00400A168C1F825
:103B90003C0100BFF4E770B504460D461646012D02
:103BA00001D0012000E00020014600231A462046F3
:103BB000FFF782FE00B170BDA068D0F83C0120F094
:103BC0000400001DA168C1F83C0100BFF3E700003C
:103BD0002DE9FC4106460C461546022C01D9012070
:103BE00000E00020014600231A463046FFF764FE3D
:103BF00008B1BDE8FC81022C0AD10DA16868CDE9AD
:103C0000001011A2022130462B6800F039F9F0E7CC
:103C10003046FEF783F808B10EA000E00EA007467C
:103C20003B460EA20821304600F02AF900BFE0E72B
:103C300020756E6B6E6F776E20706172616D65744A
:103C400065723A200000000025733A257325730D34
:103C50000A0000006F6E00006F6666004563686FC3
:103C6000207374617475733A2025730D0A00000087
:103C700070B504460D461646012D01D0012000E026
:103C80000020014600231A462046FFF715FE00B12A
:103C900070BD00BFA068D0F83C0120F00800A1680A
:103CA000C1F83C0100BF00BFF2E770B504460D4605
:103CB0001646012D01D0012000E00020014600231E
:103CC0001A462046FFF7F8FD00B170BD00BFA0689E
:103CD000D0F83C0120F008000830A168C1F83C0190
:103CE00000BF00BFF1E700002DE9FF4104460F4689
:103CF0009046012F01D0012000E000200146002362
:103D00001A462046FFF7D8FD08B1BDE8FF8100251F
:103D1000A068D0F834611EE00EB1082D00D31BE07E
:103D20000023092201A9304601F002FA9DF80C0097
:103D3000421CA06800F194010923304601F0F8F913
:103D4000029EA06894302B466D1C07A208210090AB
:103D5000204600F095F8DFE700BF0020A16881F859
:103D6000940000BFD1E700005B2533645D2025731C
:103D70000D0A00007CB504460D461646012D13D1F0
:103D8000A06800F10C02511C204602F0C1F850B1AD
:103D90005021A06841731821A06801730FA204216B
:103DA000204600F06DF87CBD022D01D9012000E015
:103DB0000020014600231A462046FFF77DFD00B192
:103DC000F1E715A17068CDE9001019A20221204683
:103DD000336800F055F800BFE5E700004E6F207231
:103DE0006573706F6E73652066726F6D20746865A1
:103DF000207465726D696E616C2C20617373756DD2
:103E000065642038307832342073637265656E20C3
:103E100073697A650D0A000020756E6B6E6F776EA0
:103E200020706172616D657465723A200000000057
:103E300025733A257325730D0A00000070B50446FA
:103E40000D461646012D01D0012000E0002001465C
:103E500000231A462046FFF72FFD00B170BD064A29
:103E600006A1206900F01AFA5021A06841731821B8
:103E7000A068017300BFF1E76F64000025730000C4
:103E80000FB47CB504460D460020019009A80190AE
:103E9000A068D0F83C01C0F38000B8B1A068C07B36
:103EA000A84213D06846A168B1F80F10018000BF86
:103EB0002946204602F080F901AA2069089900F0FD
:103EC00010FA6946204602F0A3F904E001AA20692D
:103ED000089900F006FA002001907CBC5DF814FB04
:103EE0002DE9F04F89B007460C4691464FF0000887
:103EF000AF48FEF704F80546AE48FEF700F8281A6A
:103F000086B2AD480090B8684068ACA2082103684A
:103F10003846FFF7B5FFB96849680868FDF7EFFF55
:103F20000546A548FDF7EBFF28441FFA80F8B8685E
:103F300040680023424641683846FEF724FAA1A2B1
:103F400008213846FFF79CFFB9F1000F26D02CB3AB
:103F5000002521E005EB450104EB81014868FDF7F0
:103F6000CEFF834605EB450154F82100FDF7C7FF5E
:103F70005844B0420FD905EB450104EB8101486874
:103F8000FDF7BDFF834605EB450154F82100FDF721
:103F9000B6FF584486B26D1C4D45DBD38548FDF70E
:103FA000AEFF801C304486B28148334688A2082187
:103FB00000903846FFF764FFF01C1FFA80F80023DA
:103FC000424685A13846FEF7DEF9002C7ED000255A
:103FD00085E005EB450004EB80004068F0B305EB9D
:103FE000450054F82000C8B305EB450054F8200004
:103FF0007049CDE9001005EB450004EB80007BA281
:10400000082143683846FFF73BFFB01C1FFA80F8D1
:1040100005EB450104EB81014868FDF770FF83461D
:1040200005EB450154F82100FDF769FF83440BF1CE
:10403000020B6048FDF763FF5844A8EB0000C0B2D4
:10404000014602903846FEF7D5F83A213846FDF78A
:1040500039FF08F101001FFA80F829E0FFE705EBBE
:10406000450004EB8000406878B105EB450004EBA7
:1040700080004068334656A2082100903846FFF77A
:10408000FFFEF01C1FFA80F812E005EB450054F823
:10409000200068B105EB450054F8200033464CA2DF
:1040A000082100903846FFF7EBFEF01C1FFA80F85D
:1040B00005EB450004EB8000806860B105EB45002E
:1040C00004EB800000234246816800E00AE03846A5
:1040D000FEF759F902E03846FDF7C8FF6D1C4D4563
:1040E000FFF477AFB8684068806810B909B0BDE8E0
:1040F000F08FB86840688068049000200390804684
:104100000026824617E005A852460AF1010A03ABD1
:10411000012100900498FDF731FF039800B90BE0EE
:1041200003990868FDF7EBFEB04204D903990868CB
:10413000FDF7E5FE86B2E6E700BFBAF1010F00D158
:10414000D4E72DA208213846FFF79AFE4FF0000A67
:104150002AE005A852460AF1010A03AB01210090AA
:104160000498FDF70BFF039800B91EE0B01C1FFA7E
:1041700080F803980068434615A20821009038464D
:10418000FFF77EFE08F103001FFA80F803984068ED
:1041900038B103980023424641683846FEF7F3F8E9
:1041A00002E03846FDF762FFD3E700BF00BF9DE79E
:1041B0005764000054640000626400002573257396
:1041C000000000004F7074696F6E733A0D0A0000B2
:1041D0002020252D2A733A0053686F7720636F6D76
:1041E0006D616E642068656C702E00002020257360
:1041F0002573257300000000537562636F6D6D6158
:104200006E64733A0D0A000001468868D0F83C01DC
:10421000C0F34000704701468868D0F83C01C0F305
:10422000400070472DE9F04104460CB9BDE8F0812B
:1042300000BF4FF47A7505B904E0054FAE01304672
:10424000B84700BF601E041EF3D100BFEEE70000B8
:10425000416200002DE9F0470446884615461F4696
:1042600026780B4840F826500A4840F826704FF050
:1042700000090DB1084800E00020024633464146DF
:10428000201D01F0B5F981464846BDE8F0870000E1
:1042900058F8012068F801209D5C00000FB438B583
:1042A0000446059810B938BC5DF814FB0020009056
:1042B00006A800906A462046059900F012F80020F2
:1042C000009000BFEFE770B50446A06800B970BD6C
:1042D000D4E90403A268216898470020A06000BFC9
:1042E000F5E72DE9FC5F82460D4614460DB9BDE8A1
:1042F000FC9F00BF2E786D1C06B9E1E0252E70D121
:1043000000274FF0010900BF2E782B2E0CD02D2E48
:1043100002D0302E0CD103E047F001076D1C0AE0FB
:1043200047F002076D1C06E047F004076D1C02E031
:104330004FF0000900BF00BFB9F1000FE4D14FF00A
:10434000000800BF2A2E06D12168081D20600868D9
:1043500080446D1C0DE02E78302E01DB392E00DDFF
:1043600007E06D1CA6F1300008EB880100EB410866
:10437000E8E700BF4FF0000B2E782E2E10D16D1CF9
:1043800000BF2E78302E01DB392E00DD07E06D1CDA
:10439000A6F130000BEB8B0100EB410BF1E700BF06
:1043A0002E7800BF6C2E01D0682E02D16D1C2E78A5
:1043B00000E000E0F6E700BF692E21D008DC252EE2
:1043C0006DD0582E39D0632E0CD0642E6CD116E0EF
:1043D000702E4CD0732E3ED0752E1FD0782E63D108
:1043E0002AE065E02168081D2060D1F8009009F0FE
:1043F000FF00019050460199FDF768FC55E000BFB1
:104400002168081D2060D1F800905B460A224946C9
:104410005046CDE90087FEF7C7FB46E02168081D3E
:104420002060D1F800905B460A2249465046CDE90B
:10443000008701F043FE38E000BF2168081D2060BE
:10444000D1F800905B46102249465046CDE90087DE
:1044500001F034FE29E02168081D20600868019001
:104460003B4642465046019901F018FD1DE0216887
:10447000081D2060D1F8009030215046FDF726FC41
:1044800078215046FDF722FC002008210B4610221F
:10449000CDE900104946504601F010FE05E0252107
:1044A0005046FDF713FC00E000BF00BF6D1C03E0A9
:1044B00031465046FDF70AFC287800287FF41AAFF1
:1044C00000BF9AF80C0010B15046FFF7FCFE00BF89
:1044D0000DE72DE9FF470C4615461E46DDE90C7831
:1044E000684600F085F8814644EA450040EA8600C7
:1044F00040EA072040EA084109F5E060009A40F8E8
:104500002210BDE8FF872DE9FF470C4615461E46E1
:10451000DDE90C78684600F07BF8814644EA450006
:1045200040EA860040EA072040EA084109F5E060D9
:10453000009A40F82210BDE8FF872DE9FF470C469E
:1045400015461E46DDE90C78684600F081F8814684
:1045500044EA450040EA860040EA072040EA084174
:1045600009F5E060009A40F82210BDE8FF877CB5AD
:1045700005460C4600200090234602460146019065
:104580002846FFF7A6FF7CBD1CB50446002000901E
:1045900003460122114601902046FFF7CEFF1CBDC5
:1045A00031B5684600F024F804460121009A01FA6A
:1045B00002F0C4F80C0500BF38BD31B5684600F004
:1045C00037F804460121009A01FA02F0C4F80C05FC
:1045D00000BF38BD31B5684600F03AF80446012105
:1045E000009A01FA02F0C4F80C0500BF38BD0000C3
:1045F00001460868202802D24FF0A0407047087892
:1046000000F01F0008600148F8E7000000030050B8
:1046100001460868202802D24FF0A0407047087871
:1046200000F01F0008600148F8E700000003005098
:1046300001460868202802D24FF0A0407047087851
:1046400000F01F0008600148F8E700000003005078
:1046500001460868202802D24FF0A0407047087831
:1046600000F01F0008600148F8E700000003005058
:1046700031B56846FFF7BCFF044600BFD4F810050B
:104680000099C84000F0010038BD31B56846FFF719
:10469000AFFF04460121009A01FA02F0C4F80805B0
:1046A00000BF38BD31B56846FFF7C2FF044601219F
:1046B000009A01FA02F0C4F8080500BF38BD31B510
:1046C0006846FFF7C5FF04460121009A01FA02F08F
:1046D000C4F8080500BF38BDF8B504460D466DB9ED
:1046E00000946846FFF794FF06460121009A01FAFC
:1046F00002F0C6F80C0500BF00BF0DE0009468464C
:10470000FFF786FF06460121009A01FA02F0C6F87B
:10471000080500BF00BF00BFF8BD2DE9FC5F0446DF
:104720000D461CE026460127B8464FF00009CA4650
:10473000CB46019601A8FFF77BFF009047EA4800AF
:1047400040EA890040EA0A2040EA0B41009800F55F
:10475000E060019A40F8221000BF00BF641CAC4228
:10476000E0D9BDE8FC9FF8B504466568AE68002254
:104770006946286800F07EFD18B900213046FDF733
:10478000D5FAF8BD70B505466E68B4686068016812
:104790008A680121904718B90320A168087002E0D7
:1047A0000420A168087070BD2DE9F34107467C68BC
:1047B000A568A8680078042824D0A8680078032891
:1047C00001D1012000E00020804601A9206800F00E
:1047D000C7FD064609E088F001012846FDF7A6FA64
:1047E00001A9206800F0BCFD0646002EF3D1019817
:1047F00000F087FCB8F1000F03D000212846FDF738
:1048000095FA00BFBDE8FC810121C2685171704773
:104810007047704738B504460D4604484023044AA3
:1048200029460090204600F005F838BD4D5B000099
:1048300078F801202DE9F04F93B082460E461746D6
:104840009846DDF87090304600F05BFC18210DA80A
:10485000FBF78FFD0D97CDF83880CDF848900025F7
:104860002B46082207A9304600F062FC082509986B
:104870000A90BDF82000ADF82C00BDF82200ADF87C
:104880002E0000208DF83100079800F00300012869
:104890001BD107984FEA902B0798C0F3C2008DF800
:1048A00030000798C0F38314A2002B4601A93046BC
:1048B00000F03EFC05EB84050DA80AAB224601A9D9
:1048C0000090584600F05CFB27E0079800F00300DA
:1048D000022822D107984FEA905B0798C0F3C200E4
:1048E0008DF8300000BFBBF1080F01D2584600E040
:1048F000082004462B46224605A9304600F018FC45
:104900002544ABEB040B0DAB0AAA214605A800F029
:104910004BFABBF1000FE6D100BF304600F0F9FBC7
:1049200013B0BDE8F08F000010B502460B4C04EB4D
:10493000C203012906D0022906D0032906D0042982
:1049400008D105E0022007E0042005E0187903E023
:10495000587901E0002000BF00BF10BDA47304001F
:104960002DE9F04F8BB0FDF7C1F918B100200BB065
:10497000BDE8F08F0020C149C1F8180400BF00BF96
:1049800000BFBFF34F8F00BF00BF00BF08464068A5
:104990000A90084684680A9820400C3101EB800098
:1049A000099000250027AA4600BF0AA90998FEF72A
:1049B0005AF9B0B1B148D0F8180490B9AF480068BE
:1049C0000A99884205D8AD480068AC494860002083
:1049D000CDE70A982040A9490C3101EB80000990ED
:1049E00000E000E0E1E700BF4FF000080CE00A98AB
:1049F000411C20400A91A1490C3151F8200006A920
:104A000041F8280008F10108B8F1020FEFD3069829
:104A100000F00300022872D10698800D0590502105
:104A20000698B1EB905F02DD0698800D00E0502003
:104A30008146069869F39F50069009F1080004909A
:104A40000698C0F3C20A8E48049900F0FDFA0546A4
:104A5000002D52D0284600F054FB3B46082206A900
:104A6000284600F076FB08370A982040611C081A97
:104A70008600B1452DD936B10A9820407F490C31C6
:104A800001EB800001E07D480C3003900EB1304610
:104A900000E0484600F0FF0B16B178480C3000E00B
:104AA0000020029016B1A9EB060000E00020C0B281
:104AB00001903B465A462846039900F04AFB5F4462
:104AC000029828B13B462846DDE9012100F041FB70
:104AD0000CE00A98204069490C3101EB800B3B4601
:104AE0004A465946284600F034FB00BF0598C01CD2
:104AF0000A9901EB90000A9000BF43E0FFE7069897
:104B000000F0030001283DD10698C0F38310062869
:104B100003DA0698C0F3831000E00620069960F3DC
:104B2000891106910698C0F38310861C0698C0F37D
:104B3000C20AB100524800F087FA05460DB3284674
:104B400000F0DFFA3B46082206A9284600F001FBE8
:104B500008374FF000080FE00A98421C20400A92E4
:104B6000464A0C3202EB80013B460422284600F004
:104B7000F0FA3F1D08F101080698C0F38310404584
:104B8000EAD800BF002D55D03C48D0F81064D0F8CA
:104B9000180418B1284600F0BCFA4AE037E04FF09C
:104BA000000900BFF0684079012822D100BFF368F6
:104BB0001B791846BDF81C30DFF8C8C00CEB830128
:104BC00000EB400B4FF0070C0CFA0BFC0B6803EAF0
:104BD0000C0300EB400C23FA0CF2BAF1050F01D1E3
:104BE000032300E053469A46524501D34FF0010992
:104BF00000BFB9F1000F07D000BF30682946026836
:104C00003046904700BF00BFF068066800BF002E26
:104C1000C5D1284600F07DFA0020FCF731FF174887
:104C2000D0F8180410B915490A9848600020FCF71C
:104C30002CFF1DE01148D0F8106408E0B146D9F807
:104C4000000081684846884700BFF0680668002E6B
:104C5000F4D10D484088022809DB0C490C4A891A16
:104C6000C908022242EA01400AA100F093F800BFFD
:104C7000FDF73CF880F0010079E6000010FA012011
:104C8000E473040000F80120FCF70120DC73040049
:104C9000A47304004261636B656E647320666C7577
:104CA00073686564000000002DE9F74F82B0074685
:104CB000154637488668E91C8808002201A9FCF7D8
:104CC00095FF002855D0DDF804A00198801C0190C4
:104CD0002F488168491C01983040081A4FEA800823
:104CE00045450AD801993140294A0C3202EB81002E
:104CF0002A460399FBF716FB12E001993140244A3A
:104D00000C3202EB810042460399FBF70BFBA5EB4B
:104D10000802039800EB08011D480C30FBF702FB6A
:104D20004FEA174BFDF786FA81464BEA09420AF132
:104D30000100304016490C3141F820200AEA0600F3
:104D400001EB8004206867F3C50020600021206823
:104D500061F38F102060206865F39F502060206809
:104D600020F00300801C2060206820F004002060F8
:104D700000BF074890F8200430B100BF00BFFFF724
:104D8000EFFD0028FBD100BF05B0BDE8F08F0000AB
:104D900010FA012070B504460D4600231A46294634
:104DA000204601F043F870BD2DE9F05F07460E463E
:104DB00090461D46082E01D9BDE8F09F95F80C904D
:104DC000002028732946404600F054FE00240CE0E1
:104DD000B44205D23A5D1CA12846FFF75FFA03E012
:104DE0001BA12846FFF75AFA641C082CF0D319A11E
:104DF0002846FFF753FA00241AE0B44213D217F8FA
:104E000004A0FBF78BFA006810F80A0000F03E00DF
:104E100008B1504600E02E2083465A460EA128468F
:104E2000FFF73CFA03E00DA12846FFF737FA641CB0
:104E3000082CE2D301222946404600F0F7FD85F810
:104E40000C9000BFB8E70000202530327800000049
:104E5000202020007C0000002563000020000000CE
:104E600002480349401AC00870470000E473040078
:104E7000A47304002DE9FF41044616461D46002791
:104E80009DB1314601A8FEF791FBD0B90F49019AB7
:104E900001EB820004EB440307229A4001681140B1
:104EA00004EB4402D140CFB20BE055B9314601A822
:104EB000FEF77CFB28B90649019A01EBC20087790D
:104EC00000BF384604B0BDE8F081000000F80120C2
:104ED000A47304002DE9F04105460E46174610481C
:104EE00000EB86080F4800EB860405EB450207211E
:104EF000914020688843206005EB450107FA01F0E6
:104F000005EB4502072191400840216808432060D5
:104F10002068FDF70FFBA8F80200BDE8F081000053
:104F2000E0F7012000F8012013B50C462146684641
:104F3000FEF73CFB28B90448009A00EBC201086860
:104F40001CBD0020FCE70000A473040070B50B48F2
:104F5000D0F810440120094981F820040AE02046D5
:104F6000FFF752FC2546286841682846884700BF5D
:104F7000E0680468002CF2D170BD000010FA012036
:104F80002DE9FF4707460C46164698460C9D95F8B6
:104F90000C90002028732946404600F06BFD072E38
:104FA00047D2DFE806F004090F161F2A37003946FA
:104FB0002846FFF773F93DE0394628462268FFF797
:104FC0006DF937E039462846D4E90023FFF766F942
:104FD00030E0A068009039462846D4E90023FFF766
:104FE0005DF927E0D4E90201CDE900013946284600
:104FF000D4E90023FFF752F91CE0D4E9021220693A
:10500000CDE90012029039462846D4E90023FFF783
:1050100045F90FE0D4E90223D4E90410CDE90023D7
:10502000CDE9021039462846D4E90023FFF736F9C6
:1050300000E000BF00BF00222946404600F0F6FC19
:1050400085F80C90BDE8FF872DE9F84F07468A46A2
:10505000388BA0F104080AF104004044401EB0FB64
:10506000F8F0C0B200903846FEF741FB044614B990
:105070000020BDE8F88F0020207101216171A4F8A3
:10508000068025460098A0F1010B2C462F604FF0BA
:10509000000912E03846FEF72AFB064636B1607971
:1050A000401C60712E603760354604E0204600F0F9
:1050B00008F80020DDE709F10109D945EAD32046C7
:1050C000D7E72DE9F05F0446274697F80580264686
:1050D000A8F1010B002501E036686D1C5D45FBD38E
:1050E000D6F800A02646002507E0D6F80090314605
:1050F0005046FEF72AFB4E466D1C4545F5D3BDE8EC
:10510000F09F70B5044625460121281DFEF7B8FA28
:1051100070BDF8B5044626460121301DFEF7DCFAC5
:1051200000906D46287810B92046FFF7CAFFF8BDF9
:105130002DE9FC4105460E4614461F460194012008
:105140003B4601AA314600902846FEF791F9BDE89A
:10515000FC812DE9FC4105460E4614461F4601948C
:1051600000203B4601AA314600902846FEF780F910
:10517000BDE8FC8110B5044602201549086000BF57
:1051800000BF00BFBFF36F8F00BF00BF00BF00BFF5
:1051900000BF00BFBFF34F8F00BF00BF00BF081D9F
:1051A000046001F041F800200949086000BF00BF19
:1051B00000BFBFF36F8F00BF00BF00BF00BF00BFC5
:1051C00000BFBFF34F8F00BF00BF00BF10BD000086
:1051D00004E501402DE9F04104460E4604F00305C4
:1051E00024EA0507EA00FF219140386820EA010817
:1051F000E80006FA00F0804401201549086000BF6D
:1052000000BF00BFBFF36F8F00BF00BF00BF00BF74
:1052100000BF00BFBFF34F8F00BF00BF00BFC7F884
:10522000008001F001F800200949086000BF00BFBC
:1052300000BFBFF36F8F00BF00BF00BF00BF00BF44
:1052400000BFBFF34F8F00BF00BF00BFBDE8F081BC
:1052500004E501402DE9F04105460E4617460024BD
:1052600004E0315D2819FFF7B5FF641CBC42F8D398
:10527000BDE8F0812DE9F04104460D4617464FF098
:1052800000080020FCF7FCFB204600F03EF898BB2D
:105290002068066837B920680168204600F058F891
:1052A00021680860E068012806D0022808D0042898
:1052B0000BD0082815D10DE06068805D287019E0DA
:1052C000606830F81600288014E0606850F8260006
:1052D00028600FE0606800EBC60003C8C5E9000164
:1052E00008E0E368606806FB03011A462846FBF7FE
:1052F00019F800BF00BF02E0FFE74FF005080020EB
:10530000FCF7C3FB4046BDE8F0810146086802682F
:10531000086843689A4201D1012070470020FCE7E9
:1053200070B5044620680568206846683146204606
:1053300000F00EF8A84201D1012070BD0020FCE76A
:1053400001460868806870470021026891607047D4
:1053500002469068884201D9481C70470020FCE74B
:105360002DE9F04704460D464FF000090020FCF7F8
:1053700087FB2046FFF7D4FF8046B8F1000F02D02C
:10538000207C002846D12068466820684168204675
:10539000FFF7DEFF21684860B8F1000F06D02068F3
:1053A00001682046FFF7D4FF21680860E068012803
:1053B00006D0022808D004280BD0082815D10DE00B
:1053C00028786168885519E02888616821F81600F6
:1053D00014E02868616841F826000FE0D5E9000173
:1053E000626802EBC60203C208E0E368616806FB7C
:1053F00003101A462946FAF795FF00BF00BF204662
:1054000000F096FB074620688168B94201D2206807
:10541000876001E04FF004090020FCF736FB4846A6
:10542000BDE8F0872DE9F04F8DB00746884600BFF4
:10543000B868D0F83C01C0F3400038B100221146F2
:105440003846FEF74DFD0DB0BDE8F08FB8F1010F05
:1054500005D923A202213846FEF712FDF3E72548BD
:105460002549401A1C21B0FBF1F9002533E0C5EBBA
:10547000C500214901EB8004E0680C90A668204635
:10548000FFF75EFF8246204600F046F883466069DB
:105490000B9064200AFB00F0B0FBF6F00A90642049
:1054A0000BFB00F0B0FBF6F00990207C08B913A1CB
:1054B00000E015A10A98CDE905A607910490099985
:1054C0000C988DE803080396124A082138460B9B76
:1054D000FEF7D6FC6D1C4D45C9D300BFB3E70000F5
:1054E00042616420617267756D656E7420636F75CB
:1054F0006E74000000000000000000004F7665722E
:10550000666C6F77000000004E6F206F76657266E4
:105510006C6F77007C6F040070B504460020FCF7C8
:10552000AFFA204600F004FB05460020FCF7ADFA78
:10553000284670BD08B5002242504258009200BF74
:1055400008BDC0F808137047C0F804137047C0F8CE
:105550001C15704701464FF4A07000EB810080B22B
:10556000704701464FF480308840704708B50022EC
:1055700042504258009200BF08BDC0F8081370475F
:10558000C0F804137047D0F800228A43C0F8002204
:1055900070470122425070470146080B40B27047E5
:1055A0000146080B40B270472DE9F04107460E4610
:1055B000384600F0B1FA0446BCB14FF000080020B4
:1055C000FCF75EFA207910B14FF0010802E0266086
:1055D000012020710020FCF758FAB8F1000F03D029
:1055E00011252846BDE8F08100BF00252846F9E7CF
:1055F0002DE9FF4F83B005460C46287900EB4001AA
:1056000001EBC000794901EB800898F81C0028B133
:105610004FF0080B584607B0BDE8F08F2A79744B5D
:1056200053F822102868FFF7BFFF18B14FF0110B95
:105630005846F0E70598C8F800000698C8F8040036
:10564000207B012803DC2078FEF7C4FF02E02078ED
:10565000FFF735F8002000900190207800231A46CB
:105660000121FEF76AFF6078FF2808D094F801A0B6
:105670005046FEF7AFFF5046FEF786FF01E04FF0C1
:10568000FF3AA078FF280DD094F80290012700205F
:1056900000903B460246014601904846FEF74DFF0A
:1056A00000BF01E04FF0FF39A078297901EB4102FA
:1056B00002EBC1014D4A02EB8101C877E078FF2877
:1056C00005D0E078FEF7FBFFE078FEF75DFFE078BD
:1056D000297901EB410202EBC101444A02EB81014D
:1056E00088772E682078C6F80805C6F80CA5C6F895
:1056F000109500BFA068C6F8240500BF217B627B1F
:105700000AB1012300E00023184631B1012906D077
:10571000022907D0032908D000BF00BF08E040F0ED
:10572000020005E040F0040002E040F0060000BF87
:1057300000BFC6F8540500BF6079297901EB41022A
:1057400002EBC101294A02EB810181F82000D8F85F
:10575000000018B104213046FFF7F6FE00BF01201B
:10576000C6F8000500BFD8F80000A8B32868FFF706
:1057700017FF07462179029138460299002809DA75
:105780004A074FEA126C1B4A00F00F031B1F02F876
:1057900003C003E04A07130E174A135400BF00BFAB
:1057A0002868FFF7FDFE0746384600F01F0201217A
:1057B0009140124A430942F8231000BF00BF00F095
:1057C0001F02012191404209920002F1E022C2F839
:1057D000001100BF00BF00BF002088F81D0001209D
:1057E00088F81C004FF0000B584614E72CF80120F5
:1057F0008869040018ED00E000E400E080E200E0C9
:105800002DE9F04105460E461746287900EB400188
:1058100001EBC000154901EB80044FF00008607FE8
:1058200020B14FF011084046BDE8F081206808B172
:105830000120607796E80E10C4E9053CC4E9031224
:10584000002084F82800A07FFF2802D0A07FFEF768
:10585000C1FE27B1002060774FF0060804E0324611
:105860002146286800F060FA4046DDE72CF8012068
:105870002DE9F04704460D4616461F462846FFF719
:1058800070FE804667B12846FFF764FE81464946B0
:105890002068FFF76BFE41462068FFF771FE03E0CA
:1058A00041462068FFF769FE206800F5A86141F8CD
:1058B000256000BFBDE8F08710B5044600212068D0
:1058C000FFF767FE0220217901EB4101024A02EB5A
:1058D0008101087210BD000020F801202DE9F0417F
:1058E00005460E4617461C46DDF818804FF48072B8
:1058F000B2400123B34042EA03012868FFF743FEA8
:105900002868D0F800122143C0F8001200BF4346B7
:105910003A4631462846FFF7ABFFBDE8F08100006C
:105920002DE9F05F04460E469246207900EB4000D8
:105930003A4901EB8007387A20B14FF00809484610
:10594000BDE8F09FC7F800A0706878604FF00008CD
:105950000BE04046FFF7FEFD054629462068FFF7AD
:1059600005FE08F1010000F0FF0860794045F0DC19
:105970002068FFF711FE054696F803B02846594601
:10598000002809DA4A074FEA126C254A00F00F0393
:105990001B1F02F803C003E04A07130E214A1354E9
:1059A00000BF00BF2068FFF7F7FD054600BF05F008
:1059B0001F01012088401C496A0941F8220000BFEC
:1059C00000BF05F01F01012088406909890001F12D
:1059D000E021C1F8000100BF00BF71782068D0F855
:1059E000042561F30102C0F8042500BFB1782068E6
:1059F000D0F8082561F30102C0F8082500BF31780E
:105A00002068D0F8102561F30302C0F8102500BF0C
:105A1000012038724FF00009484691E720F8012034
:105A200018ED00E000E400E080E200E070B504461C
:105A30000D461646207A05280CD0607A28B10A480F
:105A40000AA102682846FEF729FC09A12846FEF7AC
:105A500025FC04E01EB106A12846FEF71FFC2846DF
:105A6000FEF731FC70BD000094F7012025730000A3
:105A70000D0A0000F8B504460D46E08838B116A0BE
:105A80000090E38816A218A12846FEF707FC207AAA
:105A900005281FD0607A58B1217AA088FEF744FF0C
:105AA000174951F82060324616A12846FEF7F6FB4A
:105AB0002846216800F0BAFAA0880021FFF734FADE
:105AC0000646207A104951F8202033460FA1284677
:105AD000FEF7E4FBF8BD00001B5B306D000000002A
